:100000000C94E7070C9404080C9404080C9404085E
:100010000C9404080C9404080C9404080C94FA1131
:100020000C9404080C9404080C9404080C94040820
:100030000C9404080C9404080C9404080C94040810
:100040000C9404080C9404080C9404080C94040800
:100050000C9404080C9404080C9404080C940408F0
:100060000C9404080C9404080C9404080C940408E0
:100070000C946D110C9404080C94BF110C9404089A
:100080000C9404080C9404080C9404080C940408C0
:100090000C9404080C94B4230C9447240C94040886
:1000A0000C9404080C9404080C9404080C940408A0
:1000B0000C9404084B61526164696F20696E697425
:1000C00000536F667420726573657400506F7765B6
:1000D00072204F4646202020202020202020202053
:1000E0002000564F4C233A20004D455441233A20DE
:1000F00000504C4159494E4723004E414D45534510
:1001000054233A20004C495354494E464F23002370
:1001100023434C492E4C495354230023434C492E2E
:100120004C4953542300000000C0E0F0F0F0F0F020
:10013000F0F0F0F0F0F0F0F0F0E0C00000000000AF
:1001400000FFFFFFFF01000000000000000001FFB2
:10015000FFFFFF000000000000FFFFFFFF80000026
:1001600000000000000080FFFFFFFF000000000013
:100170000003070F0F0F0F0F0F0F0F0F0F0F0F0FB2
:100180000F07030000000000000000000000000056
:1001900000000000E0F0F0E00000000000000000BF
:1001A000000000000000000000000000FFFFFFFF53
:1001B000000000000000000000000000000000003F
:1001C00000000000FFFFFFFF000000000000000033
:1001D000000000000000000000000000030707030B
:1001E000000000000000000000E0F0F0F0F0F0F08F
:1001F000F0F0F0F0F0F0F0F0F0E0000000000000AF
:100200000081C1C0C0C0C0C0C0C0C0C0C0E1FFFF4D
:10021000FFFF00000000000000FFFFFFFF87030357
:1002200003030303030303038381000000000000B2
:1002300000070F0F0F0F0F0F0F0F0F0F0F0F0F0FE5
:100240000F0700000000000000E0F0F0F0F0F0F018
:10025000F0F0F0F0F0F0F0F0F0E00000000000004E
:100260000081C1C0C0C0C0C0C0C0C0C0C0E1FFFFED
:10027000FF7F0000000000000081830303030303ED
:10028000030303030387FFFFFFFE000000000000DD
:1002900000070F0F0F0F0F0F0F0F0F0F0F0F0F0F85
:1002A0000F0700000000000000E0F0F0F030000058
:1002B000000000000030F0F0F0E00000000000005E
:1002C00000FFFFFFFFE0C0C0C0C0C0C0C0E0FFFF34
:1002D000FFFF00000000000000010303030303030D
:1002E000030303030307FFFFFFFF000000000000FC
:1002F000000000000000000000000000000C0F0FD4
:100300000F0700000000000000E0F0F0F0F0F0F057
:10031000F0F0F0F0F0F0F0F0F0E00000000000008D
:1003200000FFFFFFFFE1C0C0C0C0C0C0C0C0C0C070
:10033000C181000000000000008183030303030368
:10034000030303030387FFFFFFFF0000000000001B
:1003500000070F0F0F0F0F0F0F0F0F0F0F0F0F0FC4
:100360000F0700000000000000E0F0F0F0F0F0F0F7
:10037000F0F0F0F0F0F0F0F0F0E00000000000002D
:1003800000FFFFFFFFE1C0C0C0C0C0C0C0C0C0C010
:10039000C18100000000000000FFFFFFFF87030392
:1003A000030303030387FFFFFFFF000000000000BB
:1003B00000070F0F0F0F0F0F0F0F0F0F0F0F0F0F64
:1003C0000F0700000000000000E0F0F0F0F0F0F097
:1003D000F0F0F0F0F0F0F0F0F0E0000000000000CD
:1003E0000001010000000000000000000001FFFF0C
:1003F000FFFF0000000000000000000000000000FF
:10040000000000000000FFFFFFFF000000000000F0
:10041000000000000000000000000000000C0F0FB2
:100420000F0700000000000000E0F0F0F0F0F0F036
:10043000F0F0F0F0F0F0F0F0F0E00000000000006C
:10044000007FFFFFFFE1C0C0C0C0C0C0C0E1FFFF30
:10045000FF3F00000000000000FEFFFFFF870303D6
:10046000030303030387FFFFFFFE000000000000FB
:1004700000070F0F0F0F0F0F0F0F0F0F0F0F0F0FA3
:100480000F0700000000000000E0F0F0F0F0F0F0D6
:10049000F0F0F0F0F0F0F0F0F0E00000000000000C
:1004A00000FFFFFFFFE1C0C0C0C0C0C0C0E1FFFF50
:1004B000FFFF00000000000000010303030303032B
:1004C000030303030307FFFFFFFF0000000000001A
:1004D000000000000000000000000000000C0F0FF2
:1004E0000F070000000000000000000000000000F6
:1004F00000000000000000000000000000000000FC
:10050000000000000000003C7E7E7E7E3C0000007B
:10051000000000000000000000000000000000F0EB
:10052000F8F8F8F8F00000000000000000000000FB
:1005300000000000000000000101010100000000B7
:1005400000000000000000000000000000000000AB
:10055000000000000000000000000000000000009B
:10056000000000000000000000000000000000008B
:10057000000000000000000000000000000000C0BB
:10058000C0C0C0C0C00000000000000000000000AB
:10059000000000000000000F0F0F0F0F0F00000001
:1005A000000000000000000000000000000000004B
:1005B000000000000000000000000000000000003B
:1005C000000000000000000000000000000000002B
:1005D000000000000000000000000000000000001B
:1005E000000000000000000000000000000000000B
:1005F00000000000000000000000000000000000FB
:100600000000000000000000000000000000001FCB
:100610001111111F00000000000000000000000088
:1006200000000000000000000000000000000000CA
:1006300000000000000000000000000000000000BA
:1006400000000000000000000000000000000000AA
:10065000000000000000000000000000000000009A
:10066000000000000000000000000000000000008A
:10067000000000000000000000000000000000007A
:10068000000000000000000000000000000000006A
:10069000000000000000000000000000000000005A
:1006A000000000000000000000000000000000004A
:1006B000000000000000000000000000000000003A
:1006C000000000000000000000000000005F0000CB
:1006D0000007000700147F147F14242A7F2A1223A6
:1006E0001308646236495522500005030000001CBF
:1006F0002241000041221C0014083E081408083E54
:100700000808005030000008080808080060600071
:100710000020100804023E5149453E00427F40003F
:1007200042615149462141454B311814127F10272F
:10073000454545393C4A4949300171090503364967
:10074000494936064949291E00363600000056360A
:10075000000008142241001414141414004122143F
:10076000080201510906324979413E7E1111117E7C
:100770007F494949363E414141227F4141221C7F08
:10078000494949417F090909013E4149497A7F08A0
:1007900008087F00417F41002040413F017F08144D
:1007A00022417F404040407F020C027F7F040810BE
:1007B0007F3E4141413E7F090909063E4151215E8C
:1007C0007F09192946464949493101017F01013F05
:1007D0004040403F1F2040201F3F4038403F6314AF
:1007E00008146307087008076151494543007F41B9
:1007F000410002040810200041417F000402010270
:100800000440404040400001020400205454547809
:100810007F484444383844444420384444487F386E
:1008200054545418087E0901020C5252523E7F085B
:1008300004047800447D40002040443D007F10289F
:10084000440000417F40007C041804787C080404C4
:100850007838444444387C14141408081414187C60
:100860007C080404080854545420043F4440203CAD
:100870004040207C1C2040201C3C4030403C442810
:100880001028440C5050503C4464544C44000836EA
:10089000410000007F0000004136080010080810E9
:1008A000087846414678000000000000005F000024
:1008B0000007000700147F147F14242A7F2A1223C4
:1008C0001308646236495522500005030000001CDD
:1008D0002241000041221C0014083E081408083E72
:1008E0000808005030000008080808080060600090
:1008F000002010080402000000000000005F00005B
:100900000007000700147F147F14242A7F2A122373
:100910001308646236495522500005030000001C8C
:100920002241000041221C0014083E081408083E21
:10093000080800503000000808080808006060003F
:10094000002010080402000000000000005F00000A
:100950000007000700147F147F14242A7F2A122323
:100960001308646236495522500005030000001C3C
:100970002241000041221C0014083E081408083ED1
:1009800008080050300000080808080800606000EF
:10099000002010080402000609090600427F4000FA
:1009A00042615149462141454B311814127F1027AD
:1009B000454545393C4A49493001710905033649E5
:1009C000494936064949291E003636000000563688
:1009D00000000814224100141414141400412214BD
:1009E0000802015109067E1111117E7F49494931E2
:1009F0007F494949367F01010103603E21217F7F04
:100A00004949494177087F087722414949367F1093
:100A100008047F7F1009047F7F08142241403E01B3
:100A2000017F7F020C027F7F0808087F3E41414121
:100A30003E7F0101017F7F090909063E41414122B4
:100A400001017F0101274848483F1E217F211E6385
:100A5000140814633F20203F60070808087F7F4088
:100A60007F407F3F203F207F017F4848307F4830D4
:100A7000007F007F484830224149493E7F083E417F
:100A80003E462919097F20545454783C4A4A4A303A
:100A90007C545428007C04040404603824247C38EA
:100AA000545454186C107C106C00445454287C200E
:100AB00010087C7C2112097C7C10284400403804FA
:100AC000047C7C0810087C7C1010107C3844444462
:100AD000387C0404047C7C14141408384444440016
:100AE00004047C04040C5050503C08147C1408444A
:100AF000281028443C20203C600C1010107C7C40C6
:100B00007C407C3C203C207C047C5050207C50204D
:100B1000007C007C50502028445454387C103844C9
:100B200038485434147C000000000000000000002D
:100B300000000000000000000000000000000000B5
:100B400000000000000000000000000000000000A5
:100B500080C0402030101808884C040404060202AB
:100B60000202020202020202060404040C880818AF
:100B700010206040C0800000000000000000000065
:100B80000000000000000000000000000000000065
:100B90000000000000000000000000000000000055
:100BA0000000000000000000000000000000000045
:100BB0000000000000000000000000000000000035
:100BC000000000000000000000C0601808040301DD
:100BD0000000000000E01C03C13C46A2701800C0E9
:100BE000E0E0F0F0E0E0C0800830E2060CF0030E38
:100BF000F080000000010102041830608000000055
:100C000000000000000000000000000000000000E4
:100C100000000000000000000000000000000000D4
:100C200000000000000000000000000000000000C4
:100C300000000000000000000000000000000000B4
:100C40000000000000C0700C030000000000000065
:100C500000000000001F70800F30D08718200007B0
:100C60000FDFFFFFFF1F1F0360300F80601F84C076
:100C70003F0B0000000000000000000001031CF01A
:100C800080000000000000000000000000000000E4
:100C90000000000000000000000000000000000054
:100CA0000000000000000000000000000000000044
:100CB0000000000000000000000000000000000034
:100CC00000000000FC0F0000000000000000F0F039
:100CD000F00000000080E0F173340001000000002B
:100CE000F8FFFF9FFFFEC2000000010004F6F13094
:100CF0003030303030F0E0C0000000000000000074
:100D00001FF00000000000000000000000000000D4
:100D100000000000000000000000000000000000D3
:100D200000000000000000000000000000000000C3
:100D300000000000000000000000000000000000B3
:100D4000000000003FF00000000000000000FFFF76
:100D5000FFF0F8BD0F070300000000000000C0FF17
:100D6000FF8F88888BFFFFF80000000000FFFF6006
:100D700060E0E0E0703F3F5F000000000000000026
:100D8000F80F00000000000000000000000000005C
:100D90000000000000000000000000000000000053
:100DA0000000000000000000000000000000000043
:100DB0000000000000000000000000000000000033
:100DC0000000000000010E38C00000000000FFFF1E
:100DD000FF0001070F1E3CF0E0C0000000F8FFFF1D
:100DE0008B88888888889FFFFEC00000007F7F0076
:100DF000000003071F7C78600000000080E0380FCF
:100E000001000000000000000000000000000000E1
:100E100000000000000000000000000000000000D2
:100E200000000000000000000000000000000000C2
:100E300000000000000000000000000000000000B2
:100E400000000000000000000003060C182040C055
:100E50008000000000000000000000C0FFFF0F083D
:100E60000808080808080809FFFFF800000000004B
:100E7000000000000080C06030180C060100000077
:100E80000000000000000000000000000000000062
:100E90000000000000000000000000000000000052
:100EA0000000000000000000000000000000000042
:100EB0000000000000000000000000000000000032
:100EC0000000000000000000000000000000000022
:100ED00001010206040808181010202021202060BB
:100EE0004040404040406020202121301010180830
:100EF0000C040602010100000000000000000000D8
:100F000000000000000000000000000000000000E1
:100F100000000000000000000000000000000000D1
:100F2000000000000000000043008700CA000E011E
:100F300051019501D8011C025F02A302E6022A03B7
:100F40006D03B103F4030000A3024605E9078C0A10
:100F50002F0DD20F75121815BB175E1A011DA41F95
:100F60004722EA248D27000000005E1A0000BC34EE
:100F700000001A4F000078690000D6830000349EFC
:100F8000000092B80000F0D200004EED0000AC0767
:100F900001000A220100683C0100C65601002471CC
:100FA0000100828B010000000000AC070100580F17
:100FB0000200143E030096C90400144402000A22F1
:100FC0000100D68300001A4F00005E1A00001124B1
:100FD0001FBECFEFD8E0DEBFCDBF12E0A0E0B1E092
:100FE000EAE7FEE602C005900D92A438B107D9F7F2
:100FF00027E0A4E8B2E001C01D92A837B207E1F7EC
:101000000E94520E0C943B370C94000020918402F5
:10101000223070F490918602E92FF0E0E957FD4FFD
:1010200080832F5F209384029F5F9170909386024C
:10103000089520918402222379F090918502E92F6E
:10104000F0E0E957FD4F80812150209384029F5F9B
:10105000917090938502089580E008951092910216
:10106000109290021092890210928D0210928C02BE
:10107000E7E8F2E010821182109286021092850257
:101080001092840254985C9A0895CF93DF9329B10B
:10109000C091890280918C0290918D0290938B0275
:1010A00080938A02809190029091910290938F0296
:1010B00080938E0224FD15C0813D27E09207D0F574
:1010C000019690938F0280938E028333910590F165
:1010D000C160813D974071F5C1FD2CC0CB7FC260DE
:1010E00029C0C0FF0CC0C1FD0AC0C2FF03C0CB7F36
:1010F000D5E006C010928B0210928A02C460D0E044
:10110000C2FF0DC080918A0290918B028D32914076
:1011100030F010928B0210928A02CB7FD3E08C2F9A
:101120008370833009F4D4E010928F0210928E0203
:10113000CC7F01C0D0E0C2FF0DC080918A029091A7
:101140008B028D3221E0920728F4019690938B0256
:1011500080938A0280918A0290918B0290938D02F3
:1011600080938C02DD2331F081E00E9406088D2FF0
:101170000E94060880918E0290918F0290939102B6
:1011800080939002C0938902DF91CF910895CF930D
:10119000DF930E94BC120E94C81280E290E00E947D
:1011A000E0128FE790E00E94E0120E94C81281E2F4
:1011B00090E00E94E01280E090E00E940B130E94F9
:1011C000D412CCE7D5E08881806788830E94C8125A
:1011D00080E290E00E94E01284E090E00E94E01241
:1011E000888190E00E94E0120E94D412EDE7F5E0C1
:1011F0008081817084608E7F80830E94C81280E22B
:1012000090E00E94E01285E090E00E94E012898167
:1012100090E00E94E012DF91CF910C94D4120E94D2
:10122000190880932F0380912F03882321F00E94B7
:10123000190880932E0308959093CD008093CC00DD
:1012400088ED8093C90086E08093CA000895282F16
:10125000FC018E2F821B861710F41192FACF08958D
:10126000EF92FF920F931F93CF93DF9300D000D0A4
:10127000CDB7DEB79C011C821B8280E197E29A8386
:10128000898340E005E010E08AE0E82EF12CF901C6
:1012900001900020E9F73197E21BF30B842F90E0D7
:1012A000B8016E1B7F0B8617970748F489819A81D6
:1012B000B7010E9450337A8369834F5FE8CF40E0E3
:1012C0000AE010E0842F90E0F90101900020E9F796
:1012D0003197E21BF30B8E179F07F8F4E981FA812F
:1012E0006B817C81D901A80FB91F8C9190E0C097C8
:1012F0008E9FD0018F9FB00D9E9FB00D1124CD0108
:10130000860F971F9C838B8389819A81B8010E94E5
:1013100050337A8369834F5FD5CF8B819C810F9047
:101320000F900F900F90DF91CF911F910F91FF9031
:10133000EF900895CF93DF93DC01FB0180E090E014
:1013400048EB58EAEB0109900020E9F72197C61B0A
:10135000D70B8C179D0740F5208127FD03C02D93E7
:10136000319620C030E0322F2227C1812C0F311D51
:10137000E901C059D04DE09710F4205D06C0E901A5
:10138000C058D14D609718F420592D930AC02130D0
:10139000C0ED3C0711F45D9304C02139314D11F4C7
:1013A0004D9332960196CECFDF91CF9108952F9233
:1013B0003F924F925F926F927F928F929F92AF92E5
:1013C000BF92CF92DF92EF92FF920F931F93CF9332
:1013D000DF93EC01E0911A03F0911B03DF01AA0FE8
:1013E000BB1FAB5BB94F2D903C9011979E0140E025
:1013F00050E060E070E080E090E05101C12CD12C21
:10140000E12CF12C00E010E00E94AC33A0901C0312
:10141000B0901D03C0901E03D0901F03E0902003E6
:10142000F090210300912203109123030E94A33323
:1014300020931C0330931D0340931E0350931F03FE
:1014400060932003709321038093220390932303DE
:101450003196F0931B03E0931A03CD93DC93B0977E
:1014600021F410921B0310921A0305E00E948733A7
:10147000C901DF91CF911F910F91FF90EF90DF9005
:10148000CF90BF90AF909F908F907F906F905F9024
:101490004F903F902F90089510922D0310922C039F
:1014A0000E940D16E0916804F091690480818130FA
:1014B00099F7A485B585809143069C9190FB80F9AE
:1014C00080934306A485B5859C919695917090FB79
:1014D00081F980934306A485B5859C9192FB992759
:1014E00090F990FB82F980934306A485B5859C9181
:1014F00093FB992790F990FB83F98093430604842A
:10150000F585E02D90819295917090FB84F9809300
:1015100043068F7109F0C0CF0895EF92FF921F9399
:10152000CF93DF9300D000D0CDB7DEB7182F66235E
:10153000E1F01F928F9383EA91E09F938F93CE0106
:1015400001967C019F938F930E94313460E088E183
:101550000E94E81340E062E0C7010E9465150F9009
:101560000F900F900F900F900F90812F86950E94F3
:10157000C1150F900F900F900F90DF91CF911F9199
:10158000FF90EF90089597FD05C08F3F910509F0FA
:101590001CF4089580E008958FEF0895CF93C82F2D
:1015A00065E081E00E94E813C13029F440E060E08A
:1015B00087EA91E006C0C11107C040E060E08DEB12
:1015C00091E0CF910C946515CF910895CF93DF935F
:1015D000EC01FC0101900020E9F73197E81BF90BC1
:1015E000E0933003BC0182E895E00E940734FE01DD
:1015F00001900020E9F73197EC1BFD0BEE57FA4FF5
:101600008DE08083809130038F5F809330038091E1
:1016100082058093CE00DF91CF9108958F929F92A3
:10162000BF92CF92DF92EF92FF920F931F93CF93CF
:10163000DF93CDB7DEB761970FB6F894DEBF0FBE6C
:10164000CDBFB82E082F10E00E94571461E080E053
:101650000E948D0A61E08B2D0E948D0A8091800589
:101660000E94CE0A0E944C0A20E083EDE82E81E021
:10167000F82ECE0101966C0180912C0390912D03E0
:10168000883B9B4009F4E7C0298B0E940D16E0912E
:101690006804F09169049080298991E0991269C0E9
:1016A000A485B585909143068C9180FB90F9909329
:1016B0004306A485B5858C9183FB882780F980FB40
:1016C00093F990934306A485B5858C918695817096
:1016D00080FB91F990934306A485B5858C9182FB9C
:1016E000882780F980FB92F9909343060484F5855E
:1016F000E02D80818295817080FB94F99093430660
:1017000092FF08C00E944C0A81E00E94CE0A90928B
:10171000800529898091430681FF09C0298B0E9499
:101720004C0A80E00E94CE0A10928005298980919F
:10173000430680FF0DC00E944C0A10922D031092A8
:101740002C0301501109C8010E94C30AB82E21E0E0
:101750008091430683FF0DC00E944C0A10922D0316
:1017600010922C030F5F1F4FC8010E94C30AB82EAE
:1017700021E08091430684FF46C010922D03109211
:101780002C0380918005811119C0E0916804F091CB
:1017900069040784F089E02D80818C3318F4C80136
:1017A000059704C0843C48F0C80105960E94C30A0E
:1017B000B82E082F10E00E944C0A21E0809180058D
:1017C000813049F5E0916804F09169040784F0895B
:1017D000E02D808190E0298B0E9435130E94D7096B
:1017E0004C019924C801059729898816990624F087
:1017F0000A96881599057CF4B82C882D86950E9448
:10180000C11584010BC0213009F036CF61E08B2D6A
:101810000E948D0A03C0213009F02ECF8091300341
:10182000811117C061E08B2D0E948D0A1F92BF921B
:10183000FF92EF92DF92CF920E943134C6010E9454
:10184000E60A0F900F900F900F900F900F9020E0EE
:1018500013CF21E011CF10922D0310922C0343E0FF
:1018600050E060E070E08EE795E00E94E2360E9472
:1018700057148B2D61960FB6F894DEBF0FBECDBF07
:10188000DF91CF911F910F91FF90EF90DF90CF905C
:10189000BF909F908F900895CF93DF939F938F93E6
:1018A00081EE91E09F938F93C5E8D6E0DF93CF93CD
:1018B0000E943134109227031092260309900020D1
:1018C000E9F72197C558D640D0932503C093240348
:1018D0000F900F900F900F900F900F90DF91CF917E
:1018E00008950F931F93CF93DF93CDB7DEB766971D
:1018F0000FB6F894DEBF0FBECDBFFE013196CE010C
:1019000047968F011192E817F907E1F760912603D6
:10191000709127036B57794F45E150E0C8010E9451
:10192000223462E081E00E94E81340E060E0C801F8
:101930000E9465158091260390912703019690934C
:1019400027038093260320912403309125038217D7
:10195000930721F4109227031092260366960FB680
:10196000F894DEBF0FBECDBFDF91CF911F910F91D5
:101970000895CF93DF93682F80E00E94E813C0E8BA
:10198000D0E068E180E40E94B5132197D1F7DF91A0
:10199000CF910895CF92DF92EF92FF920F931F9312
:1019A000CF93DF9300D000D0CDB7DEB78C0180910C
:1019B000630787FF3FC06BE171E0C8010E94E2331B
:1019C000892B41F08091640780FD04C080916407F9
:1019D00081602DC08091640780FF0CC065E071E0DC
:1019E000C8010E94E233892B29F0809144068F5F61
:1019F000809344066FE071E0C8010E94E233892BB6
:101A0000C9F08091640780FF15C080914406815021
:101A100080934406809163078F778093630780915A
:101A200064078E7F8093640780916407826080934F
:101A30006407B7C08091640782FF3EC06BE171E02C
:101A4000C8010E94E233892B41F08091640783FD35
:101A500004C0809164078860EACF65E071E0C80146
:101A60000E94E2337C01009791F06CE270E00E94EA
:101A7000FC339701215F3F4FAC01421B530BB70171
:101A8000605F7F4F82EA95E00E940E348AC06FE06B
:101A900071E0C8010E94E233892B71F080916407E4
:101AA0008B7F8093640780916407806180936407D3
:101AB00080916407877FBBCF6AEF70E0C8010E9406
:101AC000E2337C01892B59F164E0CE0101960E943A
:101AD00027098AE0E80EF11C60E270E0C7010E946D
:101AE000FC336C01AC014E195F0955274F5F5F4F06
:101AF000B701CE0101960E940E34CE0101960E94DC
:101B000030098093B805B6016F5F7F4F82EA95E098
:101B10000E9407348091640780628093640761EFBC
:101B200070E0C8010E94E233892B29F0809163079D
:101B300082608093630769EE70E0C8010E94E2331F
:101B40007C01892B89F064E68FEF96E00E942709DB
:101B5000B701695F7F4F8FEF96E00E940734809155
:101B6000630784608093630762EE70E0C8010E949F
:101B7000E2330097B1F02091630724FD12C0BC014D
:101B80006A5F7F4FCE0101960E940734CE01019615
:101B90000E94300980938105809163078061809362
:101BA00063070F900F900F900F90DF91CF911F91CF
:101BB0000F91FF90EF90DF90CF9008950F931F93B8
:101BC000CF93DF931F92CDB7DEB78C01462F67E02E
:101BD00081E049830E94E813498160E0C8010F90C9
:101BE000DF91CF911F910F910C9465151F93399A36
:101BF000419880917F0580FF02C0419A01C04198C1
:101C00002FEF80E792E0215080409040E1F700C044
:101C100000000E942E080E94871480E00E94981500
:101C200080E000E8009361008093610082E080938F
:101C3000B0001092B20098E09093B30087BB8093FD
:101C4000700087E08093B10078940E94641683E36B
:101C500090E00E941C092FEF83E294EF2150804016
:101C60009040E1F700C00000809163078D7F809372
:101C7000630780917F0580FF0EC00E94C7080E9405
:101C800057148AEF91E00E94E60A81E00E94B90CA5
:101C900083E00E94B90C809163078F7B8093630778
:101CA0001F910895CF93DF93CDB7DEB7C057D10909
:101CB0000FB6F894DEBF0FBECDBF6E0125E6C20E93
:101CC000D11C8CE0E7E9F1E0D60101900D928A95F4
:101CD000E1F743E050E060E070E08EE795E00E94BD
:101CE000D23680917E058F3F91F481E080937E050E
:101CF00090917F05916090937F058093800543E0EC
:101D000050E060E070E08EE795E00E94E2360E94CD
:101D1000F60D212C312C8E010F5F1F4F89E2482ECA
:101D200082E0582E98E4E92E92E0F92E2CE5A22EBE
:101D300022E0B22E38E8832E33E1932E0E940F0961
:101D40008091630780FF18C0809163078E7F809326
:101D500063070E94571480E00E9498154198809173
:101D60007F058E7F80937F0543E050E060E070E068
:101D70008EE795E00E94E23670902F0381E07812A2
:101D800033C080912E03853079F587E00E94FF13E0
:101D900064EB70E0C8010E94DB3361E0C8010E947F
:101DA000DE0D84E090E00E941C0983E092E00E9436
:101DB000E60A9FEFA0E7B2E09150A040B040E1F703
:101DC00000C0000080E192E00E94E60A2FEF80E769
:101DD00092E0215080409040E1F700C000007092F6
:101DE0002F03A4E0A0932E0380912F038130F9F4F8
:101DF00080912E038430D9F487E00E94FF1361ECB8
:101E000070E0C8010E94DB3361E0C8010E94DE0D72
:101E100080E292E00E94E60ABFEF20E782E0B15044
:101E200020408040E1F700C000000E94F60D809144
:101E30002F03813009F06BC080912E03833009F0AD
:101E400066C080917F0580FD26C0419A81608093A5
:101E50007F050E94571481E00E94B90C83E00E9424
:101E6000B90C9FEFA3E2B4EF9150A040B040E1F76E
:101E700000C000000E94C7088091640780648093BE
:101E8000640743E050E060E070E08EE795E00E9478
:101E9000E236212C3CC0239426E0221649F1222070
:101EA00039F181E0281206C06CEC70E0C8010E9494
:101EB000DB3319C0F601E20DF11DE20DF11D808149
:101EC00091816CE370E00E9450337F936F935F9237
:101ED0004F921F930F930E9431340F900F900F90E9
:101EE0000F900F900F9061E0C8010E94DE0D04C0BA
:101EF00087E00E94FF13212CF601E20DF11DE20D97
:101F0000F11D808191819093290380932803809112
:101F1000650781FF12C080917F0580FF0EC082ECB3
:101F200095E00E94CA0C60E882EC95E00E942709C7
:101F3000809165078D7F809365078091630786FD9B
:101F400012C08091630781FF0EC080916307806497
:101F500080936307809163078068809363078FE3B2
:101F600092E00E94E60A8091640781FF1FC0809181
:101F700044061F928F93832D032C000C990B01961E
:101F80009F938F93FF92EF921F930F930E94313490
:101F900060E0C8010E94DE0D809164078D7F809310
:101FA00064070FB6F894DEBF0FBECDBF8091640703
:101FB00086FF09C08AEF91E00E94E60A80916407DB
:101FC0008F7B809364078091640785FF25C0F801AB
:101FD0001192EC15FD05E1F760E080E00E94E81346
:101FE00060E080E40E94B51380E00E94FF1360E08F
:101FF00081E00E94E81362EA75E0C8010E949A0934
:1020000040E060E0C8010E946515809164078F7D03
:10201000809364073090B8058091640784FF1AC0EC
:1020200060E080E00E94E8136FEF80E40E94B51347
:1020300080E00E94FF1360E081E00E94E81341E02D
:1020400060E082EA95E00E946515809164078F7ECA
:10205000809364078091640780FD2FC0809164079E
:1020600083FD2BC080912A0390912B03892B29F5A6
:102070008091630782FF12C0F8011192EC15FD05F3
:10208000E1F76FEF76E0C8010E949A09C8010E944B
:102090004C0C809163078B7F80936307809163076B
:1020A00085FF0BC080917F0580FF07C00E94710CE7
:1020B000809163078F7D809363070E940D16E091E6
:1020C0006804F09169048081813009F037CE8091F5
:1020D0007F0580FF33CEA485B585809143069C9112
:1020E00090FB80F980934306A485B5859C919695D5
:1020F000917090FB81F980934306A485B5859C91EE
:1021000092FB992790F990FB82F980934306A4856E
:10211000B5859C9193FB992790F990FB83F9809367
:1021200043060484F585E02D90819295917090FB93
:1021300084F98093430684FF14C0809181050E9436
:102140000E0B80938105809130038111FCCF8AEFC3
:1021500091E00E94E60A81E00E94B90C83E00E94AF
:10216000B90C8091430680FF3DC00E944C0A3A940E
:1021700037FE03C0309044063A94809144061F9283
:102180008F93632C032C000C7708C30101969F9357
:102190008F93FF92EF921F930F930E94313460E070
:1021A000C8010E94DE0D80916407846080936407FB
:1021B0008FE19EE40197F1F700C000007F923F920B
:1021C000BF92AF921F930F930E943134C8010E94B7
:1021D000E60A90922B0380922A030FB6F894DEBF92
:1021E0000FBECDBF8091430681FF0AC00E944C0AFA
:1021F0008BE692E00E944C0C8CE692E00E94E60A8C
:102200008091430682FF21C00E944C0A8BE692E037
:102210000E944C0C832D032C000C990B9F933F9232
:10222000A5E7B2E0BF93AF931F930F930E943134A1
:10223000C8010E94E60A10922B0310922A030F9005
:102240000F900F900F900F900F908091430683FF97
:1022500075CD0E944C0A339480914406232D032CA3
:10226000000C330B90E02817390709F4312C8091CA
:1022700044061F928F93632C032C000C7708C30134
:1022800001969F938F93FF92EF921F930F930E945B
:10229000313460E0C8010E94DE0D809164078460E3
:1022A000809364078FE19EE40197F1F700C000007E
:1022B0007F923F92BF92AF921F930F930E9431344F
:1022C000C8010E94E60A90922B0380922A030FB65F
:1022D000F894DEBF0FBECDBF31CD1F920F920FB667
:1022E0000F9211242F933F934F935F936F937F939C
:1022F0008F939F93AF93BF93EF93FF939091CE00F3
:10230000809119039D3021F02091650721FF06C0BF
:1023100090E0A2ECB5E0E9E9F2E00BC0E82FF0E0D4
:10232000E756FD4F908387FD19C08F5F8093190397
:1023300015C09F0129593240281739071CF42191F3
:102340002D93F7CF60E889E992E00E9427098091F8
:10235000650782608093650710921903FF91EF91E2
:10236000BF91AF919F918F917F916F915F914F91AD
:102370003F912F910F900FBE0F901F9018951F92B5
:102380000F920FB60F9211242F933F934F935F93A9
:102390006F937F938F939F93AF93BF93EF93FF932D
:1023A000E0919802EF5FE093980280913003E81388
:1023B0000AC0109298021092300360E282E895E021
:1023C0000E94270906C0F0E0EE57FA4F8081809303
:1023D000CE00FF91EF91BF91AF919F918F917F912F
:1023E0006F915F914F913F912F910F900FBE0F9082
:1023F0001F9018951F920F920FB60F9211242F93D2
:102400003F934F935F936F937F938F939F93AF937C
:10241000BF93EF93FF93B89A0E94450880912803D9
:1024200090912903892B11F1809196029091970246
:102430000196883E23E0920729F0909397028093BB
:10244000960214C01092970210929602809128036F
:102450009091290301979093290380932803892B56
:1024600029F48091630781608093630780912A0338
:1024700090912B03892B81F080912A0390912B035B
:10248000019790932B0380932A03892B29F4809141
:10249000640780648093640780912C0390912D03DE
:1024A000883B9B4048F480912C0390912D0301962A
:1024B00090932D0380932C03809194029091950228
:1024C000019690939502809394028639910549F480
:1024D0008091630780628093630710929502109247
:1024E0009402809192029091930220916907309119
:1024F0006A078217930791F421E020936D072091DA
:102500006B0730916C07820F931F90936C07809339
:102510006B07109293021092920205C0019690935D
:10252000930280939202FF91EF91BF91AF919F919F
:102530008F917F916F915F914F913F912F910F906C
:102540000FBE0F901F90189500000197E9F70895AE
:10255000459A81E090E00C94A4123C9A81E090E0CE
:102560000C94A4123C9881E090E00C94A41245983D
:1025700081E090E00C94A4124498459845984498C2
:102580003D9A3C980E94A8120E94AD120C94B2127F
:102590000E94A8120E94B2120E94A8120E94AD12BC
:1025A0000E94B7120C94B2120E94B7120E94AD1290
:1025B0000E94A8120E94AD120E94A8120C94B2129E
:1025C0000F931F93CF93DF938C01C8E0D0E00E945C
:1025D000B71207FF03C00E94B21202C00E94AD12E0
:1025E0000E94A812000F111F219789F70E94B712AD
:1025F0000E94B2120E94A812C6B10E94B7128C2F7C
:1026000082958F7091E08927817090E0DF91CF9162
:102610001F910F910895EF92FF920F931F93CF9305
:10262000DF937C010E94B7120E94B21208E010E012
:10263000C0E0D0E0CC0FDD1F0E94A8123499219693
:102640000E94B71201501109A9F7EF2811F00E945A
:10265000AD120E94A8120E94B712CE01DF91CF9155
:102660001F910F91FF90EF9008950F931F93CF93B9
:10267000DF93009711F481E090E020910401309104
:1026800005012C5F3F4FA901455353404C31510583
:1026900014F025E333E03093050120930401E09129
:1026A0000401F091050193838283608171812091FF
:1026B0000001309101012E173F0721F470930101B1
:1026C00060930001A0910001B091010147E050E04A
:1026D00020E031E0E9010D911C9111970E171F07C1
:1026E00019F411967C936E9312960D911C91139789
:1026F0000817190740F48881998191838083F983B1
:10270000E88380E090E0E90128813981D3E0A133BA
:10271000BD0741F4F90182819381DF91CF911F912F
:102720000F910895CD91DC911197088119810E17B1
:102730001F0711F4798368830A811B810817190721
:1027400048F48D919C91119791838083ED93FC9334
:1027500080E090E0A3E0C133DA07E1F2A881B9811B
:102760004150510909F0B7CFD5CF1F93CF93DF93D5
:102770001F92CDB7DEB7182F69830E94C81288E771
:1027800090E00E94E012812F90E00E94E0126981A7
:10279000862F90E00E94E0120F90DF91CF911F9161
:1027A0000C94D412811102C066EA04C0813021F475
:1027B00067EA80E00C94B5130895811102C06EEAB7
:1027C00004C0813021F46FEA80E00C94B5130895C1
:1027D000CF93C82F8093660760936807605580E0A9
:1027E0000E94B5136C2F6F7080E00E94B5136C2FA0
:1027F00062956F70606180E0CF910C94B513CF93B8
:10280000DF93D82FC0E06D2F8C2F0E94E81360E07B
:1028100080E40E94B513CF5FC038A9F7DF91CF9154
:1028200008950F931F93CF93DF938C0180935203EE
:102830000E94C81288E790E00E94E01280E490E0D5
:102840000E94E01285E0809FE001819FD00D11245D
:10285000CA5DD94F15E080916707FE01882329F0F2
:10286000849190E08095909502C0849190E00E94C0
:10287000E012115021961111EECF80916707882345
:1028800019F08FEF90E002C080E090E00E94E0122B
:102890000E94D412809166078B5F813808F085E032
:1028A00080936607DF91CF911F910F910895EF926A
:1028B000FF920F931F93CF93DF9360E080E00E941D
:1028C000E81300E014E0E12CF12CC0E0D0E080E25D
:1028D00090E00E9411142196C138D10548F08FEF85
:1028E000E81AF80A6E2D80E00E94E813C0E0D0E0FC
:1028F0000150110961F785E080936607109268071F
:10290000DF91CF911F910F91FF90EF9008950E945A
:10291000BC1280E00E94DD1383EC99E00197F1F78F
:1029200000C0000065ED80E00E94B51360E880E023
:102930000E94B51368EA80E00E94B5136FE380E05F
:102940000E94B51363ED80E00E94B51360E080E063
:102950000E94B51360E480E00E94B5136DE880E04A
:102960000E94B51364E180E00E94B51360EA80E044
:102970000E94B51360EC80E00E94B5136AED80E020
:102980000E94B51362E180E00E94B51360E280E02E
:102990000E94B51360E080E00E94B51361E880E01A
:1029A0000E94B51360E880E00E94B51369ED80E0F5
:1029B0000E94B51361EF80E00E94B5136BED80E0DB
:1029C0000E94B51360E480E00E94B51364EA80E0E1
:1029D0000E94B51380E00E94D2136FEA80E00E944B
:1029E000B5130E94571460E080E00E94E8138FE264
:1029F00095E70197F1F700C000000895EF92FF926C
:102A00000F931F93CF93DF93E09068078E3239F0D6
:102A1000803239F0833439F0C0EDC80F05C0CBE007
:102A200003C0CCE001C0CDE00E94C81288E790E06E
:102A30000E94E01280E490E00E94E01280E6C89FCD
:102A4000E001112400E010E0F12CF801EC0FFD1F73
:102A5000EA5DFE4F849190E00E94E01286E18F15BE
:102A6000B0F40E94D4128091680761E0680F8091F1
:102A700066070E94E8130E94C81288E790E00E944F
:102A8000E01280E490E00E94E012F12C01C0F39487
:102A90000F5F1F4F00361105C1F60E94D4128091BE
:102AA0006607895E809366076E2D0E94E813809109
:102AB0006607813818F085E080936607DF91CF9133
:102AC0001F910F91FF90EF9008950F931F93CF9355
:102AD000DF93FC01C62F40936707D5E080818823F0
:102AE00011F1C1110FC08091660785508C3710F02D
:102AF000D09366078F010F5F1F4F808190E00E9487
:102B000011140FC0C23051F7809166078851893681
:102B100010F0D09366078F010F5F1F4F80810E94D6
:102B2000FE14F801DBCFDF91CF911F910F91089533
:102B3000FF920F931F93CF93DF93F82E60E080E016
:102B40000E94E813C6E2DBE000E010E0F11005C0EF
:102B5000FE01649180E40E94B5131F5F17FF06C059
:102B60000F5F602F80E00E94E81310E02196FFE0E5
:102B7000C632DF0759F7DF91CF911F910F91FF9078
:102B80000895EF92FF920F931F93CF93C82F87FD65
:102B9000CFE7009151030C1728F000915103C017A3
:102BA000D0F011C010E0EC2EF12C0E151F05ACF783
:102BB00067E0802F0E94E8136FEF80E40E94B51356
:102BC0000F5F1F4FF2CFC0935103CF911F910F9111
:102BD000FF90EF90089510E0EC2EF12CE016F10636
:102BE00094F767E0802F0E94E81360E080E40E9481
:102BF000B51301501109F2CFE0916804F091690416
:102C00008181928190FD08C081E0808381819281E1
:102C100090936F0780936E070895E0916804F09198
:102C20006904818192810E947D2B90916D07913082
:102C300081F481110EC080916B0790916C074CEF6D
:102C400055E161E00E94BC19811104C010926D072A
:102C5000089580E00895AF92BF92CF92EF920F93C4
:102C6000CF93DF931F92CDB7DEB7CE0101965C0103
:102C700087E0C82EEE24E3940AE020E040E060E024
:102C800081E00E940B1920E041E061E081E00E94B8
:102C90000B1920E042E062E081E00E940B1920E085
:102CA00043E063E081E00E940B1920E046E064E02D
:102CB00083E00E940B190F90DF91CF910F91EF905D
:102CC000CF90BF90AF9008950F931F9384E190E051
:102CD00090936A078093690700E010E020E030E0FD
:102CE00040E050E06CE271E286E091E00E949416D0
:102CF0000E942B1680E01F910F910C9487198091F0
:102D00006B04813039F4E0912305F091240530976C
:102D100009F0099587E397E29093400580933F057A
:102D20008AE694E00C9448298F929F92AF92BF92CA
:102D3000CF92DF92EF92FF920F931F93CF93DF9387
:102D4000FC01892B19F0C281D38102C0C0E0D0E020
:102D50008091740581114BC2309709F44AC22097C3
:102D600009F447C288819981892B09F444C28A8178
:102D70009B81892B09F43FC28CA59DA5009709F47E
:102D80003AC2AEA5BFA5109709F435C2FD84689478
:102D9000EE24E2F8EF1408F430C269015A014B0145
:102DA0007F01AD0160E070E00E94362F9092240513
:102DB00080922305B0922205A092210581E08093A4
:102DC0006A048881998190936D0480936C041092B9
:102DD0006F0410926E048A819B819093710480939A
:102DE000700410927304109272048C8180937404A6
:102DF00010927504109278041092790410927D0458
:102E000010927C0410927F0410927E041092800431
:102E100086E1FE013596A5E8B4E001900D928A9511
:102E2000E1F78AE694E00E94002CBDA8B092FB0472
:102E3000AEA8A092FC04A8ADA093FF0489AD809336
:102E4000FE048AAD809300058BAD809301058FA9A8
:102E50008093FD046CA57DA57093C9046093C8049C
:102E60008A819B819C01B3E0220F331FBA95E1F761
:102E7000620F731F7093CB046093CA044881598119
:102E8000FA01EE0FFF1F6E0F7F1F7093CD0460934A
:102E9000CC046E0F7F1F7093CF046093CE046E0F2F
:102EA0007F1F7093D1046093D004640F751F7093DB
:102EB000DB046093DA042A813B81AA2359F1A6E05E
:102EC0009A2E949ED001959EB00D11246A0F7B1FFF
:102ED00070930D0560930C05DC01AA0FBB1FAA0FB0
:102EE000BB1F6A0F7B1F7093110560931005079637
:102EF000A3E096958795AA95E1F7680F791F7093DF
:102F00000F0560930E0589AD98E0899F600D711DD6
:102F1000112408C0A6E0A49FC001A59F900D112414
:102F2000680F791F7093DF046093DE048091DE04E4
:102F30009091DF04BC01685F7F4F7093E104609360
:102F4000E00440969093D3048093D2046C81ABE06C
:102F50006A9F800D911D11249093D5048093D40411
:102F6000DC01A60FB11DBD01B093D904A093D80414
:102F7000495F5F4FAA20B1F1295F3F4FA3E036952B
:102F80002795AA95E1F7260F371F30930305209365
:102F90000205B3E056954795BA95E1F7240F351F22
:102FA0003093050520930405420F531F50930705E6
:102FB000409306054E0F5F1F509309054093080587
:102FC000A091FD04AE9F9001AF9F300D1124420FE0
:102FD000531FBB20D9F050930B0540930A054E0FA9
:102FE0005F1F14C023E0569547952A95E1F74A0FD5
:102FF0005B1FBB2059F050930B0540930A05E40F6B
:10300000F51FF093F804E093F70404C05093F8041C
:103010004093F7042BA93CA930931805209317057A
:1030200010921A05109219052FE736E130931C050E
:1030300020931B051092A1041092A0042091CA04B1
:103040003091CB043093A5042093A4044091CC0488
:103050005091CD045093A9044093A8044091CE040C
:103060005091CF045093B3044093B2047093AC04D6
:103070006093AB0440910205509103055093B7044F
:103080004093B60440910605509107055093B9044A
:103090004093B80440911005509111055093BB0422
:1030A0004093BA044091F7045091F8045093BD0442
:1030B0004093BC049093AF048093AE048091C80405
:1030C0009091C9049093B5048093B40430939E0406
:1030D00020939D0488A999A99093E5048093E40422
:1030E0008B8D9C8D9093E7048093E6048D8D809367
:1030F000E8048E8D9F8D9093EA048093E90488A163
:1031000099A19093EC048093EB048AA19BA19093E6
:10311000EE048093ED048CA19DA19093F004809324
:10312000EF048EA19FA19093F2048093F1048AA5ED
:103130009BA59093F6048093F50488A599A5909398
:10314000F4048093F3048AA98093F904109277041D
:10315000109284041092830488E0FE01FC96AFEB89
:10316000B4E001900D928A95E1F78091BF049091AF
:10317000C00490931605809315058FE994E0909311
:103180006904809368048BE19BE290933C058093F3
:103190003B0582EF99E19093200580931F05F7018D
:1031A0008481809396018AE694E00E94EB1CE09172
:1031B0002105F0912205309709F00995C114D10439
:1031C00019F081E0F60109950115110521F08AE653
:1031D00094E0F8010995E091C504F091C604309798
:1031E00009F0099581E08093740580E007C083E0D1
:1031F00005C082E003C084E001C086E0DF91CF918A
:103200001F910F91FF90EF90DF90CF90BF90AF9004
:103210009F908F9008958F92AF92BF92CF92DF923E
:10322000EF92FF920F931F93CF93DF9390917405CA
:10323000913009F055C09FEF980F943008F052C0BC
:10324000283008F051C093E09E1508F44DC097E077
:103250009C1508F449C0A114B10409F445C0A0911B
:103260006C04B0916D04E62FF0E0EA17FB0708F05C
:1032700041C0C42FD0E0CA17DB07E0F5C0916E044F
:10328000D0916F04CA17DB07A8F5813089F184302B
:1032900039F4DF011197EA23FB23EF2B49F104C036
:1032A00090917404992311F1E501AC2CCE2CE02E01
:1032B000022FD42EF62E182FE0912305F09124052D
:1032C000309709F00995809172048883812C2D2D07
:1032D0004F2D612F8AE694E00E94A32C80E00BC062
:1032E00083E009C088E007C082E005C08AE003C02F
:1032F0006417D1F287E0DF91CF911F910F91FF907A
:10330000EF90DF90CF90BF90AF908F900895CF93C4
:1033100090917405992359F190917405943039F185
:10332000843038F5C82F8AE694E00E943F2E9091B1
:103330006E0420916F049093830420938404CC2323
:1033400079F0C0937A0490937B0491E09093760493
:10335000C13019F41092560503C093E09093910187
:1033600091E09093780492E09093740503C083E019
:1033700001C082E0CF91089520917405243021F49A
:103380000E948C2B81E0089520917405223041F534
:103390001092A1041092A0041092800490938204D1
:1033A0008093810460936B0450931A054093190530
:1033B0008AE694E00E940B28882311F080E00895AB
:1033C0000E94FB2B809174058430C1F78091960197
:1033D0008111F4CFE0914505F09146050995F2CFB2
:1033E00083E008950F931F93CF93DF932EE02093F4
:1033F0007107FC01EC5AFF4F21E0208320918A01E4
:10340000222309F453C03A960190F081E02D2091D7
:103410002A0530912B05DC011696CD91DC9117978A
:1034200050912E058901A3E0000F111FAA95E1F725
:1034300060E070E0DB01A00FB11FAE0FBF1F4C9129
:10344000413009F0452F2F5F3F4F2C173D0740F1CA
:1034500040932E0530932B0520932A052150304EA2
:1034600073E0220F331F7A95E1F7E20FF31F2581F6
:1034700030E03093290520932805468150E0509391
:10348000270540932605B9016F5F7F4F70932D0587
:1034900060932C052417350759F110928A012BC02F
:1034A000685F7F4F4111D4CF50E0C4CF20912805F1
:1034B0003091290560912605709127052617370759
:1034C00081F040912C0550912D054F5F5F4F509337
:1034D0002D0540932C052F5F3F4F309329052093F6
:1034E000280520912805309129052617370719F45A
:1034F00021E020938A0110922E0520912C05309115
:103500002D052150310930937507209374074091A0
:103510002505411114C060917107615041E050E0F0
:1035200002C0440F551F6A95E2F75093530540932C
:103530005205509355054093540510922505FC0102
:10354000ED57FF4F0190F081E02DE20FF31F408116
:1035500040935705FC01EB57FF4F0190F081E02DA0
:10356000E20FF31F4081409359054091520550915D
:103570005305220F331FFC01EC59FF4F0190F081DE
:10358000E02DE20FF31F5183408340E0BC018091A6
:10359000740790917507DF91CF911F910F910C9453
:1035A000E72244B121E030E0B90102C0660F771F85
:1035B0008A95E2F7CB01462B44B995B180958923D2
:1035C00085B908956F927F928F929F92AF92BF922A
:1035D000CF92DF92EF92FF920F931F93CF93DF93DF
:1035E00000D000D0CDB7DEB76B017C01612C712C0F
:1035F00001E010E0862D46015701062C04C0B69468
:10360000A794979487940A94D2F780FE33C098E0E9
:103610006916710488F46AB1F801062C02C0EE0F35
:10362000FF1F0A94E2F7CF01962F982B9AB99BB10E
:10363000809589238BB91EC08A3088F46DB188507B
:10364000F80102C0EE0FFF1F8A95E2F7CF01962F17
:10365000982B9DB99EB1809589238EB90BC08A5055
:1036600029833A834B835C830E94D11A5C814B810E
:103670003A812981FFEF6F1A7F0A80E16816710491
:1036800009F0B8CFA12CB12C01E010E08A2D69011E
:103690007A010A2C04C0F694E794D794C7940A944C
:1036A000D2F7C0FE4BC096E0A916B10488F467B10A
:1036B000F8010A2C02C0EE0FFF1F0A94E2F7CF01B7
:1036C000962F982B97B998B18095892388B936C0E1
:1036D000883018F46DB1845017C0803188F46AB115
:1036E0008850F80102C0EE0FFF1F8A95E2F7CF0164
:1036F000962F982B9AB99BB1809589238BB91EC0C0
:10370000823188F46DB18051F80102C0EE0FFF1FC5
:103710008A95E2F7CF01962F982B9DB99EB180959F
:1037200089238EB90BC0825129833A834B835C83F2
:103730000E94D11A5C814B813A812981FFEFAF1A37
:10374000BF0A88E1A816B10409F0A0CF0F900F902E
:103750000F900F90DF91CF911F910F91FF90EF90FD
:10376000DF90CF90BF90AF909F908F907F906F90A1
:103770000895E0EEF0E08081826080830895E0EEBD
:10378000F0E080818D7F808308952091EE0030E00D
:10379000FC01318320834091EF0050E0542F4427F7
:1037A000240F351F31832083089508950895A19A29
:1037B0000895A09A089584B381110C94D91B08959B
:1037C00084B381110C94D71B0895E4E7F0E0808165
:1037D000816080830895882321F08091E3008061D7
:1037E00003C08091E3008F7E8093E300089560938F
:1037F000F2007093F3002093F8003093F9004093A7
:10380000FA000895EF92FF920F931F93CF93DF93E7
:10381000F62E072F122FD32FC42FE090E0000E9426
:10382000BF1B6091F000F62AF092F0007091F10059
:10383000072B0093F1002091F400122B1093F40059
:103840003091F500D32BD093F5004091F600C42BB6
:10385000C093F600E1FE08C0DF91CF911F910F9158
:10386000FF90EF900C94B91BDF91CF911F910F91B6
:10387000FF90EF900C94BF1B1F93CF93DF9300D06A
:1038800000D01F92CDB7DEB71091E0002B833C83B0
:103890004D8369837A830E94BF1B8091F000698108
:1038A000609568236093F0008091F1007A817095B3
:1038B00078237093F1008091F4002B8120952823C8
:1038C0002093F4008091F5003C81309538233093AB
:1038D000F5008091F6004D81409548234093F60015
:1038E00011FF0AC00F900F900F900F900F90DF9173
:1038F000CF911F910C94B91B0F900F900F900F90C8
:103900000F90DF91CF911F910C94BF1B8093E20029
:103910000895E0EEF0E08081806180830895E4EE18
:10392000F0E09081987F908390818770982B9083AE
:103930000895E3EEF0E09081907F908390818F7006
:10394000982B908308958091E90080FDFCCF089525
:103950008093E5009093E60008958F738093E700CD
:103960000895E4EEF0E090819F7C908390818370D5
:103970008295807F982B908308951F93CF93DF9338
:103980001F92CDB7DEB71091E00089830E94BF1B64
:103990009091E1009C7F9093E1009091E1008981FA
:1039A0008370892B8093E10011FF06C00F90DF9197
:1039B000CF911F910C94B91B0F90DF91CF911F9164
:1039C0000C94BF1BE9EEF0E0808181608083089554
:1039D0008093E80008952F923F924F925F926F92EA
:1039E0007F928F929F92AF92BF92CF92DF92EF928F
:1039F000FF920F931F93CF93DF93EC01CA80DB807C
:103A0000A12CB12C04E010E0A0E0B0E020E030E018
:103A1000A90160E070E0CB01FE01E658FF4F4F01C5
:103A2000AC15BD0569F1E881E11115C0F4012080F4
:103A300031807501EE0CFF1CE20CF31CF701408095
:103A40005180628073806429752986299729F10144
:103A5000E00FF11F06C0F401E080F180F701EA0DEC
:103A6000FB1D4080518062807380242935294629BE
:103A700057291196085F1F4FF4E0AF0EB11CD0CF4D
:103A8000FE01E956FF4FE081E11103C00E94021CD4
:103A900003C000E00E94E21A0E94BF1B80E00E9467
:103AA000BD1C8091E0008B7F8093E0008091E0005E
:103AB000877F8093E0008091E3008F798093E3001B
:103AC0008091E3008F7E8093E30088A98093E800D3
:103AD000DF91CF911F910F91FF90EF90DF90CF90EA
:103AE000BF90AF909F908F907F906F905F904F901E
:103AF0003F902F900C94B91BCF92EF920F93CF93DE
:103B0000DF93FC01C085D18583E0CC0FDD1F8A9552
:103B1000E1F7DF01A25ABF4F8D919C911197C80F19
:103B2000D91F2C83C085D18593E0CC0FDD1F9A95DA
:103B3000E1F78D919C911197C80FD91F1B82838546
:103B4000C085D18523E0CC0FDD1F2A95E1F72D91AB
:103B50003C911197C20FD31F8F83C085D18533E06D
:103B6000CC0FDD1F3A95E1F78D919C911197C80F0D
:103B7000D91F8B81877C8B83C085D18553E0CC0F87
:103B8000DD1F5A95E1F78D919C911197C80FD91FB0
:103B90000770000F000F000F8B81082B0B83C0856F
:103BA000D18573E0CC0FDD1F7A95E1F78D919C9163
:103BB0001197C80FD91F6D83C085D18503E0CC0F45
:103BC000DD1F0A95E1F78D919C911197C80FD91FC0
:103BD0004E83C085D18583E0CC0FDD1F8A95E1F748
:103BE0008D919C911197C80FD91F8B818C7F8B83EE
:103BF0008085918523E0880F991F2A95E1F70D9024
:103C0000BC91A02DA80FB91F9C2D937013968C9179
:103C10001397C82EC92A1396CC928385DF01A85921
:103C2000BF4F0D90BC91A02D9BE0899FA00DB11DB1
:103C30001124E294EE0C30EEE322EC9283858F5F48
:103C40008387DF91CF910F91EF90CF900895AF923E
:103C5000BF92CF92EF920F93CF93DF935C01D62F59
:103C6000C42F802F9C2DCE2CE92E022F282FC5018A
:103C70000E947C1DD501A25ABF4FF5018085918518
:103C8000FC0183E0EE0FFF1F8A95E1F78D919C9177
:103C9000E80FF91F838180648383F5018085918516
:103CA00001969187808744815581CA0101964C2FE6
:103CB00050E04D1B5109480F591F55834483DF9134
:103CC000CF910F91EF90CF90BF90AF900895AF92AA
:103CD000BF92CF92EF920F93CF93DF935C01D62FD9
:103CE000C42F802F9C2DCE2CE92E022F282FC5010A
:103CF0000E947C1DD501A25ABF4FF5018085918598
:103D0000FC0183E0EE0FFF1F8A95E1F78D919C91F6
:103D1000E80FF91F838180688383F5018085918591
:103D200001969187808744815581CA0101964C2F65
:103D300050E04D1B5109480F591F55834483DF91B3
:103D4000CF910F91EF90CF90BF90AF9008959C01CD
:103D50006115710509F14F5F37FD06C0442321F05D
:103D60004150220F331FF8CF77FD04C04F5F660F1D
:103D7000771FFACF80E090E0442381F097FD0CC0DC
:103D8000880F991F41502617370718F0261B370B4D
:103D9000019676956795F0CF8FEF9FEF0895FC0120
:103DA000E25AFF4F0190F081E02D28E0629FE00D84
:103DB000F11D11242781FC01E859FF4F0190F0818A
:103DC000E02D8BE0289FE00DF11D112480818160A2
:103DD000808308953F924F925F926F927F928F926D
:103DE0009F92AF92BF92CF92DF92EF92FF920F938A
:103DF0001F93CF93DF936C01362E5C0182E6A80EF1
:103E0000B11CD5010D911C91C62FD0E0CC0FDD1F48
:103E1000F801EC0FFD1F608071807E01B2E0EB0EB7
:103E2000F11CF801EE0DFF1D4CE0B3018081918182
:103E30000E94A71EF601E05AFF4F80809180F40196
:103E4000EE0DFF1D4CE0BC01808191810E94A71EF8
:103E50002C017E01E4E0EE0EF11CF801EE0DFF1DD9
:103E60004CE0B301808191810E94A71EF401EE0D08
:103E7000FF1D4CE0BC01808191810E94A71E8C0136
:103E8000632DC6010E94B530EFE2F5E09183808397
:103E9000D5018D919C91C80FD91F88819981481AAD
:103EA000590A53824282081B190B15830483DF9140
:103EB000CF911F910F91FF90EF90DF90CF90BF9027
:103EC000AF909F908F907F906F905F904F903F90BA
:103ED0000895FF920F931F93CF93DF9300D01F920B
:103EE000CDB7DEB78C01F62E642F2B830E94EA1E1D
:103EF00060912F0570913005E0913105F091320508
:103F0000AE2F3F2F2B816E177F0714F4A62F372F6C
:103F100080913305909134054A2F532F84179507CC
:103F20000CF4AC01E60FF71FE80FF91FFA83E983E1
:103F300089819A8130E03195219531092817390717
:103F40008CF0F80180A1882369F0E25AFF4F0190BC
:103F5000F081E02D88E0F89EE00DF11D11248381B1
:103F60008460838389819A81841B950B9A838983DA
:103F700089819A81841B950B9A83898389819A818F
:103F8000841B950B9A83898389819A810F900F9066
:103F90000F90DF91CF911F910F91FF9008952F9275
:103FA0003F924F925F926F927F928F929F92AF92C9
:103FB000BF92CF92DF92EF92FF920F931F93CF9316
:103FC000DF931F92CDB7DEB76C0128E0629F5001EE
:103FD00011244C013EE5830E911CD401ED91FC911E
:103FE000EA0DFB1D0781402E512CBBE00B9F800189
:103FF00011247C0128E6E20EF11CD7018D919C91E1
:10400000DC01A00FB11F7C906581C6010E94EA1EF1
:1040100060912F05709130058091310590913205A6
:104020005091330540913405252F342F68177907B7
:1040300064F082179307B4F4562F472FB9019C01FF
:10404000852F942F212C312C10C02617370754F0C0
:10405000562F472FBC01C901252F342F212CF0E208
:104060003F2E03C0212CE0E13E2E680F791F621B1A
:10407000730B621B730B4CE0821B930B0E94A71EF9
:10408000280E391EF40160817181FB01EA0DFB1DD0
:104090002381207C203891F4C101875692408233DD
:1040A0009B4208F0C5C033E3231637E0330608F41B
:1040B000B6C042E3241A47E0340AB3C0AA24AA9443
:1040C0007FE2B72E80E090E37294769467E07622E8
:1040D00031E0370D432F60E071E0483020F47695F1
:1040E00067954F5FFACF4B013B01A1E06A1A710857
:1040F000353018F4660F771F04C0373010F076950E
:10410000679540E029830E94A71E29812034D1F4BD
:10411000D701ED91FC91E00FF11F2381348121152E
:10412000B8E13B0738F038512216330658F4E0ED79
:104130003E1A08C0A901585E4215530518F4305DB7
:1041400034832383D701ED91FC91E00FF11F20818F
:1041500020FF05C02E7F208380E090E006C021FF75
:1041600004C09C0180E090E002C020E030E0D70174
:10417000ED91FC911197E00FF11F43815481240FC1
:10418000351F2216330620F080818D7F808309C081
:10419000820D931D4817590750F0808182608083FB
:1041A000D701ED91FC91E00FF11F34822382F701DA
:1041B00080819181080F191FD80113968D919C91D0
:1041C00014978115B0E39B0720F09053F801948376
:1041D000838340E0B401C5010E94A71E40E0BC01FA
:1041E000D80113968D919C9114970E94A71E772455
:1041F000F601E659FF4F0190F081E02DE40DF51D29
:104200006816790608F4C3012081281789F0808395
:10421000F60186A997A9846097AB86AB09C0212CCB
:10422000312C8BE9A82E81E2B82E8BE991E24CCF9C
:104230000F90DF91CF911F910F91FF90EF90DF9042
:10424000CF90BF90AF909F908F907F906F905F9036
:104250004F903F902F900895EAE6F5E087E29EE1C7
:104260009183808387E69EE1938382838FEC9FE135
:104270009583848389E69FE1978386838FEC9EE113
:104280009187808708952F923F924F925F926F920D
:104290007F928F929F92AF92BF92CF92DF92EF92D6
:1042A000FF920F931F93CF93DF9300D000D0CDB731
:1042B000DEB77C01C0907407D0907507F601319687
:1042C000FC83EB83FC0182809380B0E0EC58FF4FCD
:1042D000FA83E983EB81FC81E815F90570F0D0924F
:1042E0007507C0927407C0907407D09075071A8242
:1042F0001982F4E7EF0EF11CB6C0B11157C0EB8183
:10430000FC8193E0F695E7959A95E1F79F01287F68
:104310003770E981FA8180819181F901E80FF91FF5
:1043200030804180528063807480A580B680178180
:104330008B818F73282E232D342D452D562D672DDF
:104340007A2D8B2D912F022D0E948733217030E022
:1043500040E050E060E070E080E090E0A0E00E948B
:10436000B533F1F021E00E946C33209530954095F3
:1043700050956095709580959095232120833421E8
:104380003183452142836522638276227482A7228B
:10439000A582B822B68219231783CB80DC80B1E0D6
:1043A000EB81FC813196FC83EB8394CFD09275072F
:1043B000C0927407B1E097CFB1115CC0E981FA8176
:1043C00083E0F695E7958A95E1F79F01287F37709E
:1043D000F70180819181F901E80FF91F3080418058
:1043E000528063807480A580B680178189818F7325
:1043F000282E232D342D452D562D672D7A2D8B2DCE
:10440000912F022D0E948733217030E040E050E070
:1044100060E070E080E090E0A0E00E94B533F1F051
:1044200021E00E946C332095309540955095609521
:104430007095809590953222308243224182542299
:1044400052826522638276227482A722A582B822D4
:10445000B68219231783C980DA80B1E0E981FA8135
:104460003196FA83E983E981FA81EC15FD0508F4B8
:10447000A3CF05C0D0927507C09274070AC0D0922E
:104480007507C0927407B11104C0909275078092AD
:1044900074070F900F900F900F90DF91CF911F91A5
:1044A0000F91FF90EF90DF90CF90BF90AF909F90D3
:1044B0008F907F906F905F904F903F902F900895D6
:1044C000CF93DF93FC0180915B0520914F053091E4
:1044D0005005DF01A25ABF4F811122C0C90173E00C
:1044E000880F991F7A95E1F74D915C91840F951F84
:1044F000DC018C91803441F03093500520934F05BE
:1045000081E080935B0559C0B9016F5F7F4FCD019A
:104510000896408551852417350770F79B01E8CF31
:10452000CD91DC914091740750917507D90163E0FA
:10453000AA0FBB1F6A95E1F7AC0FBD1F16966C91D1
:1045400070E04617570739F04F5F5F4F509375077C
:104550004093740739C02F5F3F4F3093500520932D
:104560004F05C90143E0880F991F4A95E1F78C0F69
:104570009D1FDC018C91408551858034A1F03093E2
:10458000500520934F0524173507B9F48281938194
:10459000909375078093740710925B0510925005F5
:1045A00010924F0511C0B9016F5F7F4FCD01089682
:1045B0002417350720F79B01DCCF15968C9190E0EE
:1045C0009093750780937407DF91CF910895CF92F0
:1045D000DF92EF92FF920F931F93CF93DF938C01A3
:1045E000EB01D42E8881FB01E658FF4F7801EE0CD9
:1045F000FF1C811117C080819181F7013196EE0F68
:10460000FF1FEE0FFF1FE80FF91F2081318142814C
:104610005381349760817181828193810E94F71B5D
:1046200088E014C00190F081E02DC801880F991F27
:10463000880F991FE80FF91F208131814281538132
:1046400060E070E0CB010E94F71B8AE00E94861CAC
:1046500081E0FE01D8120EC0EF57FF4F0190F081AC
:10466000E02DE00FF11F80810E94B11CFE01E15896
:10467000FF4F0DC0EB57FF4F0190F081E02DE00F91
:10468000F11F80810E94B11CFE01ED57FF4F019088
:10469000F081E02DE00FF11F80810E94BD1C88A9F0
:1046A0000E94E81CFE01EC59FF4F80819181FC01C2
:1046B000EE0DFF1D808191810E94A81CFE01E4582F
:1046C000FF4F0190F081E02DE00FF11FE0817E01AE
:1046D000A9E8EA0EF11CD7018D919C91DC01A00F95
:1046E000B11F8C91815020F0EE23E1F3E150FACF1D
:1046F000F0E0E557FE4F80810E94AD1C6E01BEE7E1
:10470000CB0ED11CF6018081813071F480E00E94D3
:10471000EB1B8D85C957DF4FE881F981E80FF11D4B
:1047200080810E94991C0DC080E00E94991CD601D6
:104730008C918250823010F481E001C080E00E94B0
:10474000EB1B0E94891CF70180819181FC01E00F25
:10475000F11F8081DF91CF911F910F91FF90EF901A
:10476000DF90CF900C948F1C1F920F920FB60F9278
:1047700011242F933F934F935F936F937F938F9366
:104780009F93AF93BF93EF93FF930E94DB1B81E056
:1047900080934A05E0917607F0917707DF01A956EB
:1047A000BF4F8C91813071F52081E658FF4F809189
:1047B000740790917507211113C00190F081E02DCD
:1047C00033E0880F991F3A95E1F7E80FF91F24812C
:1047D000358146815781608171818281938110C0CA
:1047E000880F991F880F991F0190F081E02DE80F25
:1047F000F91F208131814281538160E070E0CB015B
:104800000E943C1C80915D058130E9F48091620535
:1048100090916305892B51F10E94BF1B8091740513
:10482000880F880F880F87608093740580917505C5
:10483000880F880F880F876080937505E091620567
:10484000F091630512C010927207E0914305F09158
:104850004405309709F0099581E080934905E0917E
:104860004105F0914205309709F00995FF91EF91CC
:10487000BF91AF919F918F917F916F915F914F9178
:104880003F912F910F900FBE0F901F9018951F9280
:104890000F920FB60F9211242F933F934F935F9374
:1048A0006F937F938F939F93AF93BF93EF93FF93F8
:1048B0000E94E01B81E080934A05109272071092DB
:1048C000510580917505843021F482E0809375054F
:1048D00007C080917405843019F482E080937405D8
:1048E00081E080935C05FF91EF91BF91AF919F9123
:1048F0008F917F916F915F914F913F912F910F9089
:104900000FBE0F901F901895EF92FF920F931F9379
:10491000CF93DF93FB01E25AFF4F23E0880F991FEB
:104920002A95E1F70190F081E02DE80FF91FA581AC
:10493000B0E0E680F12CEB01CC58DF4FEA16FB0625
:10494000A8F1FD0186E0F695E7958A95E1F793E0F9
:10495000EE0FFF1F9A95E1F788819981E80FF91F03
:104960000A2F0F7321E030E040E050E060E070E09B
:1049700080E090E00E946C331081212B2083218104
:10498000322B31832281422B42832381522B53834A
:104990002481622B64832581722B75832681822B6F
:1049A00086838781982B97831196C8CFDF91CF910B
:1049B0001F910F91FF90EF9008952F923F924F9289
:1049C0005F926F927F928F929F92AF92BF92CF929F
:1049D000DF92EF92FF920F931F93CF93DF933C01EF
:1049E0006B018A01DC018C91813029F020E7E22EF5
:1049F00027E0F22E04C093E7E92E97E0F92EF301A9
:104A0000C281D381C114D104E1F4E258FF4F808107
:104A10008130B9F473968081882341F0E091640578
:104A2000F0916505309711F0C3010995D3011D96EA
:104A30008C9190E0019663E070E00E945033F301A6
:104A40008587D3011E968C91813009F0D3C0CD2883
:104A500009F0F9C0F301E157FF4F8081813009F07F
:104A6000CBC021971E0186E0369427948A95E1F702
:104A700091012F5F3F4F80914E05E301CC58DF4FEE
:104A80006E01813071F57997A081B181E881F9815A
:104A9000E101229681E090E00C9111961C91119712
:104AA00012967C91129713966C91139714965C91C1
:104AB000149715964C91159716963C911697179644
:104AC0002C91179718960083118372836383548304
:104AD000458336832783389601968C179D07E1F628
:104AE0007FC0F7011082E881F98180E090E01082B8
:104AF00011821282138214821582168217823896CE
:104B000001968217930798F3A12CB12C00E010E0D6
:104B10002301BEE54B0E511C4301C3EB8C0E911CCF
:104B2000F301808591850817190738F5D201ED91B9
:104B3000FC91EA0DFB1D80818230C9F08034B9F010
:104B4000B301C8010E948424E401E881F98130970F
:104B500021F0A801B701C3010995E0913905F09151
:104B60003A05309721F0A301B701C80109950F5FFD
:104B70001F4FD8E0AD0EB11CD3CFE601A881B9819B
:104B8000EA58FF4F0190F081E02DE101229681E08B
:104B900090E00C9111961C91119712967C911297AE
:104BA00013966C91139714965C91149715964C91EB
:104BB000159716963C91169717962C91179718965D
:104BC00000831183728363835483458336832783F1
:104BD000389601968C179D07E1F681E080934E058B
:104BE000C3010E94432141E0B30180917407909179
:104BF000750715C0CD2839F5109275071092740706
:104C0000C3010E9460228091740790917507F3019F
:104C10002281338182179307C0F541E0B301DF9110
:104C2000CF911F910F91FF90EF90DF90CF90BF90A9
:104C3000AF909F908F907F906F905F904F903F903C
:104C40002F900C94E722D301D6968D919C91D79703
:104C50009360D7969C938E93D69701151105A9F072
:104C6000C301F801DF91CF911F910F91FF90EF9059
:104C7000DF90CF90BF90AF909F908F907F906F907C
:104C80005F904F903F902F900994DF91CF911F91AB
:104C90000F91FF90EF90DF90CF90BF90AF909F90DB
:104CA0008F907F906F905F904F903F902F900895DE
:104CB0008F929F92AF92BF92CF92DF92EF92FF922C
:104CC000CF93DF93E901FB01E458FF4F0190F0819E
:104CD000E02DE40FF51FE081DB01A757BF4F2D91B9
:104CE0003C91D901A40FB51F2C91215020F0EE2347
:104CF000E1F3E150FACF24E0E29FF0011124EA54FD
:104D0000F04F2591359145915491FE01EE27F073B6
:104D1000EF2FFF27E695E695EA55F04FC590D59021
:104D2000E590F490FE01EE27FF70B6E0F695E7956A
:104D3000BA95E1F7EA59F04F85909590A590B49017
:104D4000C80CD91CEA1CFB1CFE01E07FFF27A3E076
:104D5000F695E795AA95E1F7EA5BF04FA591B49136
:104D6000CA0EDB1EE11CF11CFE01EF70FF27EE0FE7
:104D7000FF1FEA5DF04FA591B491CA0EDB1EE11C46
:104D8000F11CFB016081613021F4DC01B250EAE0EA
:104D900005C0A0E0B2E0A81BB90BEBE00E946433B1
:104DA000AB01BC0104C07595679557954795EA9589
:104DB000D2F74C0D5D1D6E1D7F1DAEE020E030E290
:104DC00080E090E0822B932BFC01EE27F073EF2F15
:104DD000FF27E695E695EA55F04FC590D590E5900A
:104DE000F490FC01EE27FF70C6E0F695E795CA95B2
:104DF000E1F7EA59F04F85909590A590B490C80CD2
:104E0000D91CEA1CFB1CFC01E07FFF27D3E0F695D0
:104E1000E795DA95E1F7EA5BF04FC591D491CC0EB6
:104E2000DD1EE11CF11CFC01EF70FF27EE0FFF1FE0
:104E3000EA5DF04FC591D491CC0EDD1EE11CF11C52
:104E40004C155D056E057F0514F482279327369572
:104E50002795A15009F0B6CFDF91CF91FF90EF9049
:104E6000DF90CF90BF90AF909F908F900895CF9399
:104E7000DF939C01FA018081813019F4E059FF4FE2
:104E800003C0FA01EE58FF4F0190F081E02DC901F7
:104E9000880F991F280F391FD901AA0FBB1FAE0F0A
:104EA000BF1F2F5F3F4F220F331FEF01C20FD31FD2
:104EB0008881998111969C938E932E5F3F4FE20FCC
:104EC000F31F808191819983888371836083FA01C4
:104ED000E258FF4F80818D7F8130D9F42D913C9134
:104EE000888199818217930740F02617370768F465
:104EF0009C016817790748F407C06217730728F404
:104F00009C018617970708F49B012115310509F0CC
:104F1000B901CB01DF91CF9108950F931F93CF93E8
:104F2000DF93EC0190937707809376078C01095605
:104F30001F4FF8018081882369F188817D97209136
:104F4000740730917507811113C00190F081E02D35
:104F500053E0220F331F5A95E1F7E20FF31F24812C
:104F6000358146815781608171818281938110C032
:104F7000220F331F220F331F0190F081E02DE20F2B
:104F8000F31F208131814281538160E070E0CB01C9
:104F90000E94021C0E94E21C80919601811136C081
:104FA0000E94A31CF8018081882381F18881C65862
:104FB000DF4F2091740730917507811112C0E8818D
:104FC000F98193E0220F331F9A95E1F7E20FF31F67
:104FD00024813581468157816081718182819381ED
:104FE0000FC0220F331F220F331FE881F981E20F18
:104FF000F31F208131814281538160E070E0CB0159
:10500000DF91CF911F910F910C943C1CDF91CF91B8
:105010001F910F910895CF93DF93EC010E94D51B50
:105020000E94B91BFE01EF54FF4F80819181909344
:1050300046058093450580915105811168C00E9405
:10504000DB1B0E94E01B80919601813011F40E94CD
:10505000E51B109272072881809174079091750763
:10506000FE01EF57FF4FDE01A158BF4F698D7A8DCA
:105070000190F081E02DE80FF91F211110C020816F
:1050800020935A052D913C91F901E80FF91F808179
:105090008093580540917605509177050FC0208187
:1050A000209359052D913C91F901E80FF91F80815A
:1050B0008093570540911F0550912005CE010E9415
:1050C000DD2420917407309175078A819B81281710
:1050D000390790F481E0809351058881811104C0E3
:1050E00084E08093750503C084E080937405CE014D
:1050F0000E948D2780E00CC0109251050E94BF1BBA
:10510000C155DF4FE881F981309709F0099581E0B9
:10511000DF91CF9108950F931F93CF93DF93EC010D
:10512000FA0189014091740750917507DC01A75776
:10513000BF4F0D90BC91A02DA40FB51F2C91909145
:10514000710780914D05992309F46EC0FB0102C0DF
:10515000F695E7952A95E2F720915405309155058B
:10516000813071F4BE01CF010E94582690935505FD
:105170008093540582E080934D05109271072EC0F4
:1051800060919201709193016E177F0798F0609182
:10519000940170919501E617F70760F0BE01CF0109
:1051A0000E945826909355058093540581E0809382
:1051B0004D0514C091509093710740915205509144
:1051C0005305CA0196958795909353058093520590
:1051D000822B932B9093550580935405FE01EC5937
:1051E000FF4F808191812091540530915505A09108
:1051F0007407B0917507AA0FBB1FA80FB91F2D9395
:105200003C93E0917407F0917507EE0FFF1FE80FD4
:10521000F91F808191810E94A81CCE01DF91CF915E
:105220001F910F910C948D27823069F4898988230E
:1052300011F1309741F1AB016889CE01DF91CF9137
:105240001F910F910994BA01CE010E94223323E0ED
:10525000880F991F2A95E1F7FE01E25AFF4F01904E
:10526000F081E02DE80FF91F80E880838EA99FA9C7
:1052700090629FAB8EAB0115110519F0CE01F801BC
:10528000099510924D05DF91CF911F910F910895CF
:10529000EF92FF920F931F93CF93DF9300D000D034
:1052A000CDB7DEB78C011A821982CE0103960E9417
:1052B000C51BD80159962D913C915A976B817C81E1
:1052C000F801E757FF4F8091740790917507232BE2
:1052D00009F472C020813181F901E80FF91FCB0177
:1052E000008002C0969587950A94E2F79A83898395
:1052F00080919201909193018115944038F48091AE
:105300009401909195018115944060F088EC90E0B3
:10531000909395018093940180E293E090939301A0
:1053200080939201D8019C9180914D05F801E5553B
:10533000FF4F91111EC0811117C089819A81209160
:105340009201309193018217930770F020915405D8
:1053500030915505809152059091530582279327EE
:10536000909355058093540520913D0530913E055D
:105370001DC0811117C089819A81209194013091BB
:1053800095012817390770F0209154053091550583
:10539000809152059091530582279327909355054C
:1053A0008093540520913B0530913C05408151810B
:1053B000C8010E948B2818C10190F081E02DE80FF0
:1053C000F91F2081F801E458FF4F40815181FA0113
:1053D000E80FF91F8081821740F4281B02C07695E0
:1053E00067952A95E2F77C836B83F801E95AFF4FB2
:1053F0000190F081E02D6B817C81309759F0C801DC
:105400000995609335057093360580933705909321
:1054100038050BC0CB01A0E0B0E080933505909338
:105420003605A0933705B09338057801BDE5EB0E3E
:10543000F11CF7018081811190C040913505509198
:1054400036055C834B83E0916805F09169053097E0
:1054500051F0D801AF56BF4F8C91882321F0609155
:105460007407C80109956B817C81E0913F05F0913B
:105470004005A801809174079091750709959C8358
:105480008B838091660590916705892B49F1F8011E
:10549000EE56FF4F8081882319F160917407709157
:1054A0007507C8010E9422339093480580934705F1
:1054B00033E0880F991F3A95E1F7F801E25AFF4F60
:1054C000A081B181A80FB91F4B815C81E091660575
:1054D000F09167052C9160917407C801099502C08D
:1054E00080E090E0F801E75AFF4F0190F081E02D55
:1054F000309729F06B817C81AC01C80109958B81C3
:105500009C81E0917407F0917507EE0FFF1FD801A1
:10551000A05ABF4F2D913C91E20FF31F91838083DE
:105520002091740730917507D80112968D919C9146
:1055300013972817390788F41E968C91813051F4FF
:10554000F801E157FF4F8081813021F4C8010E94AA
:10555000432103C0C8010E9460228091740790918A
:105560007507F801228133818217930791F5109214
:10557000480510924705109251058181813021F430
:10558000C8010E94052D15C08081811104C082E0F0
:105590008093750505C0813019F482E0809374050D
:1055A000F80186A997A99E7F97AB86AB16861092C5
:1055B0004E05D80159968D919C915A97892BA1F44B
:1055C0001E968C91813081F01092750710927407AD
:1055D0000BC0F7012081211104C041E0B8010E94F5
:1055E000E722C8010E948D27D8018C91811103C048
:1055F0008091750504C0813099F4809174058230E2
:1056000079F40E94BF1B0E94D61B01551F4FD80181
:10561000ED91FC91309721F00995F80111821082EB
:105620000F900F900F900F90DF91CF911F910F91DE
:10563000FF90EF900895CF93DF93EC01898D9A8DC1
:1056400001979A8F898F10925105892B21F4FE01C1
:10565000EC5AFF4F1082CE010E94DA2C298D3A8D30
:10566000892BB1F4232BD9F08EA99FA993609FAB0E
:105670008EABE0911F05F0912005309711F0CE011F
:10568000099581E080935105CE010E948D2707C0C6
:10569000232B29F082E0809374050E94FC2C2E8538
:1056A000898D9A8D2130E1F40097D1F410922D0567
:1056B00010922C0510922B0510922A05109251057C
:1056C0008A819B8190937507809374078EA99FA907
:1056D00091609FAB8EABCE01DF91CF910C940B28E4
:1056E000892B41F410922D0510922C0510922B0558
:1056F00010922A05DF91CF9108958091490581305C
:1057000049F410924905E0914505F0914605099547
:1057100081E0089580E0089510924A058091E900A3
:1057200080FF68C08091E80090E0A0E0B0E022E057
:10573000880F991FAA1FBB1F2A95D1F7AC01BD0185
:1057400076956795579547952091E3002F70820FC6
:10575000911DA11DB11D840F951FA61FB71F20917C
:10576000E400277004C0880F991FAA1FBB1F2A9549
:10577000D2F70E96A11DB11D2091E100237004C047
:10578000880F991FAA1FBB1F2A95D2F7B695A79518
:105790009795879540E050E0BA0120914A05222371
:1057A00021F04EEF5FEF6FEF7FEF4F5F5F4F6F4F77
:1057B0007F4F481759076A077B0778F34E3F5F4FC3
:1057C0006F4F7F4FB8F48091E90080FF13C01092B3
:1057D000E000000082E18093E000000081E080931F
:1057E000E90080914B0590914C05019690934C05F2
:1057F00080934B05089510924C0510924B05089527
:10580000FC0140A923E030E0008002C036952795D6
:105810000A94E2F7642F70E08FEF90E0821B930B05
:105820008617970710F0240F20AB08950F93CF939E
:10583000DF93FC01C085D18583E0CC0FDD1F8A9505
:10584000E1F7DF01A25ABF4F8D919C911197C80FCC
:10585000D91F2C83C085D18593E0CC0FDD1F9A958D
:10586000E1F78D919C911197C80FD91F1B82C085BC
:10587000D18523E0CC0FDD1F2A95E1F78D919C9116
:105880001197C80FD91F8B81877C8B83C085D185E9
:1058900033E0CC0FDD1F3A95E1F78D919C91119784
:1058A000C80FD91F4770440F440F440F8B81482BFA
:1058B0004B83C085D18543E0CC0FDD1F4A95E1F7CE
:1058C0008D919C911197C80FD91F6D83C085D1858B
:1058D00053E0CC0FDD1F5A95E1F78D919C91119704
:1058E000C80FD91F6E83C085D18563E0CC0FDD1F43
:1058F0006A95E1F78D919C911197C80FD91F8B8103
:105900008C7F8B838085918573E0880F991F7A95B2
:10591000E1F70D90BC91A02DA80FB91F037013964D
:105920008C911397082B13960C9380859185019683
:105930009187808784819581019695838483DF9107
:10594000CF910F9108958F92AF92CF92EF920F93D4
:10595000CF93DF93CDB7DEB7DC01962F642F422FB4
:10596000802F2E2DEC2CCA2CA82C913011F09430C5
:1059700031F40E2D482FCD010E94162C13C0923009
:1059800029F4E0916A05F0916B0506C0933051F45B
:10599000E0916C05F0916D05309721F0022F282FD2
:1059A000CD010995DF91CF910F91EF90CF90AF90FE
:1059B0008F900895FC0124A135A12115310599F09E
:1059C00080916005909161050196909361058093A7
:1059D00060058217930758F081E090E090935F058F
:1059E00080935E0504C010925F0510925E05809161
:1059F0005E0590915F05089510925F0510925E0517
:105A0000109261051092600508958F929F92AF9257
:105A1000BF92CF92DF92EF92FF920F931F93CF939B
:105A2000DF93EC018E85811126C02F89388D4A893C
:105A30005B893B8B2A8B8C899D89820F931F841BEA
:105A4000950B9D8B8C8B8C899D89883C910540F0B2
:105A5000885C91099D8B8C8B8E898F5F8E8BF3CFA9
:105A60008F85882349F09E89891710F41F8604C00A
:105A7000891B8F8701C01E8AFE01E355FF4F0190ED
:105A8000F081E02D309719F0CE01C19609951E8660
:105A9000C884D984E12CF12C00E010E0C801A0E01A
:105AA000B0E08C159D05AE05BF0550F4602FCE010A
:105AB0000E94EC309E85892B8E870F5F1F4FEECFA3
:105AC000CE010E94DA2C8E85813019F580915E0519
:105AD00090915F050197A1F40E94FC2C8EA99FA9CB
