:100000000C945A000C9477000C9477000C947700B1
:100010000C9477000C9477000C9477000C94770084
:100020000C9477000C9477000C9477000C94770074
:100030000C9477000C9477000C9477000C94770064
:100040000C9477000C9477000C94DF040C947700E8
:100050000C9408050C9477000C9477000C947700AE
:100060000C9477000C9477000C9477000C94770034
:100070000C942C050C9477000C945B050C94770081
:100080000C9477000C9477000C9477000C94770014
:100090000C9477000C9477000C9477000C94770004
:1000A0000C9477000C9477000C9477000C947700F4
:1000B0000C94770011241FBECFEFD8E0DEBFCDBF78
:1000C00012E0A0E0B1E0E0EFF5E102C005900D9292
:1000D000A834B107D9F725E0A8E4B2E001C01D9229
:1000E000A031B207E1F70E9486050C94F60A0C9441
:1000F0000000000000000000000000000197C9F7A8
:100100000895459A81E090E00C9479003C9A81E052
:1001100090E00C9479003C9881E090E00C94790098
:10012000459881E090E00C94790044984598459872
:1001300044983D9A3C980E9481000E9486000C944D
:100140008B000E9481000E948B000E9481000E940F
:1001500086000E9490000C948B000E9490000E94E8
:1001600086000E9481000E9486000E9481000C94FB
:100170008B000F931F93CF93DF938C01C8E0D0E0E7
:100180000E94900007FF03C00E948B0002C00E94E3
:1001900086000E948100000F111F219789F70E949D
:1001A00090000E948B000E948100C6B10E949000C6
:1001B0008C2F82958F7091E08927817090E0DF917C
:1001C000CF911F910F910895EF92FF920F931F937C
:1001D000CF93DF937C010E9490000E948B0008E087
:1001E00010E0C0E0D0E0CC0FDD1F0E948100349908
:1001F00021960E94900001501109A9F7EF2811F0F3
:100200000E9486000E9481000E949000CE01DF9132
:10021000CF911F910F91FF90EF900895CF93DF93AF
:10022000AC01FC0191919923E9F08EE3890F8230B2
:10023000C8F72081822F8F7360E4969F900111246C
:10024000282B2083EF01DE01A41BB50B89918823A5
:1002500021F0DE0112978C93F6CFA40FB51F1197F2
:100260001C92E0CFDF91CF9108959093C5008093C9
:10027000C40088ED8093C10086E08093C200089599
:100280009093CD008093CC0088ED8093C90086E0E8
:100290008093CA000895282FFC018E2F821B861799
:1002A00010F41192FACF0895EF92FF920F931F93DB
:1002B000CF93DF9300D000D0CDB7DEB79C011C8276
:1002C0001B8280E197E29A83898340E005E010E099
:1002D0008AE0E82EF12CF90101900020E9F731972E
:1002E000E21BF30B842F90E0B8016E1B7F0B861787
:1002F000970748F489819A81B7010E94BD077A83E4
:1003000069834F5FE8CF40E00AE010E0842F90E07F
:10031000F90101900020E9F73197E21BF30B8E17EA
:100320009F07F8F4E981FA816B817C81D901A80FDC
:10033000B91F8C9190E0C0978E9FD0018F9FB00D18
:100340009E9FB00D1124CD01860F971F9C838B8338
:1003500089819A81B8010E94BD077A8369834F5FC2
:10036000D5CF8B819C810F900F900F900F90DF91D4
:10037000CF911F910F91FF90EF900895CF93DF934E
:10038000EC0160E882ED92E00E944B011F922FEF9A
:100390002F931F922F931F922F93DF93CF9380E081
:1003A00091E09F938F93C2EDD2E0DF93CF930E94B1
:1003B0001E08FE0101900020E9F73197E25DF2404E
:1003C000E0934D0288818093C6008DB79EB70C964E
:1003D0000FB6F8949EBF0FBE8DBFDF91CF910895E9
:1003E000CF93DF93EC0160E882E592E00E944B013D
:1003F000FE0101900020E9F73197EC1BFD0BE09323
:100400004A02BE0182E592E00E94E907FE010190E6
:100410000020E9F73197EC1BFD0BEE5AFD4F8DE004
:10042000808380914A028F5F80934A0280915202BA
:100430008093CE00DF91CF9108950F931F93CF93B8
:10044000DF93CDB7DEB7A0970FB6F894DEBF0FBE2F
:10045000CDBF8091DA031F928F9389E091E09F9343
:100460008F938E010F5F1F4F1F930F930E941E08E3
:10047000C8010E94BE010F900F900F900F900F9037
:100480000F9080914D028111FCCF8091C00085FFBB
:10049000F8CF8091D9031F928F938AE191E09F93C7
:1004A0008F931F930F930E941E08C8010E94BE01E4
:1004B0000F900F900F900F900F900F9080914D0222
:1004C0008111FCCF8091C00085FFF8CF8091D803C7
:1004D0001F928F938DE291E09F938F931F930F93C1
:1004E0000E941E08C8010E94BE010F900F900F903D
:1004F0000F900F900F9080914D028111FCCF809151
:10050000C00085FFF8CFA0960FB6F894DEBF0FBEEF
:10051000CDBFDF91CF911F910F910895CF93DF93BE
:10052000DB01FC0140E050E0EC0109900020E9F71C
:100530002197C81BD90B4C175D0700F5208127FDBB
:1005400003C02D93319617C030E0322F22276181EE
:10055000260F311DB9016059704D6033710510F4DB
:10056000205E07C0B9016058714D6031710518F403
:10057000205A2D9332964F5F5F4FD6CFDF91CF91A8
:100580000895EF92FF920F931F93CF93DF93CDB710
:10059000DEB768970FB6F894DEBF0FBECDBF8C01F3
:1005A000FC0101900020E9F7AF01481B590B4F5F98
:1005B0005F4FBC01CE0101960E94F00743E050E07E
:1005C000BE016F5F7F4F83E791E00E94D107892BC7
:1005D00009F0AEC049E050E0BE016B5F7F4F87E796
:1005E00091E00E94D107892B29F48091DD04846079
:1005F0008093DD0449E050E0BE016B5F7F4F81E8EE
:1006000091E00E94D107892B29F48091DC0480625B
:100610008093DC0448E050E0BE016B5F7F4F8BE8C5
:1006200091E00E94D107892B29F48091DD0482603A
:100630008093DD0447E050E0BE016B5F7F4F85E9AA
:1006400091E00E94D107892B71F562E270E0C80148
:100650000E94DE07BC016F5F7F4F43E050E0CE0198
:1006600001960E94F007CE0101960E9454018093EA
:10067000DA036AE370E0C8010E94DE07BC016F5F25
:100680007F4F43E050E0CE0101960E94F007CE017B
:1006900001960E9454018093D90340E0682F809115
:1006A000DA030E94550747E050E0B8016C5F7F4FC6
:1006B0008DE991E00E94D107892BD1F562E270E0CB
:1006C000C8010E94DE077C01BC016F5F7F4F43E0E1
:1006D00050E0CE0101960E94F007CE0101960E94E3
:1006E00054018093DB03B7016C5F7F4F43E050E020
:1006F000CE0101960E94F007CE0101960E9454019E
:100700008093DC03B701695F7F4F43E050E0CE0187
:1007100001960E94F007CE0101960E945401809339
:10072000DD03482F6091DC038091DB030E94830787
:10073000C8010E940E0165EA71E0C8010E94040828
:10074000892B81F000006AEA71E0C8010E94040868
:10075000892B11F0000006C000008091DC0482604B
:100760008093DC0468960FB6F894DEBF0FBECDBF51
:10077000DF91CF911F910F91FF90EF900895EF922D
:10078000FF920F931F93CF93DF9300D000D0CDB78C
:10079000DEB78C0160EB71E00E9404089093D503F2
:1007A0008093D403892B79F164E0CE0101960E94F5
:1007B0004B01E090D403F090D5038AE0E80EF11CE1
:1007C000F092DF03E092DE0360E270E0C7010E9476
:1007D000DE079093E1038093E0038E199F098093D5
:1007E000D6034091D60350E04F5F5F4FB701CE0173
:1007F00001960E94F007CE0101960E9454018F5F7E
:100800008093D20300006BEB71E0C8010E940408E2
:100810009093D5038093D403892BA1F064E684EEF2
:1008200093E00E944B016091D4037091D503695FFE
:100830007F4F84EE93E00E94E9078091DC048160A1
:100840008093DC0463EC71E0C8010E94040890937B
:10085000D5038093D4030097A1F0BC016C5F7F4F58
:10086000CE0101960E94E907CE0101960E94540133
:100870008093510280915102811103C081E08093E5
:10088000510268EC71E0C8010E9404089093D503FE
:100890008093D4030097A1F0BC016A5F7F4FCE0123
:1008A00001960E94E907CE0101960E9454018093AF
:1008B000510280915102811103C081E08093510265
:1008C0008091DC0486FF36C08091DC0483FF05C084
:1008D0008091D7038F5F8093D7036FEC71E0C801DD
:1008E0000E9404089093D5038093D403892B09F4C4
:1008F0005BC08091DC0483FD08C08091DC048860CB
:100900008093DC041092D7034FC08091DC04877F72
:100910008093DC048091DC0480618093DC0480910E
:10092000DC048F7B8093DC048091D703815080931B
:10093000D7033AC08091DC0487FF22C065ED71E0E7
:10094000C8010E9404087C019093D5038093D403CE
:100950000097B1F06CE270E00E94DE0797012C5F17
:100960003F4FAC01421B530BB7016B5F7F4F88ECCD
:1009700094E00E94F0078091DD0481608093DD04A3
:100980006FEC71E0C8010E9404089093D503809336
:10099000D403892B21F08091DC04806803C080910E
:1009A000DC048F778093DC040F900F900F900F90F2
:1009B000DF91CF911F910F91FF90EF9008951F92BB
:1009C0000F920FB60F9211248F93EF93FF938091A4
:1009D000C6008D3081F0E0914E02F0E0EE5AFC4FFF
:1009E000808380914E0287FD0BC080914E028F5F05
:1009F00080934E0205C081E080934F0210924E0218
:100A0000FF91EF918F910F900FBE0F901F9018954F
:100A10001F920F920FB60F9211248F93EF93FF93B3
:100A2000E0914902EF5FE093490280914D02E813A3
:100A300005C01092490210924D0206C0F0E0EE523D
:100A4000FD4F80818093C600FF91EF918F910F90B1
:100A50000FBE0F901F9018951F920F920FB60F9216
:100A600011248F939F93EF93FF938091CE008D304D
:100A7000A1F090914C02911110C0E0914B02F0E076
:100A8000E85BFB4F808380914B0287FD0BC0809118
:100A90004B028F5F80934B0205C081E080934C0234
:100AA00010924B02FF91EF919F918F910F900FBE8B
:100AB0000F901F9018951F920F920FB60F9211244E
:100AC0008F93EF93FF93E0914802EF5FE09348022A
:100AD00080914A02E8130AC01092480210924A021A
:100AE0008091DC0484608093DC0408C0F0E0EE5A5E
:100AF000FD4F80818093CE008093D303FF91EF91CF
:100B00008F910F900FBE0F901F90189583E390E088
:100B10000E94350183E390E00E9440010E9495000D
:100B200080E284B978948091DC0480648093DC0452
:100B300068ED71E08EED94E00E94E9078EED94E09F
:100B40000E94F001C1EED1E008EC14E085EFE82E40
:100B500081E0F82E91E0C92E92E0D92E2DE1A22E4F
:100B600022E0B22E32E2932E809150028130B9F40D
:100B700048ED53E069ED73E08AED93E00E941D07B4
:100B80000E941D022D9A2FE788E391E021508040BA
:100B90009040E1F700C000002D9810925002809123
:100BA0004F02813031F482E593E00E94C10210923D
:100BB0004F028091DC0481FF09C082E593E00E942E
:100BC000F0018091DC048D7F8093DC048091DC0453
:100BD00082FF0AC060E882E593E00E944B018091A9
:100BE000DC048B7F8093DC048091DC0484FF10C0E4
:100BF0008091DC048F7E8093DC042D9A2FEF84E3B8
:100C00009CE0215080409040E1F700C000002D980A
:100C10008091DC0485FF34C08091D7038823E1F004
:100C200062E38EED94E00E944B018091D7031F9206
:100C30008F93DF93CF938EED94E09F938F930E94D9
:100C40001E088EED94E00E94BE010F900F900F9051
:100C50000F900F900F900FC08091DC048064809300
:100C6000DC0468ED71E08EED94E00E94E9078EED02
:100C700094E00E94F0018091DC048F7D8093DC047D
:100C80008091DD0480FF1EC062E38EED94E00E943F
:100C90004B011F930F93FF92EF928EED94E09F9381
:100CA0008F930E941E088EED94E00E94BE018091F9
:100CB000DD048E7F8093DD040F900F900F900F90D6
:100CC0000F900F908091DD0481FF29C062E38EEDCB
:100CD00094E00E944B018091D2038823B9F0809167
:100CE000D2031F928F93DF92CF928EED94E09F9369
:100CF0008F930E941E088EED94E00E94BE010F901B
:100D00000F900F900F900F900F9004C083E192E02E
:100D10000E94F0018091DD048D7F8093DD0480913D
:100D2000DD0482FF29C062E38EED94E00E944B0156
:100D3000809151028823B9F0809151021F928F93C4
:100D4000BF92AF928EED94E09F938F930E941E0806
:100D50008EED94E00E94BE010F900F900F900F90C7
:100D60000F900F9004C083E392E00E94F001809105
:100D7000DD048B7F8093DD0480914C02813059F437
:100D800088E494E00E94BF0360E888E494E00E9455
:100D90004B0110924C028091DC0480FFE5CE8091E3
:100DA000DC048E7F8093DC0462E38EED94E00E948D
:100DB0004B016EED74E084EE93E00E948E0264E6D7
:100DC00084EE93E00E944B016BE372E084EE93E0CB
:100DD0000E94E907E4EEF3E001900020E9F7CF017B
:100DE0000197FC01DF01A81BB90BA252BB4F2C914C
:100DF000222319F02C912193F5CF908284EE93E079
:100E00000E94BE0180914D028111FCCF8091C000F3
:100E100085FFF8CFA9CE982F92959F708F702AE00A
:100E2000929F800D112408956AE00E94B10720E18D
:100E3000829F900D1124892F0895EF92FF920F93B6
:100E40001F93CF93DF93EC018B017A010E94A100E5
:100E500080ED90E00E94B90080E090E00E94B9002F
:100E60000E94A10081ED90E00E94B90081E090E035
:100E70000E94E4000E940B07F701808381E090E06C
:100E80000E94E4000E940B07F801808380E090E05C
:100E90000E94E4000E940B078883DF91CF911F918D
:100EA0000F91FF90EF900C94AD001F93CF93DF93C1
:100EB00000D0CDB7DEB7182F49836A830E94A10006
:100EC00080ED90E00E94B90080E090E00E94B900BF
:100ED0004981842F0E94140790E00E94B9006A8122
:100EE000862F0E94140790E00E94B900812F0E9473
:100EF000140790E00E94B9000F900F90DF91CF91FE
:100F00001F910C94AD001F93CF93DF9300D0CDB70A
:100F1000DEB7182F4A8369830E94A10080ED90E01C
:100F20000E94B90084E090E00E94B900812F0E94E5
:100F3000140790E00E94B9006981862F0E9414076F
:100F400090E00E94B9004A81842F0E94140790E02B
:100F50000E94B9000F900F90DF91CF911F910C94D8
:100F6000AD00991B79E004C0991F961708F0961BF5
:100F7000881F7A95C9F780950895AA1BBB1B51E17C
:100F800007C0AA1FBB1FA617B70710F0A61BB70BF9
:100F9000881F991F5A95A9F780959095BC01CD019E
:100FA0000895FB01DC0104C08D910190801921F4AA
:100FB00041505040C8F7881B990B0895FC0181915E
:100FC000861721F08823D9F7992708953197CF0103
:100FD0000895FB01DC0101900D920020E1F70895D6
:100FE000DC01FB014150504058F049F001900D9256
:100FF0000020C1F7E61BF70B3197CF0108951C9233
:1010000001900020E9F7F6CFFB0151915523A9F09B
:10101000BF01DC014D9145174111E1F759F4CD01B4
:101020000190002049F04D9140154111C9F3FB0199
:101030004111EFCF81E090E001970895AEE0B0E07C
:10104000E4E2F8E00C94CD0A0D891E8986E08C83D9
:101050001A8309838FEF9FE79E838D83AE01475EDE
:101060005F4F6F89788DCE0101960E9441082F81D4
:101070003885F801E20FF31F10822E96E4E00C94FD
:10108000E90AACE0B0E0E7E4F8E00C94BF0A7C01C8
:101090006B018A01FC0117821682838181FFBDC129
:1010A000CE0101964C01F7019381F60193FD8591E4
:1010B00093FF81916F01882309F4ABC1853239F424
:1010C00093FD859193FF81916F01853229F4B701DA
:1010D00090E00E94290AE7CF512C312C20E02032E9
:1010E000A0F48B3269F030F4803259F0833269F425
:1010F00020612CC08D3239F0803339F4216026C054
:101100002260246023C0286021C027FD27C030ED65
:10111000380F3A3078F426FF06C0FAE05F9E300DB3
:101120001124532E13C08AE0389E300D1124332E23
:1011300020620CC08E3221F426FD6BC1206406C0F3
:101140008C3611F4206802C0883641F4F60193FD14
:10115000859193FF81916F018111C1CF982F9F7D60
:101160009554933028F40C5F1F4FFFE3F9830DC0B3
:10117000833631F0833771F0833509F05BC022C0CC
:10118000F801808189830E5F1F4F44244394512CC2
:10119000540115C03801F2E06F0E711CF801A080F7
:1011A000B18026FF03C0652D70E002C06FEF7FEFB6
:1011B000C5012C870E941E0A2C0183012C852F77E4
:1011C000222E17C03801F2E06F0E711CF801A080CA
:1011D000B18026FF03C0652D70E002C06FEF7FEF86
:1011E000C5012C870E94130A2C012C852068222E11
:1011F000830123FC1BC0832D90E048165906B0F4F0
:10120000B70180E290E00E94290A3A94F4CFF501F8
:1012100027FC859127FE81915F01B70190E00E9434
:10122000290A31103A94F1E04F1A5108411451043F
:1012300071F7E5C0843611F0893639F5F80127FFDA
:1012400007C060817181828193810C5F1F4F08C04C
:1012500060817181072E000C880B990B0E5F1F4F68
:101260002F76722E97FF09C09095809570956195A5
:101270007F4F8F4F9F4F2068722E2AE030E0A401ED
:101280000E94610AA82EA81844C0853729F42F7E31
:10129000B22E2AE030E025C0F22FF97FBF2E8F3624
:1012A000C1F018F4883579F0B4C0803719F0883768
:1012B00021F0AFC02F2F2061B22EB4FE0DC08B2DB8
:1012C0008460B82E09C024FF0AC09F2F9660B92EF3
:1012D00006C028E030E005C020E130E002C020E197
:1012E00032E0F801B7FE07C060817181828193818D
:1012F0000C5F1F4F06C06081718180E090E00E5F3F
:101300001F4FA4010E94610AA82EA818FB2DFF7789
:101310007F2E76FE0BC0372D3E7FA51450F474FE51
:101320000AC072FC08C0372D3E7E05C0BA2C372D8E
:1013300003C0BA2C01C0B52C34FF0DC0FE01EA0D6C
:10134000F11D8081803311F4397E09C032FF06C05F
:10135000B394B39404C0832F867809F0B39433FD1B
:1013600013C030FF06C05A2CB31418F4530C5B188A
:10137000B32CB31468F4B70180E290E03C870E947C
:10138000290AB3943C85F5CFB31410F43B1801C07F
:10139000312C34FF12C0B70180E390E03C870E94FB
:1013A000290A3C8532FF17C031FD03C088E790E071
:1013B00002C088E590E0B7010CC0832F867859F011
:1013C00031FF02C08BE201C080E237FD8DE2B70140
:1013D00090E00E94290AA51438F4B70180E390E058
:1013E0000E94290A5A94F7CFAA94F401EA0DF11D3C
:1013F0008081B70190E00E94290AA110F5CF332027
:1014000009F451CEB70180E290E00E94290A3A9493
:10141000F6CFF7018681978102C08FEF9FEF2C9660
:10142000E2E10C94DB0AFC01059061507040011070
:10143000D8F7809590958E0F9F1F0895FC016150FD
:10144000704001900110D8F7809590958E0F9F1FE6
:1014500008950F931F93CF93DF93FB01238121FD09
:1014600003C08FEF9FEF28C022FF16C0468157812F
:10147000248135814217530744F4A081B1819D0135
:101480002F5F3F4F318320838C93268137812F5FDD
:101490003F4F3783268310C0EB01092F182F00849C
:1014A000F185E02D0995892BE1F68E819F810196CA
:1014B0009F838E83812F902FDF91CF911F910F916A
:1014C0000895FA01AA27283051F1203181F1E894DA
:1014D0006F936E7F6E5F7F4F8F4F9F4FAF4FB1E027
:1014E0003ED0B4E03CD0670F781F891F9A1FA11D22
:1014F000680F791F8A1F911DA11D6A0F711D811D23
:10150000911DA11D20D009F468943F912AE0269FE7
:1015100011243019305D3193DEF6CF010895462F46
:101520004770405D4193B3E00FD0C9F7F6CF462F27
:101530004F70405D4A3318F0495D31FD4052419390
:1015400002D0A9F7EACFB4E0A6959795879577954D
:101550006795BA95C9F700976105710508959B01D4
:10156000AC010A2E06945795479537952795BA955D
:10157000C9F7620F731F841F951FA01D08952F9236
:101580003F924F925F926F927F928F929F92AF9213
:10159000BF92CF92DF92EF92FF920F931F93CF9360
:1015A000DF93CDB7DEB7CA1BDB0B0FB6F894DEBFF7
:1015B0000FBECDBF09942A88398848885F846E841D
:1015C0007D848C849B84AA84B984C884DF80EE8067
:1015D000FD800C811B81AA81B981CE0FD11D0FB670
:1015E000F894DEBF0FBECDBFED010895F894FFCF94
:1015F000257325632563256300766172486F7572D4
:101600002E76616C3D25303264007661724D696ED4
:101610007574652E76616C3D25303264007661729A
:101620005365636F6E642E76616C3D2530326400C5
:101630007661724461792E76616C3D2530326400AA
:101640007661724D6F6E74682E76616C3D25303216
:101650006400766172596561722E76616C3D253049
:1016600032640062726900676574566F6C4C65760F
:10167000006765744C436F756E74006765744375DD
:10168000725374610073657454696D650073657499
:101690004461746500636C692E005F5F5F5F5F008B
:1016A0004E414D45534554233A20004D4554412366
:1016B0003A2000564F4C2000564F4C233A20004C05
:1016C0004953542300202000636C692E6C697374A5
:1016D000007661724C697374436F756E742E766117
:1016E0006C3D25640074322E7478743D222573227B
:1016F00000766172434C496E6465782E76616C3D6C
:10170000256400636C692E73746172740076617273
:10171000566F6C756D654C6576656C2E76616C3DAB
:10172000256400636C692E766F6C00714D455441E1
:081730002E7478743D220000C4
:00000001FF
