:100000000C94D4070C94F1070C94F1070C94F107AD
:100010000C94F1070C94F1070C94F1070C94F10780
:100020000C94F1070C94F1070C94F1070C946B11EC
:100030000C94F1070C94F1070C94F1070C94F10760
:100040000C94F1070C94F1070C94F1070C94F10750
:100050000C94F1070C94F1070C94F1070C94F10740
:100060000C94F1070C94F1070C94F1070C94F10730
:100070000C94DE100C94F1070C9430110C94F107E1
:100080000C94F1070C94F1070C94F1070C94F10710
:100090000C94F1070C942E230C94C1230C94F107BB
:1000A0000C94F1070C94F1070C94F1070C94F107F0
:1000B0000C94F10752656C656173653A2000564FE8
:1000C0004C233A20004D455441233A2000504C41E6
:1000D00059494E4723004E414D45534554233A203C
:1000E000004C4953544E554D23004C495354494EEE
:1000F000464F23002323434C492E4C49535423009D
:10010000000000C0E0F0F0F0F0F0F0F0F0F0F0F0FF
:10011000F0F0F0E0C0000000000000FFFFFFFF0172
:10012000000000000000000001FFFFFFFF000000D2
:10013000000000FFFFFFFF80000000000000000043
:1001400080FFFFFFFF00000000000003070F0F0FFC
:100150000F0F0F0F0F0F0F0F0F0F0F0703000000F0
:100160000000000000000000000000000000E0F0BF
:10017000F0E00000000000000000000000000000AF
:10018000000000000000FFFFFFFF00000000000073
:100190000000000000000000000000000000FFFF61
:1001A000FFFF000000000000000000000000000051
:1001B000000000000000030707030000000000002B
:1001C000000000E0F0F0F0F0F0F0F0F0F0F0F0F00F
:1001D000F0F0F0E00000000000000081C1C0C0C0ED
:1001E000C0C0C0C0C0C0C0E1FFFFFFFF00000000F2
:1001F000000000FFFFFFFF87030303030303030364
:100200000303838100000000000000070F0F0F0FA1
:100210000F0F0F0F0F0F0F0F0F0F0F070000000032
:10022000000000E0F0F0F0F0F0F0F0F0F0F0F0F0AE
:10023000F0F0F0E00000000000000081C1C0C0C08C
:10024000C0C0C0C0C0C0C0E1FFFFFF7F0000000011
:1002500000000081830303030303030303030387F5
:10026000FFFFFFFE00000000000000070F0F0F0F50
:100270000F0F0F0F0F0F0F0F0F0F0F0700000000D2
:10028000000000E0F0F0F03000000000000000305E
:10029000F0F0F0E000000000000000FFFFFFFFE0D2
:1002A000C0C0C0C0C0C0C0E0FFFFFFFF0000000032
:1002B0000000000103030303030303030303030715
:1002C000FFFFFFFF00000000000000000000000032
:1002D000000000000000000C0F0F0F0700000000DE
:1002E000000000E0F0F0F0F0F0F0F0F0F0F0F0F0EE
:1002F000F0F0F0E000000000000000FFFFFFFFE171
:10030000C0C0C0C0C0C0C0C0C0C0C181000000002B
:100310000000008183030303030303030303038734
:10032000FFFFFFFF00000000000000070F0F0F0F8E
:100330000F0F0F0F0F0F0F0F0F0F0F070000000011
:10034000000000E0F0F0F0F0F0F0F0F0F0F0F0F08D
:10035000F0F0F0E000000000000000FFFFFFFFE110
:10036000C0C0C0C0C0C0C0C0C0C0C18100000000CB
:10037000000000FFFFFFFF8703030303030303875E
:10038000FFFFFFFF00000000000000070F0F0F0F2E
:100390000F0F0F0F0F0F0F0F0F0F0F0700000000B1
:1003A000000000E0F0F0F0F0F0F0F0F0F0F0F0F02D
:1003B000F0F0F0E00000000000000001010000008B
:1003C0000000000000000001FFFFFFFF0000000030
:1003D000000000000000000000000000000000001D
:1003E000FFFFFFFF00000000000000000000000011
:1003F000000000000000000C0F0F0F0700000000BD
:10040000000000E0F0F0F0F0F0F0F0F0F0F0F0F0CC
:10041000F0F0F0E0000000000000007FFFFFFFE1CF
:10042000C0C0C0C0C0C0C0E1FFFFFF3F000000006F
:10043000000000FEFFFFFF8703030303030303879E
:10044000FFFFFFFE00000000000000070F0F0F0F6E
:100450000F0F0F0F0F0F0F0F0F0F0F0700000000F0
:10046000000000E0F0F0F0F0F0F0F0F0F0F0F0F06C
:10047000F0F0F0E000000000000000FFFFFFFFE1EF
:10048000C0C0C0C0C0C0C0E1FFFFFFFF000000004F
:100490000000000103030303030303030303030733
:1004A000FFFFFFFF00000000000000000000000050
:1004B000000000000000000C0F0F0F0700000000FC
:1004C000000000000000000000000000000000002C
:1004D000000000000000000000000000000000001C
:1004E000003C7E7E7E7E3C0000000000000000009C
:1004F000000000000000000000F0F8F8F8F8F0003C
:1005000000000000000000000000000000000000EB
:1005100000000101010100000000000000000000D7
:1005200000000000000000000000000000000000CB
:1005300000000000000000000000000000000000BB
:1005400000000000000000000000000000000000AB
:10055000000000000000000000C0C0C0C0C0C0001B
:10056000000000000000000000000000000000008B
:10057000000F0F0F0F0F0F00000000000000000021
:10058000000000000000000000000000000000006B
:10059000000000000000000000000000000000005B
:1005A000000000000000000000000000000000004B
:1005B000000000000000000000000000000000003B
:1005C000000000000000000000000000000000002B
:1005D000000000000000000000000000000000001B
:1005E0000000000000000000001F1111111F00009A
:1005F00000000000000000000000000000000000FB
:1006000000000000000000000000000000000000EA
:1006100000000000000000000000000000000000DA
:1006200000000000000000000000000000000000CA
:1006300000000000000000000000000000000000BA
:1006400000000000000000000000000000000000AA
:10065000000000000000000000000000000000009A
:10066000000000000000000000000000000000008A
:10067000000000000000000000000000000000007A
:10068000000000000000000000000000000000006A
:10069000000000000000000000000000000000005A
:1006A000000000000000005F0000000700070014C9
:1006B0007F147F14242A7F2A122313086462364988
:1006C0005522500005030000001C22410000412279
:1006D0001C0014083E081408083E080800503000AA
:1006E00000080808080800606000002010080402E4
:1006F0003E5149453E00427F4000426151494621FA
:1007000041454B311814127F1027454545393C4A65
:1007100049493001710905033649494936064949B5
:10072000291E00363600000056360000081422410B
:100730000014141414140041221408020151090673
:10074000324979413E7E1111117E7F494949363E39
:10075000414141227F4141221C7F494949417F0952
:100760000909013E4149497A7F0808087F00417F15
:1007700041002040413F017F081422417F4040401A
:10078000407F020C027F7F0408107F3E4141413EC2
:100790007F090909063E4151215E7F091929464614
:1007A0004949493101017F01013F4040403F1F203D
:1007B00040201F3F4038403F63140814630708700F
:1007C00008076151494543007F4141000204081078
:1007D000200041417F0004020102044040404040AB
:1007E000000102040020545454787F4844443838AF
:1007F00044444420384444487F3854545418087EB4
:100800000901020C5252523E7F0804047800447DD4
:1008100040002040443D007F1028440000417F40BC
:10082000007C041804787C08040478384444443874
:100830007C14141408081414187C7C080404080898
:1008400054545420043F4440203C4040207C1C2011
:1008500040201C3C4030403C44281028440C505060
:10086000503C4464544C44000836410000007F0072
:100870000000413608001008081008784641467804
:10088000000000000000005F0000000700070014E7
:100890007F147F14242A7F2A1223130864623649A6
:1008A0005522500005030000001C22410000412297
:1008B0001C0014083E081408083E080800503000C8
:1008C0000008080808080060600000201008040202
:1008D000000000000000005F000000070007001497
:1008E0007F147F14242A7F2A122313086462364956
:1008F0005522500005030000001C22410000412247
:100900001C0014083E081408083E08080050300077
:1009100000080808080800606000002010080402B1
:10092000000000000000005F000000070007001446
:100930007F147F14242A7F2A122313086462364905
:100940005522500005030000001C224100004122F6
:100950001C0014083E081408083E08080050300027
:100960000008080808080060600000201008040261
:10097000000609090600427F4000426151494621B4
:1009800041454B311814127F1027454545393C4AE3
:100990004949300171090503364949493606494933
:1009A000291E003636000000563600000814224189
:1009B00000141414141400412214080201510906F1
:1009C0007E1111117E7F494949317F494949367F5E
:1009D00001010103603E21217F7F49494941770898
:1009E0007F087722414949367F1008047F7F10092C
:1009F000047F7F08142241403E01017F7F020C02E8
:100A00007F7F0808087F3E4141413E7F0101017F11
:100A10007F090909063E4141412201017F01012769
:100A20004848483F1E217F211E63140814633F205D
:100A3000203F60070808087F7F407F407F3F203FBE
:100A4000207F017F4848307F4830007F007F484842
:100A500030224149493E7F083E413E462919097FDF
:100A600020545454783C4A4A4A307C545428007CE0
:100A700004040404603824247C38545454186C1042
:100A80007C106C00445454287C2010087C7C21127B
:100A9000097C7C10284400403804047C7C08100841
:100AA0007C7C1010107C38444444387C0404047C62
:100AB0007C14141408384444440004047C04040CDA
:100AC0005050503C08147C140844281028443C2002
:100AD000203C600C1010107C7C407C407C3C203C16
:100AE000207C047C5050207C5020007C007C5050A6
:100AF0002028445454387C10384438485434147CEA
:100B000000000000000000000000000000000000E5
:100B100000000000000000000000000000000000D5
:100B20000000000000000000000080C040203010E5
:100B30001808884C0404040602020202020202029F
:100B40000202060404040C88081810206040C080CB
:100B50000000000000000000000000000000000095
:100B60000000000000000000000000000000000085
:100B70000000000000000000000000000000000075
:100B80000000000000000000000000000000000065
:100B90000000000000000000000000000000000055
:100BA000000000C06018080403010000000000E01D
:100BB0001C03C13C46A2701800C0E0E0F0F0E0E089
:100BC000C0800830E2060CF0030EF0800000000147
:100BD00001020418306080000000000000000000E6
:100BE0000000000000000000000000000000000005
:100BF00000000000000000000000000000000000F5
:100C000000000000000000000000000000000000E4
:100C1000000000000000000000000000000000C014
:100C2000700C030000000000000000000000001F26
:100C300070800F30D087182000070FDFFFFFFF1FE5
:100C40001F0360300F80601F84C03F0B0000000056
:100C500000000000000001031CF080000000000004
:100C60000000000000000000000000000000000084
:100C70000000000000000000000000000000000074
:100C80000000000000000000000000000000000064
:100C90000000000000000000000000000000FC0F49
:100CA0000000000000000000F0F0F00000000080F4
:100CB000E0F17334000100000000F8FFFF9FFFFE29
:100CC000C2000000010004F6F1303030303030F066
:100CD000E0C000000000000000001FF00000000065
:100CE0000000000000000000000000000000000004
:100CF00000000000000000000000000000000000F4
:100D000000000000000000000000000000000000E3
:100D100000000000000000000000000000003FF0A4
:100D20000000000000000000FFFFFFF0F8BD0F070B
:100D30000300000000000000C0FFFF8F88888BFFC9
:100D4000FFF80000000000FFFF6060E0E0E0703F9F
:100D50003F5F0000000000000000F80F00000000EE
:100D60000000000000000000000000000000000083
:100D70000000000000000000000000000000000073
:100D80000000000000000000000000000000000063
:100D90000000000000000000000000000000000152
:100DA0000E38C00000000000FFFFFF0001070F1E0B
:100DB0003CF0E0C0000000F8FFFF8B88888888883E
:100DC0009FFFFEC00000007F7F00000003071F7C24
:100DD00078600000000080E0380F01000000000093
:100DE0000000000000000000000000000000000003
:100DF00000000000000000000000000000000000F3
:100E000000000000000000000000000000000000E2
:100E100000000000000000000000000000000000D2
:100E200000000003060C182040C0800000000000F5
:100E30000000000000C0FFFF0F08080808080808AD
:100E40000809FFFFF800000000000000000000801B
:100E5000C06030180C060100000000000000000017
:100E60000000000000000000000000000000000082
:100E70000000000000000000000000000000000072
:100E80000000000000000000000000000000000062
:100E90000000000000000000000000000000000052
:100EA000000000000000000000000101020604082C
:100EB0000818101020202120206040404040404071
:100EC000602020212130101018080C0406020101B6
:100ED0000000000000000000000000000000000012
:100EE0000000000000000000000000000000000002
:100EF00000000000000000000000000000000000F2
:100F0000000043008700CA000E0151019501D8017D
:100F10001C025F02A302E6022A036D03B103F4037D
:100F20000000A3024605E9078C0A2F0DD20F7512A7
:100F30001815BB175E1A011DA41F4722EA248D272E
:100F4000000000005E1A0000BC3400001A4F0000D0
:100F500078690000D6830000349E000092B800003B
:100F6000F0D200004EED0000AC0701000A220100A3
:100F7000683C0100C656010024710100828B01000B
:100F800000000000AC070100580F0200143E0300EF
:100F900096C90400144402000A220100D68300000E
:100FA0001A4F00005E1A000011241FBECFEFD8E0D8
:100FB000DEBFCDBF12E0A0E0B1E0ECEFFCE602C086
:100FC00005900D92A03CB107D9F727E0A0ECB2E064
:100FD00001C01D92AB39B207E1F70E943D0E0C949F
:100FE0007C360C9400002091C002223070F4909165
:100FF000C202E92FF0E0ED53FD4F80832F5F209375
:10100000C0029F5F91709093C20208952091C00228
:10101000222379F09091C102E92FF0E0ED53FD4FCA
:10102000808121502093C0029F5F91709093C102F4
:10103000089580E008951092CB021092CA02109297
:10104000C5021092C702E3ECF2E010821182109206
:10105000C2021092C1021092C00254985C9A089584
:10106000CF93DF9329B1C091C5028091C7028093CD
:10107000C6028091CA029091CB029093C9028093DC
:10108000C80224FD15C0893E23E0920798F5019619
:101090009093C9028093C8028B30910558F1C160CA
:1010A000893E934039F5C1FD25C0CB7FC26022C087
:1010B000C0FF0AC0C1FD08C0C2FF03C0CB7FD5E09E
:1010C00004C01092C602C460D0E0C2FF08C0809184
:1010D000C602873920F01092C602CB7FD3E08C2F56
:1010E0008370833009F4D4E01092C9021092C802D0
:1010F000CC7F01C0D0E0C2FF07C08091C602873913
:1011000018F48F5F8093C6028091C6028093C70255
:10111000DD2331F081E00E94F3078D2F0E94F30759
:101120008091C8029091C9029093CB028093CA0229
:10113000C093C502DF91CF910895CF93DF930E94B2
:1011400034120E94401280E290E00E9458128FE711
:1011500090E00E9458120E94401281E290E00E94AA
:10116000581280E090E00E9483120E944C12CDEA57
:10117000D5E08881806788830E94401280E290E0F9
:101180000E94581284E090E00E945812888190E0FA
:101190000E9458120E944C12EEEAF5E080818170A4
:1011A00084608E7F80830E94401280E290E00E94E3
:1011B000581285E090E00E945812898190E00E94C8
:1011C0005812DF91CF910C944C12CF93DF93EC0126
:1011D000FC0101900020E9F73197E81BF90BE0933F
:1011E0006A03BC0180EB95E00E947A33FE01019016
:1011F0000020E9F73197EC1BFD0BE055FA4F8DE02D
:10120000808380916A038F5F80936A038091B00529
:101210008093CE00DF91CF9108950E9406088093BD
:10122000690380916903882321F00E940608809356
:10123000680308959093CD008093CC0088ED80934F
:10124000C90086E08093CA000895282FFC018E2FE4
:10125000821B861710F41192FACF0895EF92FF9235
:101260000F931F93CF93DF9300D000D0CDB7DEB79D
:101270009C011C821B8280E197E29A83898340E073
:1012800005E010E08AE0E82EF12CF9010190002041
:10129000E9F73197E21BF30B842F90E0B8016E1B46
:1012A0007F0B8617970748F489819A81B7010E94BE
:1012B000CA327A8369834F5FE8CF40E00AE010E0EA
:1012C000842F90E0F90101900020E9F73197E21BAB
:1012D000F30B8E179F07F8F4E981FA816B817C810B
:1012E000D901A80FB91F8C9190E0C0978E9FD001B3
:1012F0008F9FB00D9E9FB00D1124CD01860F971FBB
:101300009C838B8389819A81B8010E94CA327A8337
:1013100069834F5FD5CF8B819C810F900F900F9089
:101320000F90DF91CF911F910F91FF90EF90089553
:10133000CF93DF93DC01FB0180E090E048EB58EABB
:10134000EB0109900020E9F72197C61BD70B8C17FA
:101350009D0740F5208127FD03C02D93319620C0C5
:1013600030E0322F2227C1812C0F311DE901C059F5
:10137000D04DE09710F4205D06C0E901C058D14D72
:10138000609718F420592D930AC02130C0ED3C0716
:1013900011F45D9304C02139314D11F44D9332960F
:1013A0000196CECFDF91CF9108952F923F924F9229
:1013B0005F926F927F928F929F92AF92BF92CF92E5
:1013C000DF92EF92FF920F931F93CF93DF93EC0185
:1013D000E0915403F0915503DF01AA0FBB1FA757FB
:1013E000B94F2D903C9011979E0140E050E060E095
:1013F00070E080E090E05101C12CD12CE12CF12C67
:1014000000E010E00E942633A0905603B0905703EE
:10141000C0905803D0905903E0905A03F0905B03BA
:1014200000915C0310915D030E941D3320935603CD
:1014300030935703409358035093590360935A03D2
:1014400070935B0380935C0390935D033196F093FC
:101450005503E0935403CD93DC93709721F41092DD
:1014600055031092540304E00E940133C901DF9137
:10147000CF911F910F91FF90EF90DF90CF90BF9091
:10148000AF909F908F907F906F905F904F903F9024
:101490002F90089510926703109266030E9487159B
:1014A000E0919904F0919A048081813099F7A485A4
:1014B000B585809171069C9190FB80F980937106AF
:1014C000A485B5859C919695917090FB81F9809348
:1014D0007106A485B5859C9192FB992790F990FBA4
:1014E00082F980937106A485B5859C9193FB992719
:1014F00090F990FB83F9809371060484F585E02DC3
:1015000090819295917090FB84F9809371068F7110
:1015100009F0C0CF0895EF92FF921F93CF93DF930E
:1015200000D000D0CDB7DEB7182F6623E1F01F92B0
:101530008F938CE991E09F938F93CE0101967C016C
:101540009F938F930E94A43360E088E10E94601310
:1015500040E062E0C7010E94DF140F900F900F90EF
:101560000F900F900F90812F86950E943B150F9042
:101570000F900F900F90DF91CF911F91FF90EF9000
:10158000089597FD05C08F3F910509F01CF408955B
:1015900080E008958FEF08958F929F92BF92CF922F
:1015A000DF92EF92FF920F931F93CF93DF93CDB70C
:1015B000DEB761970FB6F894DEBF0FBECDBFB82E71
:1015C000082F10E00E94CF1361E080E00E948B0A98
:1015D00061E08B2D0E948B0A0E944A0A20E080EA7B
:1015E000E82E81E0F82ECE0101966C018091660311
:1015F000909167038835924009F4ABC0298B0E9413
:101600008715E0919904F0919A04808129898130AD
:1016100009F050C0A485B585909171068C9180FB2E
:1016200090F990937106A485B5858C9183FB8827EA
:1016300080F980FB93F990937106A485B5858C9110
:101640008695817080FB91F990937106A485B5858C
:101650008C9182FB882780F980FB92F99093710628
:101660000484F585E02D80818295817080FB94F95A
:101670009093710690FF0DC00E944A0A1092670372
:101680001092660305501109C8010E94C10AB82EC4
:1016900021E08091710683FF0DC00E944A0A1092DA
:1016A0006703109266030B5F1F4FC8010E94C10AB7
:1016B000B82E21E08091710684FF25C01092670347
:1016C00010926603E0919904F0919A040784F089DE
:1016D000E02D808190E0298B0E94AD120E94D509F7
:1016E0004C019924C801029729898816990624F08B
:1016F00004968815990574F4B82C882D86950E9457
:101700003B15840109C0213001F561E08B2D0E9459
:101710008B0A02C02130C9F480916A03811117C07D
:1017200061E08B2D0E948B0A1F92BF92FF92EF9275
:10173000DF92CF920E94A433C6010E94E5080F9069
:101740000F900F900F900F900F9020E04FCF21E05F
:101750004DCF10926703109266030E94CF138B2D1A
:1017600061960FB6F894DEBF0FBECDBFDF91CF916B
:101770001F910F91FF90EF90DF90CF90BF909F90BF
:101780008F900895CF93DF939F938F938EEA91E08C
:101790009F938F93C9EAD6E0DF93CF930E94A4333F
:1017A000109261031092600309900020E9F72197DD
:1017B000C95AD640D0935F03C0935E030F900F9039
:1017C0000F900F900F900F90DF91CF9108950F938E
:1017D0001F93CF93DF93CDB7DEB766970FB6F8941C
:1017E000DEBF0FBECDBFFE013196CE0147968F0101
:1017F0001192E817F907E1F76091600370916103B6
:101800006755794F45E150E0C8010E94953362E089
:1018100081E00E94601340E060E0C8010E94DF1494
:10182000809160039091610301969093610380938E
:10183000600320915E0330915F038217930721F4C8
:10184000109261031092600366960FB6F894DEBFA3
:101850000FBECDBFDF91CF911F910F910895CF9310
:10186000DF93682F80E00E946013C0E8D0E068E159
:1018700080E40E942D132197D1F7DF91CF91089535
:10188000CF92DF92EF92FF920F931F93CF93DF934C
:1018900000D000D0CDB7DEB78C0164EB70E00E94C1
:1018A0005533009771F0BC01675F7F4F43E150E013
:1018B00083E796E00E94813380918807846080935B
:1018C000880761EE70E0C8010E945533892B29F02A
:1018D000809172068F5F8093720664EF70E0C8019A
:1018E0000E945533892B49F08091870786FD05C0FA
:1018F000809187078064809387076AEE70E0C80153
:101900000E9455337C01009791F06CE270E00E94D8
:101910006F339701215F3F4FAC01421B530BB7015F
:10192000605F7F4F80ED95E00E94813375C066ED6A
:1019300070E0C8010E9455337C01892B59F164E0A5
:10194000CE0101960E9425098AE0E80EF11C60E2B2
:1019500070E0C7010E946F336C01AC014E195F0942
:1019600055274F5F5F4FB701CE0101960E9481332B
:10197000CE0101960E942E098093E605B6016F5FA5
:101980007F4F80ED95E00E947A33809187078068D1
:10199000809387076DEC70E0C8010E945533892B56
:1019A00029F08091870782608093870765EC70E05B
:1019B000C8010E9455337C01892B89F064E683E2DB
:1019C00097E00E942509B701695F7F4F83E297E0A6
:1019D0000E947A33809187078460809387076EEB3B
:1019E00070E0C8010E9455330097B1F0209187073D
:1019F00024FD12C0BC016A5F7F4FCE0101960E9498
:101A00007A33CE0101960E942E098093AF05809112
:101A100087078061809387070F900F900F900F903A
:101A2000DF91CF911F910F91FF90EF90DF90CF90BA
:101A300008950F931F93CF93DF931F92CDB7DEB717
:101A40008C0181E049830E946013498160E0C801F4
:101A50000F90DF91CF911F910F910C94DF14809123
:101A600088078B7F8093880787EC91E00E94E508C8
:101A70008091880782FD13C08091880781FFF8CF8D
:101A800080EF95E00E94400C60E880EF95E00E94B6
:101A90002509809188078D7F80938807E9CF87E0AB
:101AA0000E94771340E067E083E796E00C94190DFD
:101AB000809187078E7F80938707109280008FEF39
:101AC0009AE1909389008093880082E0809381005E
:101AD00010928200109285001092840080936F0013
:101AE0000E94DE15399A41985C9A419A2FEF8FE552
:101AF00093E0215080409040E1F700C000000E9438
:101B00001B080E949D080E94FF1380E00E9412158E
:101B100078944C9940C04C9BFECF41E067E083ED48
:101B200091E00E94190D85E090E00E941A092FEFC4
:101B30008FE593E0215080409040E1F700C0000025
:101B400088ED91E00E94E5082FEF8FE593E02150AA
:101B500080409040E1F700C0000085EE91E00E94D7
:101B6000E5082FEF8FE593E0215080409040E1F7AA
:101B700000C0000084EF91E00E94E5082FEF8FE5A0
:101B800093E0215080409040E1F700C0000085E0E4
:101B900092E00E94E5082FEF8FE395E62150804008
:101BA0009040E1F700C0000087E00E9477130E9498
:101BB000CF1340E067E08EE092E00E94190D809123
:101BC00087078D7F8093870787E490E00E941A093A
:101BD0008091870781FD13C08091880781FFF8CF2E
:101BE00080EF95E00E94400C60E880EF95E00E9455
:101BF0002509809188078D7F80938807E9CF0E940F
:101C00002F0D2FEF8FE793E4215080409040E1F7B4
:101C100000C0000087E00E94771340E067E084E2A4
:101C200092E00E94190D10927206809187078F7BB7
:101C3000809387078AE392E00E94E50880918707F6
:101C400086FD13C08091880781FFF8CF80EF95E073
:101C50000E94400C60E880EF95E00E942509809189
:101C600088078D7F80938807E9CF0E94CF1381E09A
:101C70000E942F0C83E00C942F0CCF93DF93CDB7F1
:101C8000DEB7C257D1090FB6F894DEBF0FBECDBF85
:101C90006E0125E6C20ED11C8CE0E0E9F1E0D60130
:101CA00001900D928A95E1F70E94580D212C312C5C
:101CB0008CE3A82EB12C93E4892E92E0992E8E010C
:101CC0000F5F1F4F23E8E22E22E0F22E37E9632E4A
:101CD00032E0732E48EE442E43E0542E0E940D094C
:101CE0008091880781FF0EC080EF95E00E94400C34
:101CF00060E880EF95E00E942509809188078D7F3C
:101D00008093880780916903813009F04FC08091EA
:101D10006803833009F04AC08091870780FD3DC089
:101D2000239486E0281611F0211008C087E00E9455
:101D30007713109263031092620337C0F601E20D2D
:101D4000F11DE20DF11D80819181909363038093D9
:101D5000620380916203909163032091620330914A
:101D60006303B5010E94CA329F938F93C901B501E5
:101D70000E94CA327F936F939F928F921F930F930B
:101D80000E94A43341E067E0C8010E94190D0FB61C
:101D9000F894DEBF0FBECDBF09C0809187078E7F4C
:101DA00080938707419A0E94580D212C80916903E6
:101DB000813031F480916803853011F40E942F0D39
:101DC000809169038130A9F480916803843089F49B
:101DD00041E067E089E592E00E94190D8FE692E00C
:101DE0000E94E508809187078D7F809387070E9476
:101DF000580D8091620390916303892B39F1809192
:101E0000880783FF23C08091620390916303209130
:101E1000620330916303B5010E94CA329F938F938E
:101E2000C901B5010E94CA327F936F939F928F922E
:101E30001F930F930E94A43340E067E0C8010E9403
:101E4000190D0FB6F894DEBF0FBECDBF8091880785
:101E500080FF09C08AE792E00E94E5088091880728
:101E60008E7F809388078091870780FF14C064E687
:101E700083E297E00E9425090E94CF1380E00E9430
:101E800012159FEFAFE5B3E09150A040B040E1F7ED
:101E900000C0000041988091870787FF25C0F801A6
:101EA0001192EC15FD05E1F760E080E00E946013FF
:101EB00060E080E40E942D1380E00E94771360E0D0
:101EC00081E00E94601360ED75E0C8010E949809EE
:101ED00040E060E0C8010E94DF14809187078F779F
:101EE000809387073090E6058091870786FF1AC0A8
:101EF00060E080E00E9460136FEF80E40E942D1389
:101F000080E00E94771360E081E00E94601341E06E
:101F100060E080ED95E00E94DF14809187078F7B61
:101F2000809387078091870782FF12C0F801119282
:101F3000EC15FD05E1F763E277E0C8010E9498091E
:101F4000C8010E94C20B809187078B7F809387070F
:101F50008091870785FF0BC08091870780FD07C0B0
:101F60000E94E70B809187078F7D80938707809180
:101F7000870780FF0E948715E0919904F0919A04E9
:101F80008081813009F0AACE8091870780FDA6CE9E
:101F9000A485B585809171069C9190FB80F9809312
:101FA0007106A485B5859C919695917090FB81F9F9
:101FB00080937106A485B5859C9192FB992790F931
:101FC00090FB82F980937106A485B5859C9193FB63
:101FD000992790F990FB83F9809371060484F58525
:101FE000E02D90819295917090FB84F98093710619
:101FF00084FF14C08091AF050E94CC0A8093AF0586
:1020000080916A038111FCCF8AE792E00E94E50883
:1020100081E00E942F0C83E00E942F0C80917106BA
:1020200080FF47C00E944A0A3A9437FE03C03090AE
:1020300072063A94809172061F928F93232D032C7F
:10204000000C330BC90101969F938F93FF92EF927F
:102050001F930F93E2962FAFE297E3963FAFE3977C
:102060000E94A43340E067E0C8010E94190D8091EE
:1020700087078F7B809387078FEF9BE60197F1F7A8
:1020800000C00000E3963FADE3973F933F927F92FD
:102090006F921F930F930E94A433C8010E94E5081A
:1020A00050926503409264030FB6F894DEBF0FBEF2
:1020B000CDBF8091710681FF0AC00E944A0A86EA5C
:1020C00092E00E94C20B87EA92E00E94E5088091AC
:1020D000710682FF21C00E944A0A86EA92E00E94AD
:1020E000C20B832D032C000C990B9F933F92A0EB06
:1020F000B2E0BF93AF931F930F930E94A433C80124
:102100000E94E50810926503109264030F900F90EF
:102110000F900F900F900F908091710683FFDECD8E
:102120000E944A0A339480917206232D032C000CDE
:10213000330B90E02817390709F4312C809172068F
:102140001F928F93232D032C000C330BC901019692
:102150009F938F93FF92EF921F930F93E2962FAF6F
:10216000E297E3963FAFE3970E94A43340E067E035
:10217000C8010E94190D809187078F7B8093870784
:102180008FEF9BE60197F1F700C00000E3963FADAB
:10219000E3973F933F927F926F921F930F930E941A
:1021A000A433C8010E94E50850926503409264037D
:1021B0000FB6F894DEBF0FBECDBF90CD1F920F9229
:1021C0000FB60F9211242F933F934F935F936F930A
:1021D0007F938F939F93AF93BF93EF93FF939091D0
:1021E000CE00809153039D3021F02091880721FF7C
:1021F00006C090E0A0EFB5E0E3EDF2E00BC0E82F01
:10220000F0E0ED52FD4F908387FD19C08F5F809302
:10221000530315C09F01235D3240281739071CF472
:1022200021912D93F7CF60E883ED92E00E9425097C
:102230008091880782608093880710925303FF91F2
:10224000EF91BF91AF919F918F917F916F915F912E
:102250004F913F912F910F900FBE0F901F901895A7
:102260001F920F920FB60F9211242F933F934F930B
:102270005F936F937F938F939F93AF93BF93EF93EE
:10228000FF93E091D202EF5FE093D20280916A0364
:10229000E8130AC01092D20210926A0360E280EB47
:1022A00095E00E94250906C0F0E0E055FA4F8081D4
:1022B0008093CE00FF91EF91BF91AF919F918F914D
:1022C0007F916F915F914F913F912F910F900FBE32
:1022D0000F901F9018951F920F920FB60F92112416
:1022E0002F933F934F935F936F937F938F939F931E
:1022F000AF93BF93EF93FF93B09A10928500109223
:1023000084000E9430088091620390916303892BBE
:1023100031F18091D0029091D1020196883C9105D3
:1023200029F09093D1028093D00219C01092D1026B
:102330001092D002809188078860809388078091EE
:102340006203909163030197909363038093620308
:10235000892B29F48091870781608093870780917A
:10236000640390916503892B81F0809164039091BF
:10237000650301979093650380936403892B29F487
:10238000809188078160809388078091660390918F
:1023900067038835924048F4809166039091670303
:1023A000019690936703809366038091CE0290918B
:1023B000CF0201969093CF028093CE024E9749F4BC
:1023C000809187078062809387071092CF021092D6
:1023D000CE028091CC029091CD0220918C07309159
:1023E0008D078217930791F421E0209390072091A5
:1023F0008E0730918F07820F931F90938F078093E2
:102400008E071092CD021092CC0205C001969093D7
:10241000CD028093CC02FF91EF91BF91AF919F913C
:102420008F917F916F915F914F913F912F910F907D
:102430000FBE0F901F90189500000197E9F70895BF
:10244000459A81E090E00C941C123C9A81E090E067
:102450000C941C123C9881E090E00C941C1245985E
:1024600081E090E00C941C1244984598459844985B
:102470003D9A3C980E9420120E9425120C942A1228
:102480000E9420120E942A120E9420120E942512ED
:102490000E942F120C942A120E942F120E942512C1
:1024A0000E9420120E9425120E9420120C942A12CF
:1024B0000F931F93CF93DF938C01C8E0D0E00E946D
:1024C0002F1207FF03C00E942A1202C00E94251289
:1024D0000E942012000F111F219789F70E942F12CE
:1024E0000E942A120E942012C6B10E942F128C2F25
:1024F00082958F7091E08927817090E0DF91CF9174
:102500001F910F910895EF92FF920F931F93CF9316
:10251000DF937C010E942F120E942A1208E010E033
:10252000C0E0D0E0CC0FDD1F0E942012349921962C
:102530000E942F1201501109A9F7EF2811F00E94F3
:1025400025120E9420120E942F12CE01DF91CF91FE
:102550001F910F91FF90EF9008950F931F93CF93CA
:10256000DF93009711F481E090E020910401309115
:1025700005012C5F3F4FA9014F5653404C30510588
:1025800014F02FE633E03093050120930401E0912D
:102590000401F09105019383828360817181209110
:1025A0000001309101012E173F0721F470930101C2
:1025B00060930001A0910001B091010143E050E05F
:1025C00020E031E0E9010D911C9111970E171F07D2
:1025D00019F411967C936E9312960D911C9113979A
:1025E0000817190740F48881998191838083F983C2
:1025F000E88380E090E0E90128813981D3E0AB36BF
:10260000BD0741F4F90182819381DF91CF911F9140
:102610000F910895CD91DC911197088119810E17C2
:102620001F0711F4798368830A811B810817190732
:1026300048F48D919C91119791838083ED93FC9345
:1026400080E090E0A3E0CB36DA07E1F2A881B9811F
:102650004150510909F0B7CFD5CF1F93CF93DF93E6
:102660001F92CDB7DEB7182F69830E94401288E70A
:1026700090E00E945812812F90E00E9458126981C8
:10268000862F90E00E9458120F90DF91CF911F91FA
:102690000C944C12811102C066EA04C0813021F40E
:1026A00067EA80E00C942D130895811102C06EEA50
:1026B00004C0813021F46FEA80E00C942D1308955A
:1026C000CF93C82F8093890760938B07605580E074
:1026D0000E942D136C2F6F7080E00E942D136C2FC1
:1026E00062956F70606180E0CF910C942D13CF9351
:1026F000DF93D82FC0E06D2F8C2F0E94601360E015
:1027000080E40E942D13CF5FC038A9F7DF91CF91ED
:1027100008950F931F93CF93DF938C0180937C03D5
:102720000E94401288E790E00E94581280E490E0F6
:102730000E94581285E0809FE001819FD00D1124F6
:10274000C050DA4F15E080918A07FE01882329F0F6
:10275000849190E08095909502C0849190E00E94D1
:102760005812115021961111EECF80918A078823BB
:1027700019F08FEF90E002C080E090E00E945812C4
:102780000E944C12809189078B5F813808F085E0A8
:1027900080938907DF91CF911F910F910895EF9258
:1027A000FF920F931F93CF93DF9360E080E00E942E
:1027B000601300E014E0E12CF12CC0E0D0E080E2F6
:1027C00090E00E9489132196C138D10548F08FEF1F
:1027D000E81AF80A6E2D80E00E946013C0E0D0E095
:1027E0000150110961F785E08093890710928B07EA
:1027F000DF91CF911F910F91FF90EF9008950E946C
:10280000341280E00E9455138FEF9BE60197F1F799
:1028100000C0000065ED80E00E942D1360E880E0BC
:102820000E942D1368EA80E00E942D136FE380E080
:102830000E942D1363ED80E00E942D1360E080E084
:102840000E942D1360E480E00E942D136DE880E06B
:102850000E942D1364E180E00E942D1360EA80E065
:102860000E942D1360EC80E00E942D136AED80E041
:102870000E942D1362E180E00E942D1360E280E04F
:102880000E942D1360E080E00E942D1361E880E03B
:102890000E942D1360E880E00E942D1369ED80E016
:1028A0000E942D1361EF80E00E942D136BED80E0FC
:1028B0000E942D1360E480E00E942D1364EA80E002
:1028C0000E942D1380E00E944A136FEA80E00E946C
:1028D0002D130E94CF1360E080E00E9460139CECF7
:1028E0002CE084E0915020408040E1F700C0089542
:1028F000EF92FF920F931F93CF93DF93E0908B079C
:102900008E3239F0803239F0833439F0C0EDC80F9F
:1029100005C0CBE003C0CCE001C0CDE00E94401276
:1029200088E790E00E94581280E490E00E945812DC
:1029300080E6C89FE001112400E010E0F12CF801CE
:10294000EC0FFD1FE050FF4F849190E00E94581261
:1029500086E18F15B0F40E944C1280918B0761E0E4
:10296000680F809189070E9460130E94401288E7D7
:1029700090E00E94581280E490E00E945812F12CDE
:1029800001C0F3940F5F1F4F00361105C1F60E947E
:102990004C1280918907895E809389076E2D0E9471
:1029A000601380918907813818F085E0809389074A
:1029B000DF91CF911F910F91FF90EF9008950F93AA
:1029C0001F93CF93DF93FC01C62F40938A07D5E076
:1029D0008081882311F1C1110FC080918907855032
:1029E0008C3710F0D09389078F010F5F1F4F8081C4
:1029F00090E00E9489130FC0C23051F7809189077F
:102A00008851893610F0D09389078F010F5F1F4FCF
:102A100080810E947814F801DBCFDF91CF911F9164
:102A20000F910895FF920F931F93CF93DF93F82E8A
:102A300060E080E00E946013C0E0DBE000E010E0B6
:102A4000F11005C0FE01649180E40E942D131F5F08
:102A500017FF06C00F5F602F80E00E94601310E038
:102A60002196FFE0C030DF0759F7DF91CF911F912A
:102A70000F91FF900895EF92FF920F931F93CF93C2
:102A8000C82F87FDCFE700917B030C1728F000913A
:102A90007B03C017D0F011C010E0EC2EF12C0E1506
:102AA0001F05ACF767E0802F0E9460136FEF80E492
:102AB0000E942D130F5F1F4FF2CFC0937B03CF9166
:102AC0001F910F91FF90EF90089510E0EC2EF12CE4
:102AD000E016F10694F767E0802F0E94601360E033
:102AE00080E40E942D1301501109F2CFE091990466
:102AF000F0919A048181928190FD08C081E08083E9
:102B00008181928190939207809391070895E0913B
:102B10009904F0919A04818192810E94F72A909100
:102B20009007913081F481110EC080918E079091B1
:102B30008F0746E755E161E00E943619811104C014
:102B400010929007089580E00895AF92BF92CF92BF
:102B5000EF920F93CF93DF931F92CDB7DEB7CE01E5
:102B600001965C0187E0C82EEE24E3940AE020E0A1
:102B700040E060E081E00E94851820E041E061E0F3
:102B800081E00E94851820E042E062E081E00E943E
:102B9000851820E043E063E081E00E94851820E092
:102BA00046E064E083E00E9485180F90DF91CF91AA
:102BB0000F91EF90CF90BF90AF9008950F931F9318
:102BC00084E190E090938D0780938C0700E010E003
:102BD00020E030E040E050E066EA70E286E091E01C
:102BE0000E940E160E94A51580E01F910F910C9473
:102BF000011980919C04813039F4E0915405F091E1
:102C00005505309709F0099581EB96E2909371058F
:102C1000809370058BE994E00C94C2288F929F9268
:102C2000AF92BF92CF92DF92EF92FF920F931F93DA
:102C3000CF93DF93FC01892B19F0C281D38102C0AD
:102C4000C0E0D0E08091A50581114BC2309709F416
:102C50004AC2209709F447C288819981892B09F4D7
:102C600044C28A819B81892B09F43FC28CA59DA512
:102C7000009709F43AC2AEA5BFA5109709F435C272
:102C8000FD846894EE24E2F8EF1408F430C2690180
:102C90005A014B017F01AD0160E070E00E94B02E4F
:102CA0009092550580925405B0925305A09252051A
:102CB00081E080939B048881998190939E04809306
:102CC0009D041092A00410929F048A819B8190938E
:102CD000A2048093A1041092A4041092A3048C81F6
:102CE0008093A5041092A6041092A9041092AA043D
:102CF0001092AE041092AD041092B0041092AF0482
:102D00001092B10486E1FE013596A6EBB4E0019085
:102D10000D928A95E1F78BE994E00E947A2BBDA889
:102D2000B0922C05AEA8A0922D05A8ADA0933005B9
:102D300089AD80932F058AAD809331058BAD80934B
:102D400032058FA980932E056CA57DA57093FA049A
:102D50006093F9048A819B819C01B3E0220F331FA9
:102D6000BA95E1F7620F731F7093FC046093FB0444
:102D700048815981FA01EE0FFF1F6E0F7F1F70937C
:102D8000FE046093FD046E0F7F1F70930005609337
:102D9000FF046E0F7F1F7093020560930105640F9F
:102DA000751F70930C0560930B052A813B81AA2344
:102DB00059F1A6E09A2E949ED001959EB00D112453
:102DC0006A0F7B1F70933E0560933D05DC01AA0FDF
:102DD000BB1FAA0FBB1F6A0F7B1F70934205609336
:102DE00041050796A3E096958795AA95E1F7680FA8
:102DF000791F7093400560933F0589AD98E0899FE6
:102E0000600D711D112408C0A6E0A49FC001A59FFC
:102E1000900D1124680F791F7093100560930F05B2
:102E200080910F0590911005BC01685F7F4F7093F2
:102E30001205609311054096909304058093030555
:102E40006C81ABE06A9F800D911D11249093060563
:102E500080930505DC01A60FB11DBD01B0930A05E5
:102E6000A0930905495F5F4FAA20B1F1295F3F4F49
:102E7000A3E036952795AA95E1F7260F371F3093E3
:102E8000340520933305B3E056954795BA95E1F79D
:102E9000240F351F3093360520933505420F531FFD
:102EA00050933805409337054E0F5F1F50933A05F6
:102EB00040933905A0912E05AE9F9001AF9F300D34
:102EC0001124420F531FBB20D9F050933C0540936F
:102ED0003B054E0F5F1F14C023E0569547952A957A
:102EE000E1F74A0F5B1FBB2059F050933C0540931C
:102EF0003B05E40FF51FF0932905E093280504C076
:102F000050932905409328052BA93CA930934905E6
:102F10002093480510924B0510924A0529EF35E1A0
:102F200030934D0520934C051092D2041092D10499
:102F30002091FB043091FC043093D6042093D504F7
:102F40004091FD045091FE045093DA044093D9045B
:102F50004091FF04509100055093E4044093E30432
:102F60007093DD046093DC04409133055091340587
:102F70005093E8044093E704409137055091380599
:102F80005093EA044093E904409141055091420571
:102F90005093EC044093EB0440912805509129058F
:102FA0005093EE044093ED049093E0048093DF048B
:102FB0008091F9049091FA049093E6048093E504DB
:102FC0003093CF042093CE0488A999A99093160535
:102FD000809315058B8D9C8D909318058093170514
:102FE0008D8D809319058E8D9F8D90931B058093F9
:102FF0001A0588A199A190931D0580931C058AA1AB
:103000009BA190931F0580931E058CA19DA1909379
:103010002105809320058EA19FA190932305809385
:1030200022058AA59BA5909327058093260588A550
:1030300099A590932505809324058AA980932A0554
:103040001092A8041092B5041092B40488E0FE0116
:10305000FC96A0EFB4E001900D928A95E1F7809183
:10306000F0049091F104909347058093460580ED1C
:1030700094E090939A048093990485E99AE290935E
:103080006D0580936C058CE699E1909351058093D2
:103090005005F701848180938F018BE994E00E94B1
:1030A000651CE0915205F0915305309709F00995A0
:1030B000C114D10419F081E0F6010995011511053B
:1030C00021F08BE994E0F8010995E091F604F09184
:1030D000F704309709F0099581E08093A50580E019
:1030E00007C083E005C082E003C084E001C086E041
:1030F000DF91CF911F910F91FF90EF90DF90CF90D4
:10310000BF90AF909F908F9008958F92AF92BF9293
:10311000CF92DF92EF92FF920F931F93CF93DF93A3
:103120009091A505913009F055C09FEF980F94300C
:1031300008F052C0283008F051C093E09E1508F402
:103140004DC097E09C1508F449C0A114B10409F4DE
:1031500045C0A0919D04B0919E04E62FF0E0EA17CF
:10316000FB0708F041C0C42FD0E0CA17DB07E0F529
:10317000C0919F04D091A004CA17DB07A8F5813045
:1031800089F1843039F4DF011197EA23FB23EF2B17
:1031900049F104C09091A504992311F1E501AC2CEB
:1031A000CE2CE02E022FD42EF62E182FE0915405AF
:1031B000F0915505309709F009958091A304888313
:1031C000812C2D2D4F2D612F8BE994E00E941D2C19
:1031D00080E00BC083E009C088E007C082E005C042
:1031E0008AE003C06417D1F287E0DF91CF911F918D
:1031F0000F91FF90EF90DF90CF90BF90AF908F90A6
:103200000895CF939091A505992359F19091A50523
:10321000943039F1843038F5C82F8BE994E00E945E
:10322000B92D90919F042091A0049093B404209311
:10323000B504CC2379F0C093AB049093AC0491E037
:103240009093A704C13019F41092870503C093E04E
:1032500090938A0191E09093A90492E09093A50540
:1032600003C083E001C082E0CF9108952091A505BD
:10327000243021F40E94062B81E008952091A505B9
:10328000223041F51092D2041092D1041092B10470
:103290009093B3048093B20460939C0450934B05C5
:1032A00040934A058BE994E00E948527882311F01A
:1032B00080E008950E94752B8091A5058430C1F7A8
:1032C00080918F018111F4CFE0917605F09177051F
:1032D0000995F2CF83E008950F931F93CF93DF9367
:1032E0002EE020939407FC01EC5AFF4F21E020834D
:1032F00020918301222309F453C03A960190F08172
:10330000E02D20915B0530915C05DC011696CD9196
:10331000DC91179750915F058901A3E0000F111F01
:10332000AA95E1F760E070E0DB01A00FB11FAE0FDE
:10333000BF1F4C91413009F0452F2F5F3F4F2C1795
:103340003D0740F140935F0530935C0520935B059A
:103350002150304E73E0220F331F7A95E1F7E20FD0
:10336000F31F258130E030935A052093590546819B
:1033700050E05093580540935705B9016F5F7F4F58
:1033800070935E0560935D052417350759F110921F
:1033900083012BC0685F7F4F4111D4CF50E0C4CF71
:1033A0002091590530915A05609157057091580543
:1033B0002617370781F040915D0550915E054F5FFC
:1033C0005F4F50935E0540935D052F5F3F4F3093F5
:1033D0005A05209359052091590530915A05261711
:1033E000370719F421E02093830110925F052091A3
:1033F0005D0530915E052150310930939807209387
:10340000970740915605411114C06091940761508F
:1034100041E050E002C0440F551F6A95E2F7509317
:10342000840540938305509386054093850510924B
:103430005605FC01ED57FF4F0190F081E02DE20FA2
:10344000F31F408140938805FC01EB57FF4F01902B
:10345000F081E02DE20FF31F408140938A054091F7
:10346000830550918405220F331FFC01EC59FF4F57
:103470000190F081E02DE20FF31F5183408340E083
:10348000BC018091970790919807DF91CF911F9190
:103490000F910C94612244B121E030E0B90102C0E7
:1034A000660F771F8A95E2F7CB01462B44B995B199
:1034B0008095892385B908956F927F928F929F920C
:1034C000AF92BF92CF92DF92EF92FF920F931F9332
:1034D000CF93DF9300D000D0CDB7DEB76B017C0176
:1034E000612C712C01E010E0862D46015701062C5D
:1034F00004C0B694A794979487940A94D2F780FE58
:1035000033C098E06916710488F46AB1F801062C9A
:1035100002C0EE0FFF1F0A94E2F7CF01962F982BFF
:103520009AB99BB1809589238BB91EC08A3088F4E3
:103530006DB18850F80102C0EE0FFF1F8A95E2F7C7
:10354000CF01962F982B9DB99EB1809589238EB976
:103550000BC08A5029833A834B835C830E944B1AA9
:103560005C814B813A812981FFEF6F1A7F0A80E1EC
:103570006816710409F0B8CFA12CB12C01E010E05D
:103580008A2D69017A010A2C04C0F694E794D79435
:10359000C7940A94D2F7C0FE4BC096E0A916B104B6
:1035A00088F467B1F8010A2C02C0EE0FFF1F0A94DD
:1035B000E2F7CF01962F982B97B998B18095892380
:1035C00088B936C0883018F46DB1845017C0803186
:1035D00088F46AB18850F80102C0EE0FFF1F8A9587
:1035E000E2F7CF01962F982B9AB99BB1809589234A
:1035F0008BB91EC0823188F46DB18051F80102C0D0
:10360000EE0FFF1F8A95E2F7CF01962F982B9DB9F9
:103610009EB1809589238EB90BC0825129833A834C
:103620004B835C830E944B1A5C814B813A812981D8
:10363000FFEFAF1ABF0A88E1A816B10409F0A0CFC6
:103640000F900F900F900F90DF91CF911F910F91DE
:10365000FF90EF90DF90CF90BF90AF909F908F90B2
:103660007F906F900895E0EEF0E08081826080832B
:103670000895E0EEF0E080818D7F808308952091B1
:10368000EE0030E0FC01318320834091EF0050E0F8
:10369000542F4427240F351F318320830895089524
:1036A0000895A19A0895A09A089584B381110C9465
:1036B000531B089584B381110C94511B0895E4E7C2
:1036C000F0E08081816080830895882321F08091DB
:1036D000E300806103C08091E3008F7E8093E3006C
:1036E00008956093F2007093F3002093F8003093F4
:1036F000F9004093FA000895EF92FF920F931F9301
:10370000CF93DF93F62E072F122FD32FC42FE090E5
:10371000E0000E94391B6091F000F62AF092F00060
:103720007091F100072B0093F1002091F400122B0F
:103730001093F4003091F500D32BD093F500409115
:10374000F600C42BC093F600E1FE08C0DF91CF91D4
:103750001F910F91FF90EF900C94331BDF91CF914D
:103760001F910F91FF90EF900C94391B1F93CF93F3
:10377000DF9300D000D01F92CDB7DEB71091E000EC
:103780002B833C834D8369837A830E94391B80910C
:10379000F0006981609568236093F0008091F100EA
:1037A0007A81709578237093F1008091F4002B81D9
:1037B000209528232093F4008091F5003C813095DA
:1037C00038233093F5008091F6004D8140954823D1
:1037D0004093F60011FF0AC00F900F900F900F90CA
:1037E0000F90DF91CF911F910C94331B0F900F908E
:1037F0000F900F900F90DF91CF911F910C94391B78
:103800008093E2000895E0EEF0E0808180618083A3
:103810000895E4EEF0E09081987F90839081877026
:10382000982B90830895E3EEF0E09081907F908351
:1038300090818F70982B908308958091E90080FD8E
:10384000FCCF08958093E5009093E60008958F7370
:103850008093E7000895E4EEF0E090819F7C9083F0
:10386000908183708295807F982B908308951F9319
:10387000CF93DF931F92CDB7DEB71091E00089831D
:103880000E94391B9091E1009C7F9093E100909100
:10389000E10089818370892B8093E10011FF06C0CC
:1038A0000F90DF91CF911F910C94331B0F90DF91FC
:1038B000CF911F910C94391BE9EEF0E0808181607B
:1038C000808308958093E80008952F923F924F924D
:1038D0005F926F927F928F929F92AF92BF92CF92A0
:1038E000DF92EF92FF920F931F93CF93DF93EC0140
:1038F000CA80DB80A12CB12C04E010E0A0E0B0E095
:1039000020E030E0A90160E070E0CB01FE01E65864
:10391000FF4F4F01AC15BD0569F1E881E11115C0FC
:10392000F401208031807501EE0CFF1CE20CF31CC9
:10393000F70140805180628073806429752986294F
:103940009729F101E00FF11F06C0F401E080F1803A
:10395000F701EA0DFB1D40805180628073802429AD
:103960003529462957291196085F1F4FF4E0AF0EFD
:10397000B11CD0CFFE01E956FF4FE081E11103C039
:103980000E947C1B03C000E00E945C1A0E94391B4D
:1039900080E00E94371C8091E0008B7F8093E000E4
:1039A0008091E000877F8093E0008091E3008F7931
:1039B0008093E3008091E3008F7E8093E30088A9E9
:1039C0008093E800DF91CF911F910F91FF90EF90CE
:1039D000DF90CF90BF90AF909F908F907F906F902F
:1039E0005F904F903F902F900C94331BCF92EF92AB
:1039F0000F93CF93DF93FC01C085D18583E0CC0F7B
:103A0000DD1F8A95E1F7DF01A25ABF4F8D919C918E
:103A10001197C80FD91F2C83C085D18593E0CC0F97
:103A2000DD1F9A95E1F78D919C911197C80FD91FD1
:103A30001B828385C085D18523E0CC0FDD1F2A95AD
:103A4000E1F72D913C911197C20FD31F8F83C08551
:103A5000D18533E0CC0FDD1F3A95E1F78D919C9134
:103A60001197C80FD91F8B81877C8B83C085D18527
:103A700053E0CC0FDD1F5A95E1F78D919C91119782
:103A8000C80FD91F0770000F000F000F8B81082B84
:103A90000B83C085D18573E0CC0FDD1F7A95E1F7EC
:103AA0008D919C911197C80FD91F6D83C085D185C9
:103AB00003E0CC0FDD1F0A95E1F78D919C911197E2
:103AC000C80FD91F4E83C085D18583E0CC0FDD1F81
:103AD0008A95E1F78D919C911197C80FD91F8B8121
:103AE0008C7F8B838085918523E0880F991F2A9591
:103AF000E1F70D90BC91A02DA80FB91F9C2D9370DC
:103B000013968C911397C82EC92A1396CC9283854D
:103B1000DF01A859BF4F0D90BC91A02D9BE0899F5C
:103B2000A00DB11D1124E294EE0C30EEE322EC92D4
:103B300083858F5F8387DF91CF910F91EF90CF9037
:103B40000895AF92BF92CF92EF920F93CF93DF93EE
:103B50005C01D62FC42F802F9C2DCE2CE92E022F56
:103B6000282FC5010E94F61CD501A25ABF4FF501AE
:103B700080859185FC0183E0EE0FFF1F8A95E1F7B8
:103B80008D919C91E80FF91F838180648383F501F7
:103B90008085918501969187808744815581CA01EE
:103BA00001964C2F50E04D1B5109480F591F55836A
:103BB0004483DF91CF910F91EF90CF90BF90AF9062
:103BC0000895AF92BF92CF92EF920F93CF93DF936E
:103BD0005C01D62FC42F802F9C2DCE2CE92E022FD6
:103BE000282FC5010E94F61CD501A25ABF4FF5012E
:103BF00080859185FC0183E0EE0FFF1F8A95E1F738
:103C00008D919C91E80FF91F838180688383F50172
:103C10008085918501969187808744815581CA016D
:103C200001964C2F50E04D1B5109480F591F5583E9
:103C30004483DF91CF910F91EF90CF90BF90AF90E1
:103C400008959C016115710509F14F5F37FD06C0AC
:103C5000442321F04150220F331FF8CF77FD04C0D9
:103C60004F5F660F771FFACF80E090E0442381F02A
:103C700097FD0CC0880F991F41502617370718F081
:103C8000261B370B019676956795F0CF8FEF9FEF48
:103C90000895FC01E25AFF4F0190F081E02D28E0E9
:103CA000629FE00DF11D11242781FC01E859FF4FAF
:103CB0000190F081E02D8BE0289FE00DF11D112493
:103CC00080818160808308953F924F925F926F92CE
:103CD0007F928F929F92AF92BF92CF92DF92EF929C
:103CE000FF920F931F93CF93DF936C01362E5C01ED
:103CF00082E6A80EB11CD5010D911C91C62FD0E013
:103D0000CC0FDD1FF801EC0FFD1F608071807E017C
:103D1000B2E0EB0EF11CF801EE0DFF1D4CE0B3011B
:103D2000808191810E94211EF601E05AFF4F808020
:103D30009180F401EE0DFF1D4CE0BC01808191816A
:103D40000E94211E2C017E01E4E0EE0EF11CF80120
:103D5000EE0DFF1D4CE0B301808191810E94211E78
:103D6000F401EE0DFF1D4CE0BC01808191810E94A9
:103D7000211E8C01632DC6010E942F30E0E6F5E084
:103D800091838083D5018D919C91C80FD91F888123
:103D90009981481A590A53824282081B190B1583CC
:103DA0000483DF91CF911F910F91FF90EF90DF90EF
:103DB000CF90BF90AF909F908F907F906F905F90CB
:103DC0004F903F900895FF920F931F93CF93DF93EF
:103DD00000D01F92CDB7DEB78C01F62E642F2B8357
:103DE0000E94641E6091600570916105E09162051A
:103DF000F0916305AE2F3F2F2B816E177F0714F4D0
:103E0000A62F372F80916405909165054A2F532F77
:103E1000841795070CF4AC01E60FF71FE80FF91FA4
:103E2000FA83E98389819A8130E0319521953109BE
:103E3000281739078CF0F80180A1882369F0E25A2D
:103E4000FF4F0190F081E02D88E0F89EE00DF11D1C
:103E5000112483818460838389819A81841B950BDB
:103E60009A83898389819A81841B950B9A8389839C
:103E700089819A81841B950B9A83898389819A8190
:103E80000F900F900F90DF91CF911F910F91FF90A6
:103E900008952F923F924F925F926F927F928F92EE
:103EA0009F92AF92BF92CF92DF92EF92FF920F93C9
:103EB0001F93CF93DF931F92CDB7DEB76C0128E03D
:103EC000629F500111244C013EE5830E911CD401E8
:103ED000ED91FC91EA0DFB1D0781402E512CBBE0BA
:103EE0000B9F800111247C0128E6E20EF11CD70112
:103EF0008D919C91DC01A00FB11F7C906581C60162
:103F00000E94641E60916005709161058091620558
:103F1000909163055091640540916505252F342FDC
:103F20006817790764F082179307B4F4562F472F68
:103F3000B9019C01852F942F212C312C10C02617FC
:103F4000370754F0562F472FBC01C901252F342FB6
:103F5000212CF0E23F2E03C0212CE0E13E2E680F21
:103F6000791F621B730B621B730B4CE0821B930B5C
:103F70000E94211E280E391EF40160817181FB010F
:103F8000EA0DFB1D2381207C203891F4C101875666
:103F9000924082339B4208F0C5C033E3231637E0DA
:103FA000330608F4B6C042E3241A47E0340AB3C02B
:103FB000AA24AA947FE2B72E80E090E372947694CC
:103FC00067E0762231E0370D432F60E071E0483042
:103FD00020F4769567954F5FFACF4B013B01A1E046
:103FE0006A1A7108353018F4660F771F04C037302D
:103FF00010F07695679540E029830E94211E298163
:104000002034D1F4D701ED91FC91E00FF11F238111
:1040100034812115B8E13B0738F0385122163306B8
:1040200058F4E0ED3E1A08C0A901585E4215530548
:1040300018F4305D34832383D701ED91FC91E00FB8
:10404000F11F208120FF05C02E7F208380E090E0BB
:1040500006C021FF04C09C0180E090E002C020E087
:1040600030E0D701ED91FC911197E00FF11F4381F2
:104070005481240F351F2216330620F080818D7F56
:10408000808309C0820D931D4817590750F0808125
:1040900082608083D701ED91FC91E00FF11F3482A3
:1040A0002382F70180819181080F191FD80113968F
:1040B0008D919C9114978115B0E39B0720F090534C
:1040C000F8019483838340E0B401C5010E94211E5E
:1040D00040E0BC01D80113968D919C9114970E94E9
:1040E000211E7724F601E659FF4F0190F081E02D63
:1040F000E40DF51D6816790608F4C3012081281720
:1041000089F08083F60186A997A9846097AB86AB76
:1041100009C0212C312C8BE9A82E81E2B82E8BE925
:1041200091E24CCF0F90DF91CF911F910F91FF90B3
:10413000EF90DF90CF90BF90AF909F908F907F9047
:104140006F905F904F903F902F900895EBE9F5E0CE
:1041500081EA9DE19183808381EE9DE19383828357
:1041600089E49FE19583848383EE9EE19783868330
:1041700089E49EE19187808708952F923F924F9224
:104180005F926F927F928F929F92AF92BF92CF92E7
:10419000DF92EF92FF920F931F93CF93DF9300D0A4
:1041A00000D0CDB7DEB77C01C0909707D0909807BC
:1041B000F6013196FC83EB83FC0182809380B0E0B2
:1041C000EC58FF4FFA83E983EB81FC81E815F90590
:1041D00070F0D0929807C0929707C0909707D09040
:1041E00098071A821982F4E7EF0EF11CB6C0B111DC
:1041F00057C0EB81FC8193E0F695E7959A95E1F73E
:104200009F01287F3770E981FA8180819181F901CE
:10421000E80FF91F30804180528063807480A58050
:10422000B68017818B818F73282E232D342D452D39
:10423000562D672D7A2D8B2D912F022D0E94013343
:10424000217030E040E050E060E070E080E090E01D
:10425000A0E00E942F33F1F021E00E94E632209589
:104260003095409550956095709580959095232157
:104270002083342131834521428365226382762263
:104280007482A722A582B822B68219231783CB8015
:10429000DC80B1E0EB81FC813196FC83EB8394CF31
:1042A000D0929807C0929707B1E097CFB1115CC048
:1042B000E981FA8183E0F695E7958A95E1F79F0118
:1042C000287F3770F70180819181F901E80FF91F8C
:1042D00030804180528063807480A580B6801781D1
:1042E00089818F73282E232D342D452D562D672D32
:1042F0007A2D8B2D912F022D0E940133217030E0F9
:1043000040E050E060E070E080E090E0A0E00E94DB
:104310002F33F1F021E00E94E63220953095409550
:104320005095609570958095909532223082432209
:104330004182542252826522638276227482A722AD
:10434000A582B822B68219231783C980DA80B1E02A
:10435000E981FA813196FA83E983E981FA81EC15E2
:10436000FD0508F4A3CF05C0D0929807C092970727
:104370000AC0D0929807C0929707B11104C09092DA
:104380009807809297070F900F900F900F90DF91F2
:10439000CF911F910F91FF90EF90DF90CF90BF9042
:1043A000AF909F908F907F906F905F904F903F90D5
:1043B0002F900895CF93DF93FC0180918C0520917D
:1043C000800530918105DF01A25ABF4F811122C0C3
:1043D000C90173E0880F991F7A95E1F74D915C91BF
:1043E000840F951FDC018C91803441F0309381055E
:1043F0002093800581E080938C0559C0B9016F5FDF
:104400007F4FCD010896408551852417350770F7F9
:104410009B01E8CFCD91DC9140919707509198078F
:10442000D90163E0AA0FBB1F6A95E1F7AC0FBD1F6E
:1044300016966C9170E04617570739F04F5F5F4F43
:10444000509398074093970739C02F5F3F4F3093A1
:10445000810520938005C90143E0880F991F4A9583
:10446000E1F78C0F9D1FDC018C91408551858034D4
:10447000A1F0309381052093800524173507B9F406
:1044800082819381909398078093970710928C056F
:10449000109281051092800511C0B9016F5F7F4FA6
:1044A000CD0108962417350720F79B01DCCF159620
:1044B0008C9190E09093980780939707DF91CF912C
:1044C0000895CF92DF92EF92FF920F931F93CF93B5
:1044D000DF938C01EB01D42E8881FB01E658FF4F5E
:1044E0007801EE0CFF1C811117C080819181F701CA
:1044F0003196EE0FFF1FEE0FFF1FE80FF91F20810F
:1045000031814281538134976081718182819381AD
:104510000E94711B88E014C00190F081E02DC80159
:10452000880F991F880F991FE80FF91F208131818B
:104530004281538160E070E0CB010E94711B8AE0F0
:104540000E94001C81E0FE01D8120EC0EF57FF4F01
:104550000190F081E02DE00FF11F80810E942B1C63
:10456000FE01E158FF4F0DC0EB57FF4F0190F08166
:10457000E02DE00FF11F80810E942B1CFE01ED5702
:10458000FF4F0190F081E02DE00FF11F80810E942C
:10459000371C88A90E94621CFE01EC59FF4F8081E4
:1045A0009181FC01EE0DFF1D808191810E94221CF2
:1045B000FE01E458FF4F0190F081E02DE00FF11F64
:1045C000E0817E01A9E8EA0EF11CD7018D919C9152
:1045D000DC01A00FB11F8C91815020F0EE23E1F39C
:1045E000E150FACFF0E0EC57FE4F80810E94271C8B
:1045F0006E01BEE7CB0ED11CF6018081813071F4D3
:1046000080E00E94651B8D85C957DF4FE881F981E5
:10461000E80FF11D80810E94131C0DC080E00E94F4
:10462000131CD6018C918250823010F481E001C0BD
:1046300080E00E94651B0E94031CF701808191812C
:10464000FC01E00FF11F8081DF91CF911F910F914D
:10465000FF90EF90DF90CF900C94091C1F920F9267
:104660000FB60F9211242F933F934F935F936F9345
:104670007F938F939F93AF93BF93EF93FF930E948A
:10468000551B81E080937B05E0919907F0919A0793
:10469000DF01A956BF4F8C91813071F52081E6581A
:1046A000FF4F8091970790919807211113C00190B7
:1046B000F081E02D33E0880F991F3A95E1F7E80F7C
:1046C000F91F248135814681578160817181828102
:1046D000938110C0880F991F880F991F0190F08156
:1046E000E02DE80FF91F208131814281538160E084
:1046F00070E0CB010E94B61B80918E058130E9F4F9
:104700008091930590919405892B51F10E94391B5A
:104710008091A505880F880F880F87608093A50575
:104720008091A605880F880F880F87608093A60563
:10473000E0919305F091940512C010929507E091D5
:104740007405F0917505309709F0099581E0809323
:104750007A05E0917205F0917305309709F009959B
:10476000FF91EF91BF91AF919F918F917F916F9149
:104770005F914F913F912F910F900FBE0F901F901F
:1047800018951F920F920FB60F9211242F933F93FB
:104790004F935F936F937F938F939F93AF93BF9349
:1047A000EF93FF930E945A1B81E080937B05109248
:1047B0009507109282058091A605843021F482E04D
:1047C0008093A60507C08091A505843019F482E086
:1047D0008093A50581E080938D05FF91EF91BF91B6
:1047E000AF919F918F917F916F915F914F913F9189
:1047F0002F910F900FBE0F901F901895EF92FF9280
:104800000F931F93CF93DF93FB01E25AFF4F23E0F7
:10481000880F991F2A95E1F70190F081E02DE80FAC
:10482000F91FA581B0E0E680F12CEB01CC58DF4FF9
:10483000EA16FB06A8F1FD0186E0F695E7958A9554
:10484000E1F793E0EE0FFF1F9A95E1F788819981D8
:10485000E80FF91F0A2F0F7321E030E040E050E02D
:1048600060E070E080E090E00E94E6321081212B51
:1048700020832181322B31832281422B4283238169
:10488000522B53832481622B64832581722B758381
:104890002681822B86838781982B97831196C8CF98
:1048A000DF91CF911F910F91FF90EF9008952F927C
:1048B0003F924F925F926F927F928F929F92AF92B0
:1048C000BF92CF92DF92EF92FF920F931F93CF93FD
:1048D000DF933C016B018A01DC018C91813029F06E
:1048E00023E9E22E27E0F22E04C096E9E92E97E0B4
:1048F000F92EF301C281D381C114D104E1F4E2584D
:10490000FF4F80818130B9F473968081882341F014
:10491000E0919505F0919605309711F0C301099546
:10492000D3011D968C9190E0019663E070E00E94A7
:10493000CA32F3018587D3011E968C91813009F02C
:10494000D3C0CD2809F0F9C0F301E157FF4F8081B2
:10495000813009F0CBC021971E0186E03694279460
:104960008A95E1F791012F5F3F4F80917F05E30129
:10497000CC58DF4F6E01813071F57997A081B181FC
:10498000E881F981E101229681E090E00C91119695
:104990001C91119712967C91129713966C91139714
:1049A00014965C91149715964C91159716963C9118
:1049B000169717962C911797189600831183728378
:1049C00063835483458336832783389601968C17F7
:1049D0009D07E1F67FC0F7011082E881F98180E050
:1049E00090E0108211821282138214821582168244
:1049F0001782389601968217930798F3A12CB12C51
:104A000000E010E02301BEE54B0E511C4301C3EB57
:104A10008C0E911CF301808591850817190738F5D4
:104A2000D201ED91FC91EA0DFB1D80818230C9F02D
:104A30008034B9F0B301C8010E94FE23E401E8818B
:104A4000F981309721F0A801B701C3010995E091E0
:104A50006A05F0916B05309721F0A301B701C801F9
:104A600009950F5F1F4FD8E0AD0EB11CD3CFE60103
:104A7000A881B981EA58FF4F0190F081E02DE10152
:104A8000229681E090E00C9111961C91119712965C
:104A90007C91129713966C91139714965C911497CE
:104AA00015964C91159716963C91169717962C9142
:104AB0001797189600831183728363835483458309
:104AC00036832783389601968C179D07E1F681E09F
:104AD00080937F05C3010E94BD2041E0B301809116
:104AE00097079091980715C0CD2839F5109298072F
:104AF00010929707C3010E94DA2180919707909145
:104B00009807F3012281338182179307C0F541E0B2
:104B1000B301DF91CF911F910F91FF90EF90DF9044
:104B2000CF90BF90AF909F908F907F906F905F904D
:104B30004F903F902F900C946122D301D6968D9187
:104B40009C91D7979360D7969C938E93D697011597
:104B50001105A9F0C301F801DF91CF911F910F91C9
:104B6000FF90EF90DF90CF90BF90AF909F908F908D
:104B70007F906F905F904F903F902F900994DF91BE
:104B8000CF911F910F91FF90EF90DF90CF90BF904A
:104B9000AF909F908F907F906F905F904F903F90DD
:104BA0002F9008958F929F92AF92BF92CF92DF92F3
:104BB000EF92FF92CF93DF93E901FB01E458FF4F9F
:104BC0000190F081E02DE40FF51FE081DB01A75794
:104BD000BF4F2D913C91D901A40FB51F2C912150AD
:104BE00020F0EE23E1F3E150FACF24E0E29FF00160
:104BF0001124E057F04F2591359145915491FE01D4
:104C0000EE27F073EF2FFF27E695E695E058F04F7B
:104C1000C590D590E590F490FE01EE27FF70B6E0C8
:104C2000F695E795BA95E1F7E05CF04F85909590A1
:104C3000A590B490C80CD91CEA1CFB1CFE01E07FB7
:104C4000FF27A3E0F695E795AA95E1F7E05EF04F20
:104C5000A591B491CA0EDB1EE11CF11CFE01EF70A0
:104C6000FF27EE0FFF1FE050F14FA591B491CA0E40
:104C7000DB1EE11CF11CFB016081613021F4DC01D1
:104C8000B250EAE005C0A0E0B2E0A81BB90BEBE02F
:104C90000E94DE32AB01BC0104C075956795579543
:104CA0004795EA95D2F74C0D5D1D6E1D7F1DAEE058
:104CB00020E030E280E090E0822B932BFC01EE2795
:104CC000F073EF2FFF27E695E695E058F04FC5907B
:104CD000D590E590F490FC01EE27FF70C6E0F695C4
:104CE000E795CA95E1F7E05CF04F85909590A59027
:104CF000B490C80CD91CEA1CFB1CFC01E07FFF2708
:104D0000D3E0F695E795DA95E1F7E05EF04FC591CF
:104D1000D491CC0EDD1EE11CF11CFC01EF70FF27CD
:104D2000EE0FFF1FE050F14FC591D491CC0EDD1E68
:104D3000E11CF11C4C155D056E057F0514F48227FE
:104D4000932736952795A15009F0B6CFDF91CF91E3
:104D5000FF90EF90DF90CF90BF90AF909F908F909B
:104D60000895CF93DF939C01FA018081813019F47B
:104D7000E059FF4F03C0FA01EE58FF4F0190F08158
:104D8000E02DC901880F991F280F391FD901AA0FDB
:104D9000BB1FAE0FBF1F2F5F3F4F220F331FEF010F
:104DA000C20FD31F8881998111969C938E932E5F99
:104DB0003F4FE20FF31F8081918199838883718334
:104DC0006083FA01E258FF4F80818D7F8130D9F4F2
:104DD0002D913C91888199818217930740F0261785
:104DE000370768F49C016817790748F407C0621711
:104DF000730728F49C018617970708F49B01211577
:104E0000310509F0B901CB01DF91CF9108950F93DE
:104E10001F93CF93DF93EC0190939A0780939907A8
:104E20008C0109561F4FF8018081882369F1888120
:104E30007D972091970730919807811113C00190B9
:104E4000F081E02D53E0220F331F5A95E1F7E20F76
:104E5000F31F248135814681578160817181828170
:104E6000938110C0220F331F220F331F0190F08156
:104E7000E02DE20FF31F208131814281538160E0F8
:104E800070E0CB010E947C1B0E945C1C80918F0112
:104E9000811136C00E941D1CF8018081882381F198
:104EA0008881C658DF4F209197073091980781116C
:104EB00012C0E881F98193E0220F331F9A95E1F740
:104EC000E20FF31F24813581468157816081718112
:104ED000828193810FC0220F331F220F331FE8817D
:104EE000F981E20FF31F208131814281538160E01B
:104EF00070E0CB01DF91CF911F910F910C94B61B05
:104F0000DF91CF911F910F910895CF93DF93EC0123
:104F10000E944F1B0E94331BFE01EF54FF4F808104
:104F20009181909377058093760580918205811118
:104F300068C00E94551B0E945A1B80918F018130CE
:104F400011F40E945F1B10929507288180919707AA
:104F500090919807FE01EF57FF4FDE01A158BF4F18
:104F6000698D7A8D0190F081E02DE80FF91F2111F4
:104F700010C0208120938B052D913C91F901E80F01
:104F8000F91F8081809389054091A7055091A8055C
:104F90000FC0208120938A052D913C91F901E80FE3
:104FA000F91F8081809388054091500550915105EB
:104FB000CE010E94572420919707309198078A814B
:104FC0009B812817390790F481E0809382058881BE
:104FD000811104C084E08093A60503C084E080931F
:104FE000A505CE010E94072780E00CC01092820523
:104FF0000E94391BC155DF4FE881F981309709F0D4
:10500000099581E0DF91CF9108950F931F93CF937E
:10501000DF93EC01FA0189014091970750919807BD
:10502000DC01A757BF4F0D90BC91A02DA40FB51F59
:105030002C919091940780917E05992309F46EC07C
:10504000FB0102C0F695E7952A95E2F720918505C8
:1050500030918605813071F4BE01CF010E94D225C6
:10506000909386058093850582E080937E0510925B
:1050700094072EC060918B0170918C016E177F0791
:1050800098F060918D0170918E01E617F70760F03E
:10509000BE01CF010E94D22590938605809385059D
:1050A00081E080937E0514C09150909394074091C5
:1050B000830550918405CA01969587959093840540
:1050C00080938305822B932B90938605809385058F
:1050D000FE01EC59FF4F808191812091850530912F
:1050E0008605A0919707B0919807AA0FBB1FA80F3C
:1050F000B91F2D933C93E0919707F0919807EE0F1D
:10510000FF1FE80FF91F808191810E94221CCE01B0
:10511000DF91CF911F910F910C940727823069F492
:105120008989882311F1309741F1AB016889CE015B
:10513000DF91CF911F910F910994BA01CE010E9486
:105140009C3223E0880F991F2A95E1F7FE01E25A6D
:10515000FF4F0190F081E02DE80FF91F80E8808378
:105160008EA99FA990629FAB8EAB0115110519F016
:10517000CE01F801099510927E05DF91CF911F9124
:105180000F910895EF92FF920F931F93CF93DF93A8
:1051900000D000D0CDB7DEB78C011A821982CE01C3
:1051A00003960E943F1BD80159962D913C915A9726
:1051B0006B817C81F801E757FF4F809197079091B1
:1051C0009807232B09F472C020813181F901E80F7F
:1051D000F91FCB01008002C0969587950A94E2F7EB
:1051E0009A83898380918B0190918C0181159440E1
:1051F00038F480918D0190918E018115944060F07A
:1052000088EC90E090938E0180938D0180E293E092
:1052100090938C0180938B01D8019C9180917E05A5
:10522000F801E555FF4F91111EC0811117C089810A
:105230009A8120918B0130918C018217930770F035
:105240002091850530918605809183059091840594
:1052500082279327909386058093850520916E057C
:1052600030916F051DC0811117C089819A812091ED
:105270008D0130918E012817390770F02091850536
:10528000309186058091830590918405822793272C
:10529000909386058093850520916C0530916D056E
:1052A00040815181C8010E94052818C10190F081F8
:1052B000E02DE80FF91F2081F801E458FF4F4081ED
:1052C0005181FA01E80FF91F8081821740F4281BF1
:1052D00002C0769567952A95E2F77C836B83F80187
:1052E000E95AFF4F0190F081E02D6B817C8130976E
:1052F00059F0C8010995609366057093670580931E
:105300006805909369050BC0CB01A0E0B0E08093E5
:10531000660590936705A0936805B09369057801C9
:10532000BDE5EB0EF11CF7018081811190C0409129
:105330006605509167055C834B83E0919905F09178
:105340009A05309751F0D801AF56BF4F8C91882302
:1053500021F060919707C80109956B817C81E091EC
:105360007005F0917105A8018091970790919807B9
:1053700009959C838B838091970590919805892B43
:1053800049F1F801EE56FF4F8081882319F16091B1
:10539000970770919807C8010E949C3290937905F5
:1053A0008093780533E0880F991F3A95E1F7F8016B
:1053B000E25AFF4FA081B181A80FB91F4B815C81D8
:1053C000E0919705F09198052C9160919707C8019D
:1053D000099502C080E090E0F801E75AFF4F019084
:1053E000F081E02D309729F06B817C81AC01C80100
:1053F00009958B819C81E0919707F0919807EE0FBA
:10540000FF1FD801A05ABF4F2D913C91E20FF31F0F
:10541000918380832091970730919807D801129645
:105420008D919C9113972817390788F41E968C91BB
:10543000813051F4F801E157FF4F8081813021F430
:10544000C8010E94BD2003C0C8010E94DA218091DA
:10545000970790919807F80122813381821793076B
:1054600091F510927905109278051092820581814C
:10547000813021F4C8010E947F2C15C080818111E8
:1054800004C082E08093A60505C0813019F482E053
:105490008093A505F80186A997A99E7F97AB86AB57
:1054A000168610927F05D80159968D919C915A9736
:1054B000892BA1F41E968C91813081F0109298076F
:1054C000109297070BC0F7012081211104C041E021
:1054D000B8010E946122C8010E940727D8018C915F
:1054E000811103C08091A60504C0813099F4809198
:1054F000A505823079F40E94391B0E94501B01558A
:105500001F4FD801ED91FC91309721F00995F801DA
:10551000118210820F900F900F900F90DF91CF911A
:105520001F910F91FF90EF900895CF93DF93EC01BF
:10553000898D9A8D01979A8F898F10928205892B78
:1055400021F4FE01EC5AFF4F1082CE010E94542C30
:10555000298D3A8D892BB1F4232BD9F08EA99FA9DF
:1055600093609FAB8EABE0915005F0915105309761
:1055700011F0CE01099581E080938205CE010E9451
:10558000072707C0232B29F082E08093A5050E94FE
:10559000762C2E85898D9A8D2130E1F40097D1F4F7
:1055A00010925E0510925D0510925C0510925B05ED
:1055B000109282058A819B81909398078093970728
:1055C0008EA99FA991609FAB8EABCE01DF91CF9149
:1055D0000C948527892B41F410925E0510925D058D
:1055E00010925C0510925B05DF91CF910895809138
:1055F0007A05813049F410927A05E0917605F091B0
:105600007705099581E0089580E0089510927B0563
:105610008091E90080FF68C08091E80090E0A0E000
:10562000B0E022E0880F991FAA1FBB1F2A95D1F76F
:10563000AC01BD0176956795579547952091E3009C
:105640002F70820F911DA11DB11D840F951FA61FE4
:10565000B71F2091E400277004C0880F991FAA1F6C
:10566000BB1F2A95D2F70E96A11DB11D2091E10016
:10567000237004C0880F991FAA1FBB1F2A95D2F759
:10568000B695A7959795879540E050E0BA0120918F
:105690007B05222321F04EEF5FEF6FEF7FEF4F5F2F
:1056A0005F4F6F4F7F4F481759076A077B0778F3A3
:1056B0004E3F5F4F6F4F7F4FB8F48091E90080FFFE
:1056C00013C01092E000000082E18093E00000002F
:1056D00081E08093E90080917C0590917D050196A1
:1056E00090937D0580937C05089510927D0510921E
:1056F0007C050895FC0140A923E030E0008002C051
:10570000369527950A94E2F7642F70E08FEF90E0CA
:10571000821B930B8617970710F0240F20AB089578
:105720000F93CF93DF93FC01C085D18583E0CC0F2D
:10573000DD1F8A95E1F7DF01A25ABF4F8D919C9141
:105740001197C80FD91F2C83C085D18593E0CC0F4A
:10575000DD1F9A95E1F78D919C911197C80FD91F84
:105760001B82C085D18523E0CC0FDD1F2A95E1F790
:105770008D919C911197C80FD91F8B81877C8B834A
:10578000C085D18533E0CC0FDD1F3A95E1F78D91CF
:105790009C911197C80FD91F4770440F440F440FB5
:1057A0008B81482B4B83C085D18543E0CC0FDD1F17
:1057B0004A95E1F78D919C911197C80FD91F6D8380
:1057C000C085D18553E0CC0FDD1F5A95E1F78D914F
:1057D0009C911197C80FD91F6E83C085D18563E056
:1057E000CC0FDD1F6A95E1F78D919C911197C80F41
:1057F000D91F8B818C7F8B838085918573E0880F87
:10580000991F7A95E1F70D90BC91A02DA80FB91FB3
:10581000037013968C911397082B13960C93808525
:1058200091850196918780878481958101969583E2
:105830008483DF91CF910F9108958F92AF92CF9291
:10584000EF920F93CF93DF93CDB7DEB7DC01962FA6
:10585000642F422F802F2E2DEC2CCA2CA82C913097
:1058600011F0943031F40E2D482FCD010E94902B71
:1058700013C0923029F4E0919B05F0919C0506C07D
:10588000933051F4E0919D05F0919E05309721F001
:10589000022F282FCD010995DF91CF910F91EF9025
:1058A000CF90AF908F900895FC0124A135A12115D0
:1058B000310599F080919105909192050196909310
:1058C0009205809391058217930758F081E090E04C
:1058D0009093900580938F0504C0109290051092CC
:1058E0008F0580918F0590919005089510929005F5
:1058F00010928F05109292051092910508958F9243
:105900009F92AF92BF92CF92DF92EF92FF920F934E
:105910001F93CF93DF93EC018E85811126C02F89D1
:10592000388D4A895B893B8B2A8B8C899D89820FB4
:10593000931F841B950B9D8B8C8B8C899D89883C38
:10594000910540F0885C91099D8B8C8B8E898F5FCF
:105950008E8BF3CF8F85882349F09E89891710F4A9
:105960001F8604C0891B8F8701C01E8AFE01E35574
:10597000FF4F0190F081E02D309719F0CE01C196D4
:1059800009951E86C884D984E12CF12C00E010E032
:10599000C801A0E0B0E08C159D05AE05BF0550F430
:1059A000602FCE010E9466309E85892B8E870F5F07
:1059B0001F4FEECFCE010E94542C8E85813019F5F9
:1059C00080918F05909190050197A1F40E94762C0B
:1059D0008EA99FA991609FAB8EAB8881813021F405
:1059E00082E08093A50528C0811126C082E08093C3
:1059F000A60522C08EA99FA991609FAB8EABCE0158
:105A00000E94852719C080917F05813011F4109282
:105A10007F058EA99FA99E7F9FAB8EAB8881813029
:105A200021F482E08093A50505C0811103C082E0C6
:105A30008093A6050E94762C8A819B81A0E0B0E02D
:105A40000796A11DB11DF3E0B695A795979587958B
:105A5000FA95D1F720E030E08E0102591F4FA901DD
:105A600060E070E0481759076A077B0750F4F801B7
:105A700040815181FA01E20FF31F10822F5F3F4FE7
:105A8000EECFC884D984E12CF12C20E030E080E016
:105A900090E0DE01A25ABF4FBE0162597F4F01E084
:105AA00010E04C01A12CB12C8C149D04AE04BF0459
:105AB00020F5ED91FC911197E20FF31F40814871A1
:105AC000C1F0FB01A080B180AC01E3E056954795A1
:105AD000EA95E1F7F501E40FF11D482F47705801F1
