:100000000C94D4070C94F1070C94F1070C94F107AD
:100010000C94F1070C94F1070C94F1070C94F10780
:100020000C94F1070C94F1070C94F1070C946F11E8
:100030000C94F1070C94F1070C94F1070C94F10760
:100040000C94F1070C94F1070C94F1070C94F10750
:100050000C94F1070C94F1070C94F1070C94F10740
:100060000C94F1070C94F1070C94F1070C94F10730
:100070000C94E2100C94F1070C9434110C94F107D9
:100080000C94F1070C94F1070C94F1070C94F10710
:100090000C94F1070C9432230C94C5230C94F107B3
:1000A0000C94F1070C94F1070C94F1070C94F107F0
:1000B0000C94F10752656C656173653A2000564FE8
:1000C0004C233A20004D455441233A2000504C41E6
:1000D00059494E4723004E414D45534554233A203C
:1000E000004C4953544E554D23004C495354494EEE
:1000F000464F23002323434C492E4C49535423009D
:10010000000000C0E0F0F0F0F0F0F0F0F0F0F0F0FF
:10011000F0F0F0E0C0000000000000FFFFFFFF0172
:10012000000000000000000001FFFFFFFF000000D2
:10013000000000FFFFFFFF80000000000000000043
:1001400080FFFFFFFF00000000000003070F0F0FFC
:100150000F0F0F0F0F0F0F0F0F0F0F0703000000F0
:100160000000000000000000000000000000E0F0BF
:10017000F0E00000000000000000000000000000AF
:10018000000000000000FFFFFFFF00000000000073
:100190000000000000000000000000000000FFFF61
:1001A000FFFF000000000000000000000000000051
:1001B000000000000000030707030000000000002B
:1001C000000000E0F0F0F0F0F0F0F0F0F0F0F0F00F
:1001D000F0F0F0E00000000000000081C1C0C0C0ED
:1001E000C0C0C0C0C0C0C0E1FFFFFFFF00000000F2
:1001F000000000FFFFFFFF87030303030303030364
:100200000303838100000000000000070F0F0F0FA1
:100210000F0F0F0F0F0F0F0F0F0F0F070000000032
:10022000000000E0F0F0F0F0F0F0F0F0F0F0F0F0AE
:10023000F0F0F0E00000000000000081C1C0C0C08C
:10024000C0C0C0C0C0C0C0E1FFFFFF7F0000000011
:1002500000000081830303030303030303030387F5
:10026000FFFFFFFE00000000000000070F0F0F0F50
:100270000F0F0F0F0F0F0F0F0F0F0F0700000000D2
:10028000000000E0F0F0F03000000000000000305E
:10029000F0F0F0E000000000000000FFFFFFFFE0D2
:1002A000C0C0C0C0C0C0C0E0FFFFFFFF0000000032
:1002B0000000000103030303030303030303030715
:1002C000FFFFFFFF00000000000000000000000032
:1002D000000000000000000C0F0F0F0700000000DE
:1002E000000000E0F0F0F0F0F0F0F0F0F0F0F0F0EE
:1002F000F0F0F0E000000000000000FFFFFFFFE171
:10030000C0C0C0C0C0C0C0C0C0C0C181000000002B
:100310000000008183030303030303030303038734
:10032000FFFFFFFF00000000000000070F0F0F0F8E
:100330000F0F0F0F0F0F0F0F0F0F0F070000000011
:10034000000000E0F0F0F0F0F0F0F0F0F0F0F0F08D
:10035000F0F0F0E000000000000000FFFFFFFFE110
:10036000C0C0C0C0C0C0C0C0C0C0C18100000000CB
:10037000000000FFFFFFFF8703030303030303875E
:10038000FFFFFFFF00000000000000070F0F0F0F2E
:100390000F0F0F0F0F0F0F0F0F0F0F0700000000B1
:1003A000000000E0F0F0F0F0F0F0F0F0F0F0F0F02D
:1003B000F0F0F0E00000000000000001010000008B
:1003C0000000000000000001FFFFFFFF0000000030
:1003D000000000000000000000000000000000001D
:1003E000FFFFFFFF00000000000000000000000011
:1003F000000000000000000C0F0F0F0700000000BD
:10040000000000E0F0F0F0F0F0F0F0F0F0F0F0F0CC
:10041000F0F0F0E0000000000000007FFFFFFFE1CF
:10042000C0C0C0C0C0C0C0E1FFFFFF3F000000006F
:10043000000000FEFFFFFF8703030303030303879E
:10044000FFFFFFFE00000000000000070F0F0F0F6E
:100450000F0F0F0F0F0F0F0F0F0F0F0700000000F0
:10046000000000E0F0F0F0F0F0F0F0F0F0F0F0F06C
:10047000F0F0F0E000000000000000FFFFFFFFE1EF
:10048000C0C0C0C0C0C0C0E1FFFFFFFF000000004F
:100490000000000103030303030303030303030733
:1004A000FFFFFFFF00000000000000000000000050
:1004B000000000000000000C0F0F0F0700000000FC
:1004C000000000000000000000000000000000002C
:1004D000000000000000000000000000000000001C
:1004E000003C7E7E7E7E3C0000000000000000009C
:1004F000000000000000000000F0F8F8F8F8F0003C
:1005000000000000000000000000000000000000EB
:1005100000000101010100000000000000000000D7
:1005200000000000000000000000000000000000CB
:1005300000000000000000000000000000000000BB
:1005400000000000000000000000000000000000AB
:10055000000000000000000000C0C0C0C0C0C0001B
:10056000000000000000000000000000000000008B
:10057000000F0F0F0F0F0F00000000000000000021
:10058000000000000000000000000000000000006B
:10059000000000000000000000000000000000005B
:1005A000000000000000000000000000000000004B
:1005B000000000000000000000000000000000003B
:1005C000000000000000000000000000000000002B
:1005D000000000000000000000000000000000001B
:1005E0000000000000000000001F1111111F00009A
:1005F00000000000000000000000000000000000FB
:1006000000000000000000000000000000000000EA
:1006100000000000000000000000000000000000DA
:1006200000000000000000000000000000000000CA
:1006300000000000000000000000000000000000BA
:1006400000000000000000000000000000000000AA
:10065000000000000000000000000000000000009A
:10066000000000000000000000000000000000008A
:10067000000000000000000000000000000000007A
:10068000000000000000000000000000000000006A
:10069000000000000000000000000000000000005A
:1006A000000000000000005F0000000700070014C9
:1006B0007F147F14242A7F2A122313086462364988
:1006C0005522500005030000001C22410000412279
:1006D0001C0014083E081408083E080800503000AA
:1006E00000080808080800606000002010080402E4
:1006F0003E5149453E00427F4000426151494621FA
:1007000041454B311814127F1027454545393C4A65
:1007100049493001710905033649494936064949B5
:10072000291E00363600000056360000081422410B
:100730000014141414140041221408020151090673
:10074000324979413E7E1111117E7F494949363E39
:10075000414141227F4141221C7F494949417F0952
:100760000909013E4149497A7F0808087F00417F15
:1007700041002040413F017F081422417F4040401A
:10078000407F020C027F7F0408107F3E4141413EC2
:100790007F090909063E4151215E7F091929464614
:1007A0004949493101017F01013F4040403F1F203D
:1007B00040201F3F4038403F63140814630708700F
:1007C00008076151494543007F4141000204081078
:1007D000200041417F0004020102044040404040AB
:1007E000000102040020545454787F4844443838AF
:1007F00044444420384444487F3854545418087EB4
:100800000901020C5252523E7F0804047800447DD4
:1008100040002040443D007F1028440000417F40BC
:10082000007C041804787C08040478384444443874
:100830007C14141408081414187C7C080404080898
:1008400054545420043F4440203C4040207C1C2011
:1008500040201C3C4030403C44281028440C505060
:10086000503C4464544C44000836410000007F0072
:100870000000413608001008081008784641467804
:10088000000000000000005F0000000700070014E7
:100890007F147F14242A7F2A1223130864623649A6
:1008A0005522500005030000001C22410000412297
:1008B0001C0014083E081408083E080800503000C8
:1008C0000008080808080060600000201008040202
:1008D000000000000000005F000000070007001497
:1008E0007F147F14242A7F2A122313086462364956
:1008F0005522500005030000001C22410000412247
:100900001C0014083E081408083E08080050300077
:1009100000080808080800606000002010080402B1
:10092000000000000000005F000000070007001446
:100930007F147F14242A7F2A122313086462364905
:1009400055225000050300007E4B4A4B42004122D5
:100950001C0014083E081408083E08080050300027
:100960000008080808080060600000201008040261
:10097000000609090600427F4000426151494621B4
:1009800041454B311814127F1027454545393C4AE3
:10099000494930017109050338565456180649492A
:1009A000291E003636000000563600000814224189
:1009B00000141414141400412214080201510906F1
:1009C0007E1111117E7F494949317F494949367F5E
:1009D00001010103603E21217F7F49494941770898
:1009E0007F087722414949367F1008047F7F10092C
:1009F000047F7F08142241403E01017F7F020C02E8
:100A00007F7F0808087F3E4141413E7F0101017F11
:100A10007F090909063E4141412201017F01012769
:100A20004848483F1E217F211E63140814633F205D
:100A3000203F60070808087F7F407F407F3F203FBE
:100A4000207F017F4848307F4830007F007F484842
:100A500030224149493E7F083E413E462919097FDF
:100A600020545454783C4A4A4A307C545428007CE0
:100A700004040404603824247C38545454186C1042
:100A80007C106C00445454287C2010087C7C21127B
:100A9000097C7C10284400403804047C7C08100841
:100AA0007C7C1010107C38444444387C0404047C62
:100AB0007C14141408384444440004047C04040CDA
:100AC0005050503C08147C140844281028443C2002
:100AD000203C600C1010107C7C407C407C3C203C16
:100AE000207C047C5050207C5020007C007C5050A6
:100AF0002028445454387C10384438485434147CEA
:100B000000000000000000000000000000000000E5
:100B100000000000000000000000000000000000D5
:100B20000000000000000000000080C040203010E5
:100B30001808884C0404040602020202020202029F
:100B40000202060404040C88081810206040C080CB
:100B50000000000000000000000000000000000095
:100B60000000000000000000000000000000000085
:100B70000000000000000000000000000000000075
:100B80000000000000000000000000000000000065
:100B90000000000000000000000000000000000055
:100BA000000000C06018080403010000000000E01D
:100BB0001C03C13C46A2701800C0E0E0F0F0E0E089
:100BC000C0800830E2060CF0030EF0800000000147
:100BD00001020418306080000000000000000000E6
:100BE0000000000000000000000000000000000005
:100BF00000000000000000000000000000000000F5
:100C000000000000000000000000000000000000E4
:100C1000000000000000000000000000000000C014
:100C2000700C030000000000000000000000001F26
:100C300070800F30D087182000070FDFFFFFFF1FE5
:100C40001F0360300F80601F84C03F0B0000000056
:100C500000000000000001031CF080000000000004
:100C60000000000000000000000000000000000084
:100C70000000000000000000000000000000000074
:100C80000000000000000000000000000000000064
:100C90000000000000000000000000000000FC0F49
:100CA0000000000000000000F0F0F00000000080F4
:100CB000E0F17334000100000000F8FFFF9FFFFE29
:100CC000C2000000010004F6F1303030303030F066
:100CD000E0C000000000000000001FF00000000065
:100CE0000000000000000000000000000000000004
:100CF00000000000000000000000000000000000F4
:100D000000000000000000000000000000000000E3
:100D100000000000000000000000000000003FF0A4
:100D20000000000000000000FFFFFFF0F8BD0F070B
:100D30000300000000000000C0FFFF8F88888BFFC9
:100D4000FFF80000000000FFFF6060E0E0E0703F9F
:100D50003F5F0000000000000000F80F00000000EE
:100D60000000000000000000000000000000000083
:100D70000000000000000000000000000000000073
:100D80000000000000000000000000000000000063
:100D90000000000000000000000000000000000152
:100DA0000E38C00000000000FFFFFF0001070F1E0B
:100DB0003CF0E0C0000000F8FFFF8B88888888883E
:100DC0009FFFFEC00000007F7F00000003071F7C24
:100DD00078600000000080E0380F01000000000093
:100DE0000000000000000000000000000000000003
:100DF00000000000000000000000000000000000F3
:100E000000000000000000000000000000000000E2
:100E100000000000000000000000000000000000D2
:100E200000000003060C182040C0800000000000F5
:100E30000000000000C0FFFF0F08080808080808AD
:100E40000809FFFFF800000000000000000000801B
:100E5000C06030180C060100000000000000000017
:100E60000000000000000000000000000000000082
:100E70000000000000000000000000000000000072
:100E80000000000000000000000000000000000062
:100E90000000000000000000000000000000000052
:100EA000000000000000000000000101020604082C
:100EB0000818101020202120206040404040404071
:100EC000602020212130101018080C0406020101B6
:100ED0000000000000000000000000000000000012
:100EE0000000000000000000000000000000000002
:100EF00000000000000000000000000000000000F2
:100F0000000043008700CA000E0151019501D8017D
:100F10001C025F02A302E6022A036D03B103F4037D
:100F20000000A3024605E9078C0A2F0DD20F7512A7
:100F30001815BB175E1A011DA41F4722EA248D272E
:100F4000000000005E1A0000BC3400001A4F0000D0
:100F500078690000D6830000349E000092B800003B
:100F6000F0D200004EED0000AC0701000A220100A3
:100F7000683C0100C656010024710100828B01000B
:100F800000000000AC070100580F0200143E0300EF
:100F900096C90400144402000A220100D68300000E
:100FA0001A4F00005E1A000011241FBECFEFD8E0D8
:100FB000DEBFCDBF12E0A0E0B1E0E4E0FDE602C09C
:100FC00005900D92A63CB107D9F727E0A6ECB2E058
:100FD00001C01D92AA3BB207E1F70E943D0E0C949E
:100FE00080360C9400002091C602223070F490915B
:100FF000C802E92FF0E0E753FD4F80832F5F209375
:10100000C6029F5F91709093C80208952091C60216
:10101000222379F09091C702E92FF0E0E753FD4FCA
:10102000808121502093C6029F5F91709093C702E8
:10103000089580E008951092D1021092D00210928B
:10104000CB021092CD02E9ECF2E0108211821092F4
:10105000C8021092C7021092C60254985C9A089572
:10106000CF93DF9329B1C091CB028091CD028093C1
:10107000CC028091D0029091D1029093CF028093C4
:10108000CE0224FD15C0893E23E0920798F5019613
:101090009093CF028093CE028B30910558F1C160BE
:1010A000893E934039F5C1FD25C0CB7FC26022C087
:1010B000C0FF0AC0C1FD08C0C2FF03C0CB7FD5E09E
:1010C00004C01092CC02C460D0E0C2FF08C080917E
:1010D000CC02873920F01092CC02CB7FD3E08C2F4A
:1010E0008370833009F4D4E01092CF021092CE02C4
:1010F000CC7F01C0D0E0C2FF07C08091CC0287390D
:1011000018F48F5F8093CC028091CC028093CD0243
:10111000DD2331F081E00E94F3078D2F0E94F30759
:101120008091CE029091CF029093D1028093D00211
:10113000C093CB02DF91CF910895CF93DF930E94AC
:1011400038120E94441280E290E00E945C128FE705
:1011500090E00E945C120E94441281E290E00E94A2
:101160005C1280E090E00E9487120E945012CCEA4C
:10117000D5E08881806788830E94441280E290E0F5
:101180000E945C1284E090E00E945C12888190E0F2
:101190000E945C120E945012EDEAF5E0808181709D
:1011A00084608E7F80830E94441280E290E00E94DF
:1011B0005C1285E090E00E945C12898190E00E94C0
:1011C0005C12DF91CF910C945012CF93DF93EC011E
:1011D000FC0101900020E9F73197E81BF90BE0933F
:1011E0007003BC018FEA95E00E947E33FE010190FE
:1011F0000020E9F73197EC1BFD0BE155FA4F8DE02C
:101200008083809170038F5F809370038091AF051E
:101210008093CE00DF91CF9108950E9406088093BD
:101220006F0380916F03882321F00E94060880934A
:101230006E0308959093CD008093CC0088ED809349
:10124000C90086E08093CA000895282FFC018E2FE4
:10125000821B861710F41192FACF0895EF92FF9235
:101260000F931F93CF93DF9300D000D0CDB7DEB79D
:101270009C011C821B8280E197E29A83898340E073
:1012800005E010E08AE0E82EF12CF9010190002041
:10129000E9F73197E21BF30B842F90E0B8016E1B46
:1012A0007F0B8617970748F489819A81B7010E94BE
:1012B000CE327A8369834F5FE8CF40E00AE010E0E6
:1012C000842F90E0F90101900020E9F73197E21BAB
:1012D000F30B8E179F07F8F4E981FA816B817C810B
:1012E000D901A80FB91F8C9190E0C0978E9FD001B3
:1012F0008F9FB00D9E9FB00D1124CD01860F971FBB
:101300009C838B8389819A81B8010E94CE327A8333
:1013100069834F5FD5CF8B819C810F900F900F9089
:101320000F90DF91CF911F910F91FF90EF90089553
:10133000CF93DF93DC01FB0180E090E048EB58EABB
:10134000EB0109900020E9F72197C61BD70B8C17FA
:101350009D0740F5208127FD03C02D93319620C0C5
:1013600030E0322F2227C1812C0F311DE901C059F5
:10137000D04DE09710F4205D06C0E901C058D14D72
:10138000609718F420592D930AC02138C0ED3C070E
:1013900011F45D9304C02139314D11F44D9332960F
:1013A0000196CECFDF91CF9108952F923F924F9229
:1013B0005F926F927F928F929F92AF92BF92CF92E5
:1013C000DF92EF92FF920F931F93CF93DF93EC0185
:1013D000E0915A03F0915B03DF01AA0FBB1FA857EE
:1013E000B94F2D903C9011979E0140E050E060E095
:1013F00070E080E090E05101C12CD12CE12CF12C67
:1014000000E010E00E942A33A0905C03B0905D03DE
:10141000C0905E03D0905F03E0906003F0906103A2
:1014200000916203109163030E94213320935C03B7
:1014300030935D0340935E0350935F0360936003BA
:101440007093610380936203909363033196F093EA
:101450005B03E0935A03CD93DC93B09721F4109291
:101460005B0310925A0305E00E940533C901DF9126
:10147000CF911F910F91FF90EF90DF90CF90BF9091
:10148000AF909F908F907F906F905F904F903F9024
:101490002F90089510926D0310926C030E948B158B
:1014A000E0919804F09199048081813099F7A485A6
:1014B000B585809170069C9190FB80F980937006B1
:1014C000A485B5859C919695917090FB81F9809348
:1014D0007006A485B5859C9192FB992790F990FBA5
:1014E00082F980937006A485B5859C9193FB99271A
:1014F00090F990FB83F9809370060484F585E02DC4
:1015000090819295917090FB84F9809370068F7111
:1015100009F0C0CF0895EF92FF921F93CF93DF930E
:1015200000D000D0CDB7DEB7182F6623E1F01F92B0
:101530008F9383EA91E09F938F93CE0101967C0174
:101540009F938F930E94A83360E088E10E94641308
:1015500040E062E0C7010E94E3140F900F900F90EB
:101560000F900F900F90812F86950E943F150F903E
:101570000F900F900F90DF91CF911F91FF90EF9000
:10158000089597FD05C08F3F910509F01CF408955B
:1015900080E008958FEF08958F929F92BF92CF922F
:1015A000DF92EF92FF920F931F93CF93DF93CDB70C
:1015B000DEB761970FB6F894DEBF0FBECDBFB82E71
:1015C000082F10E00E94D31361E080E00E948B0A94
:1015D00061E08B2D0E948B0A0E944A0A20E087EA74
:1015E000E82E81E0F82ECE0101966C0180916C030B
:1015F00090916D038835924009F4ABC0298B0E940D
:101600008B15E0919804F0919904808129898130AB
:1016100009F050C0A485B585909170068C9180FB2F
:1016200090F990937006A485B5858C9183FB8827EB
:1016300080F980FB93F990937006A485B5858C9111
:101640008695817080FB91F990937006A485B5858D
:101650008C9182FB882780F980FB92F99093700629
:101660000484F585E02D80818295817080FB94F95A
:101670009093700690FF0DC00E944A0A10926D036D
:1016800010926C0305501109C8010E94C10AB82EBE
:1016900021E08091700683FF0DC00E944A0A1092DB
:1016A0006D0310926C030B5F1F4FC8010E94C10AAB
:1016B000B82E21E08091700684FF25C010926D0342
:1016C00010926C03E0919804F09199040784F089DA
:1016D000E02D808190E0298B0E94B1120E94D509F3
:1016E0004C019924C801029729898816990624F08B
:1016F00004968815990574F4B82C882D86950E9457
:101700003F15840109C0213001F561E08B2D0E9455
:101710008B0A02C02130C9F480917003811117C077
:1017200061E08B2D0E948B0A1F92BF92FF92EF9275
:10173000DF92CF920E94A833C6010E94E5080F9065
:101740000F900F900F900F900F9020E04FCF21E05F
:101750004DCF10926D0310926C030E94D3138B2D0A
:1017600061960FB6F894DEBF0FBECDBFDF91CF916B
:101770001F910F91FF90EF90DF90CF90BF909F90BF
:101780008F900895CF93DF939F938F9385EB91E094
:101790009F938F93C8ECD6E0DF93CF930E94A8333A
:1017A000109267031092660309900020E9F72197D1
:1017B000C85CD640D0936503C09364030F900F902C
:1017C0000F900F900F900F90DF91CF9108950F938E
:1017D0001F93CF93DF93CDB7DEB766970FB6F8941C
:1017E000DEBF0FBECDBFFE013196CE0147968F0101
:1017F0001192E817F907E1F76091660370916703AA
:101800006853794F45E150E0C8010E94993362E086
:1018100081E00E94641340E060E0C8010E94E3148C
:10182000809166039091670301969093670380937C
:10183000660320916403309165038217930721F4B6
:10184000109267031092660366960FB6F894DEBF97
:101850000FBECDBFDF91CF911F910F910895CF9310
:10186000DF93682F80E00E946413C0E8D0E068E155
:1018700080E40E9431132197D1F7DF91CF91089531
:10188000CF92DF92EF92FF920F931F93CF93DF934C
:1018900000D000D0CDB7DEB78C0164EB70E00E94C1
:1018A0005933009771F0BC01675F7F4F43E150E00F
:1018B00082E796E00E9485338091A7078460809339
:1018C000A70761EE70E0C8010E945933892B29F007
:1018D000809171068F5F8093710664EF70E0C8019C
:1018E0000E945933892B49F08091A60786FD05C0D7
:1018F0008091A60780648093A6076AEE70E0C80115
:101900000E9459337C01009791F06CE270E00E94D4
:1019100073339701215F3F4FAC01421B530BB7015B
:10192000605F7F4F8FEC95E00E94853375C066ED58
:1019300070E0C8010E9459337C01892B59F164E0A1
:10194000CE0101960E9425098AE0E80EF11C60E2B2
:1019500070E0C7010E9473336C01AC014E195F093E
:1019600055274F5F5F4FB701CE0101960E94853327
:10197000CE0101960E942E098093E505B6016F5FA6
:101980007F4F8FEC95E00E947E338091A6078068A0
:101990008093A6076DEC70E0C8010E945933892B33
:1019A00029F08091A60782608093A60765EC70E01D
:1019B000C8010E9459337C01892B89F064E682E4D6
:1019C00097E00E942509B701695F7F4F82E497E0A5
:1019D0000E947E338091A60784608093A6076EEBF9
:1019E00070E0C8010E9459330097B1F02091A6071A
:1019F00024FD12C0BC016A5F7F4FCE0101960E9498
:101A00007E33CE0101960E942E098093AE0580910F
:101A1000A60780618093A6070F900F900F900F90FC
:101A2000DF91CF911F910F91FF90EF90DF90CF90BA
:101A300008950F931F93CF93DF931F92CDB7DEB717
:101A40008C0181E049830E946413498160E0C801F0
:101A50000F90DF91CF911F910F910C94E31480911F
:101A6000A7078B7F8093A7078EEC91E00E94E50883
:101A70008091A70782FD13C08091A70781FFF8CF4F
:101A80008FEE95E00E94400C60E88FEE95E00E949A
:101A900025098091A7078D7F8093A707E9CF87E06D
:101AA0000E947B1340E067E082E796E00C94190DFA
:101AB0008091A6078E7F8093A607399A41985C9AF9
:101AC00087E490E00E941A097894419A2FEF8FEAF8
:101AD00091E0215080409040E1F700C000000E945A
:101AE0009D080E941B080E94031480E00E941615A6
:101AF000109280008FEF9AE1909389008093880084
:101B000082E08093810010928200109285001092F2
:101B1000840080936F000E94E2154C9940C04C9B5A
:101B2000FECF41E067E08AED91E00E94190D85E06B
:101B300090E00E941A092FEF8FE593E0215080403A
:101B40009040E1F700C000008FED91E00E94E508B1
:101B50002FEF8FE593E0215080409040E1F700C0E7
:101B600000008CEE91E00E94E5082FEF8FE593E0F6
:101B7000215080409040E1F700C000008BEF91E0E1
:101B80000E94E5082FEF8FE593E0215080409040C0
:101B9000E1F700C000008CE092E00E94E5082FEF22
:101BA0008FE395E6215080409040E1F700C00000AF
:101BB00087E00E947B130E94D31340E067E085E139
:101BC00092E00E94190D8091A6078D7F8093A60751
:101BD0008091A60781FD13C08091A70781FFF8CFF0
:101BE0008FEE95E00E94400C60E88FEE95E00E9439
:101BF00025098091A7078D7F8093A707E9CF0E94D1
:101C00002F0D2FEF8FE793E4215080409040E1F7B4
:101C100000C0000087E00E947B1340E067E08BE299
:101C200092E00E94190D109271068091A6078F7B99
:101C30008093A60781E492E00E94E5088091A607C0
:101C400086FD13C08091A70781FFF8CF8FEE95E046
:101C50000E94400C60E88FEE95E00E94250980917B
:101C6000A7078D7F8093A707E9CF0E94D31381E058
:101C70000E942F0C83E00C942F0CCF93DF93CDB7F1
:101C8000DEB7C257D1090FB6F894DEBF0FBECDBF85
:101C90004E0125E6820E911C8CE0E7E9F1E0D401CB
:101CA00001900D928A95E1F70E94580D8091A60748
:101CB0008F7B8093A607212C312C8CE3C82ED12C4E
:101CC0009AE4A92E92E0B92E8E010F5F1F4F2AE8E9
:101CD000E22E22E0F22E3EE9632E32E0732E48EE31
:101CE000442E43E0542E0E940D098091A70781FFE6
:101CF0000EC08FEE95E00E94400C60E88FEE95E0FC
:101D00000E9425098091A7078D7F8093A707809166
:101D10006F03813009F04FC080916E03833009F06A
:101D20004AC08091A60780FD3DC0239486E0281616
:101D300011F0211008C087E00E947B131092690304
:101D40001092680337C0F401E20DF11DE20DF11DA0
:101D500080819181909369038093680380916803E7
:101D6000909169032091680330916903B6010E9444
:101D7000CE329F938F93C901B6010E94CE327F93DA
:101D80006F93BF92AF921F930F930E94A83341E0CD
:101D900067E0C8010E94190D0FB6F894DEBF0FBEB0
:101DA000CDBF09C08091A6078E7F8093A607419A78
:101DB0000E94580D212C80916F03813031F4809165
:101DC0006E03853011F40E942F0D80916F038130D6
:101DD000A9F480916E03843089F441E067E080E6E5
:101DE00092E00E94190D86E792E00E94E50880913A
:101DF000A6078D7F8093A6070E94580D80916803E7
:101E000090916903892B39F18091A70783FF23C043
:101E10008091680390916903209168033091690370
:101E2000B6010E94CE329F938F93C901B6010E94E2
:101E3000CE327F936F93BF92AF921F930F930E9406
:101E4000A83340E067E0C8010E94190D0FB6F8946E
:101E5000DEBF0FBECDBF8091A70780FF09C081E81C
:101E600092E00E94E5088091A7078E7F8093A707E4
:101E70008091A60780FF14C064E682E497E00E9488
:101E800025090E94D31380E00E9416159FEFAFE54D
:101E9000B3E09150A040B040E1F700C0000041988D
:101EA0008091A60787FF1CC080E00E947B1360E042
:101EB00081E00E94641364E6C8010E9425096FEC6A
:101EC00075E0C8010E94980940E060E0C8010E94E6
:101ED000E3148091A6078F778093A6073090E505DD
:101EE0008091A60786FF22C080E00E947B1360E0FD
:101EF00080E00E9464136FEF80E40E94311360E081
:101F000081E00E94641364E6C8010E9425096FEC19
:101F100075E0C8010E94980941E060E0C8010E9494
:101F2000E3148091A6078F7B8093A6078091A60774
:101F300082FF12C0F8011192E815F905E1F762E499
:101F400077E0C8010E949809C8010E94C20B8091E5
:101F5000A6078B7F8093A6078091A60785FF0BC0FD
:101F60008091A60780FD07C00E94E70B8091A6071D
:101F70008F7D8093A6078091A60780FF0E948B1516
:101F8000E0919804F09199048081813009F0ABCE02
:101F90008091A60780FDA7CEA485B58580917006A7
:101FA0009C9190FB80F980937006A485B5859C91E7
:101FB0009695917090FB81F980937006A485B58504
:101FC0009C9192FB992790F990FB82F9809370067F
:101FD000A485B5859C9193FB992790F990FB83F993
:101FE000809370060484F585E02D90819295917020
:101FF00090FB84F98093700684FF14C08091AE0535
:102000000E94CC0A8093AE05809170038111FCCFB1
:1020100081E892E00E94E50881E00E942F0C83E0B5
:102020000E942F0C8091700680FF47C00E944A0AD0
:102030003A9437FE03C0309071063A94809171064D
:102040001F928F93232D032C000C330BC901019693
:102050009F938F93FF92EF921F930F93E2962FAF70
:10206000E297E3963FAFE3970E94A83340E067E032
:10207000C8010E94190D8091A6078F7B8093A60747
:102080008FEF9BE60197F1F700C00000E3963FADAC
:10209000E3973F933F927F926F921F930F930E941B
:1020A000A833C8010E94E50850926B0340926A036E
:1020B0000FB6F894DEBF0FBECDBF8091700681FFD2
:1020C0000AC00E944A0A8DEA92E00E94C20B8EEA80
:1020D00092E00E94E5088091700682FF21C00E9474
:1020E0004A0A8DEA92E00E94C20B832D032C000C59
:1020F000990B9F933F92A7EBB2E0BF93AF931F93CF
:102100000F930E94A833C8010E94E50810926B0348
:1021100010926A030F900F900F900F900F900F90F6
:102120008091700683FFDFCD0E944A0A339480912C
:102130007106232D032C000C330B90E02817390770
:1021400009F4312C809171061F928F93232D032C5B
:10215000000C330BC90101969F938F93FF92EF926E
:102160001F930F93E2962FAFE297E3963FAFE3976B
:102170000E94A83340E067E0C8010E94190D8091D9
:10218000A6078F7B8093A6078FEF9BE60197F1F759
:1021900000C00000E3963FADE3973F933F927F92EC
:1021A0006F921F930F930E94A833C8010E94E50805
:1021B00050926B0340926A030FB6F894DEBF0FBED5
:1021C000CDBF91CD1F920F920FB60F9211242F9376
:1021D0003F934F935F936F937F938F939F93AF93AF
:1021E000BF93EF93FF939091CE00809159039D3060
:1021F00021F02091A70721FF06C090E0AFEEB5E0E7
:10220000E9EDF2E00BC0E82FF0E0E752FD4F9083DC
:1022100087FD19C08F5F8093590315C09F01295D09
:102220003240281739071CF421912D93F7CF60E82D
:1022300089ED92E00E9425098091A7078260809332
:10224000A70710925903FF91EF91BF91AF919F9112
:102250008F917F916F915F914F913F912F910F904F
:102260000FBE0F901F9018951F920F920FB60F92EE
:1022700011242F933F934F935F936F937F938F938B
:102280009F93AF93BF93EF93FF93E091D802EF5FDB
:10229000E093D80280917003E8130AC01092D8022C
:1022A0001092700360E28FEA95E00E94250906C053
:1022B000F0E0E155FA4F80818093CE00FF91EF91DD
:1022C000BF91AF919F918F917F916F915F914F914E
:1022D0003F912F910F900FBE0F901F9018951F9256
:1022E0000F920FB60F9211242F933F934F935F934A
:1022F0006F937F938F939F93AF93BF93EF93FF93CE
:10230000B09A10928500109284000E94300880914B
:10231000680390916903892B31F18091D6029091E5
:10232000D7020196883C910529F09093D7028093BB
:10233000D60219C01092D7021092D6028091A70738
:1023400088608093A7078091680390916903019743
:102350009093690380936803892B29F48091A607E1
:1023600081608093A60780916A0390916B03892B0B
:1023700081F080916A0390916B03019790936B03B6
:1023800080936A03892B29F48091A7078160809349
:10239000A70780916C0390916D038835924048F4B3
:1023A00080916C0390916D03019690936D038093DF
:1023B0006C038091D4029091D50201969093D5023E
:1023C0008093D4024E9749F48091A607806280934F
:1023D000A6071092D5021092D4028091D202909159
:1023E000D3022091AB073091AC078217930791F489
:1023F00021E02093AF072091AD073091AE07820F07
:10240000931F9093AE078093AD071092D302109262
:10241000D20205C001969093D3028093D202FF911D
:10242000EF91BF91AF919F918F917F916F915F914C
:102430004F913F912F910F900FBE0F901F901895C5
:1024400000000197E9F70895459A81E090E00C9427
:1024500020123C9A81E090E00C9420123C9881E09C
:1024600090E00C942012459881E090E00C942012AA
:1024700044984598459844983D9A3C980E94241267
:102480000E9429120C942E120E9424120E942E12D5
:102490000E9424120E9429120E9433120C942E12C0
:1024A0000E9433120E9429120E9424120E942912B3
:1024B0000E9424120C942E120F931F93CF93DF933C
:1024C0008C01C8E0D0E00E94331207FF03C00E94D5
:1024D0002E1202C00E9429120E942412000F111F06
:1024E000219789F70E9433120E942E120E94241213
:1024F000C6B10E9433128C2F82958F7091E089278C
:10250000817090E0DF91CF911F910F910895EF922C
:10251000FF920F931F93CF93DF937C010E9433129E
:102520000E942E1208E010E0C0E0D0E0CC0FDD1FCA
:102530000E942412349921960E94331201501109ED
:10254000A9F7EF2811F00E9429120E9424120E947C
:102550003312CE01DF91CF911F910F91FF90EF9039
:1025600008950F931F93CF93DF93009711F481E0A9
:1025700090E020910401309105012C5F3F4FA901AB
:10258000455753404C30510514F025E733E0309364
:10259000050120930401E0910401F091050193836A
:1025A00082836081718120910001309101012E1799
:1025B0003F0721F47093010160930001A091000195
:1025C000B091010143E050E020E031E0E9010D91DC
:1025D0001C9111970E171F0719F411967C936E9397
:1025E00012960D911C9113970817190740F48881D2
:1025F000998191838083F983E88380E090E0E90109
:1026000028813981D3E0A137BD0741F4F9018281E6
:102610009381DF91CF911F910F910895CD91DC911E
:102620001197088119810E171F0711F479836883A8
:102630000A811B810817190748F48D919C91119705
:1026400091838083ED93FC9380E090E0A3E0C13719
:10265000DA07E1F2A881B9814150510909F0B7CFF9
:10266000D5CF1F93CF93DF931F92CDB7DEB7182F2F
:1026700069830E94441288E790E00E945C12812FD7
:1026800090E00E945C126981862F90E00E945C12AB
:102690000F90DF91CF911F910C945012811102C0C5
:1026A00066EA04C0813021F467EA80E00C943113BB
:1026B0000895811102C06EEA04C0813021F46FEAEE
:1026C00080E00C9431130895CF93C82F8093A8070E
:1026D0006093AA07605580E00E9431136C2F6F70E1
:1026E00080E00E9431136C2F62956F70606180E012
:1026F000CF910C943113CF93DF93D82FC0E06D2F7F
:102700008C2F0E94641360E080E40E943113CF5F3D
:10271000C038A9F7DF91CF9108950F931F93CF93FE
:10272000DF938C01809382030E94441288E790E03B
:102730000E945C1280E490E00E945C1285E0809F21
:10274000E001819FD00D1124C050DA4F15E0809137
:10275000A907FE01882329F0849190E08095909547
:1027600002C0849190E00E945C12115021961111D8
:10277000EECF8091A907882319F08FEF90E002C077
:1027800080E090E00E945C120E9450128091A807A5
:102790008B5F813808F085E08093A807DF91CF91A7
:1027A0001F910F910895EF92FF920F931F93CF9374
:1027B000DF9360E080E00E94641300E014E0E12C0D
:1027C000F12CC0E0D0E080E290E00E948D132196D1
:1027D000C138D10548F08FEFE81AF80A6E2D80E075
:1027E0000E946413C0E0D0E00150110961F785E058
:1027F0008093A8071092AA07DF91CF911F910F91A4
:10280000FF90EF9008950E94381280E00E945913C3
:102810008FEF9BE60197F1F700C0000065ED80E0C7
:102820000E94311360E880E00E94311368EA80E082
:102830000E9431136FE380E00E94311363ED80E06A
:102840000E94311360E080E00E94311360E480E078
:102850000E9431136DE880E00E94311364E180E052
:102860000E94311360EA80E00E94311360EC80E046
:102870000E9431136AED80E00E94311362E180E032
:102880000E94311360E280E00E94311360E080E03A
:102890000E94311361E880E00E94311360E880E01B
:1028A0000E94311369ED80E00E94311361EF80E0F6
:1028B0000E9431136BED80E00E94311360E480E0F0
:1028C0000E94311364EA80E00E94311380E00E948C
:1028D0004E136FEA80E00E9431130E94D31360E030
:1028E00080E00E9464139CEC2CE084E09150204036
:1028F0008040E1F700C00895EF92FF920F931F937D
:10290000CF93DF93E090AA078E3239F0803239F00E
:10291000833439F0C0EDC80F05C0CBE003C0CCE074
:1029200001C0CDE00E94441288E790E00E945C1252
:1029300080E490E00E945C1280E6C89FE0011124D0
:1029400000E010E0F12CF801EC0FFD1FE050FF4F0C
:10295000849190E00E945C1286E18F15B0F40E9491
:1029600050128091AA0761E0680F8091A8070E9429
:1029700064130E94441288E790E00E945C1280E495
:1029800090E00E945C12F12C01C0F3940F5F1F4F86
:1029900000361105C1F60E9450128091A807895E89
:1029A0008093A8076E2D0E9464138091A807813838
:1029B00018F085E08093A807DF91CF911F910F91C8
:1029C000FF90EF9008950F931F93CF93DF93FC0137
:1029D000C62F4093A907D5E08081882311F1C1114A
:1029E0000FC08091A80785508C3710F0D093A807AE
:1029F0008F010F5F1F4F808190E00E948D130FC0E9
:102A0000C23051F78091A8078851893610F0D093D1
:102A1000A8078F010F5F1F4F80810E947C14F8016F
:102A2000DBCFDF91CF911F910F910895FF920F930C
:102A30001F93CF93DF93F82E60E080E00E94641331
:102A4000C0E0DBE000E010E0F11005C0FE016491A1
:102A500080E40E9431131F5F17FF06C00F5F602FD5
:102A600080E00E94641310E02196FFE0C030DF0791
:102A700059F7DF91CF911F910F91FF900895EF9239
:102A8000FF920F931F93CF93C82F87FDCFE700913D
:102A900081030C1728F000918103C017D0F011C0FA
:102AA00010E0EC2EF12C0E151F05ACF767E0802F1F
:102AB0000E9464136FEF80E40E9431130F5F1F4F79
:102AC000F2CFC0938103CF911F910F91FF90EF90B0
:102AD000089510E0EC2EF12CE016F10694F767E073
:102AE000802F0E94641360E080E40E943113015043
:102AF0001109F2CFE0919804F091990481819281BB
:102B000090FD08C081E08083818192819093B1071C
:102B10008093B0070895E0919804F0919904818121
:102B200092810E94FB2A9091AF07913081F481112C
:102B30000EC08091AD079091AE074AE755E161E084
:102B40000E943A19811104C01092AF07089580E0E5
:102B50000895AF92BF92CF92EF920F93CF93DF93EE
:102B60001F92CDB7DEB7CE0101965C0187E0C82E7B
:102B7000EE24E3940AE020E040E060E081E00E947F
:102B8000891820E041E061E081E00E94891820E09E
:102B900042E062E081E00E94891820E043E063E0C7
:102BA00081E00E94891820E046E064E083E00E9412
:102BB00089180F90DF91CF910F91EF90CF90BF9038
:102BC000AF9008950F931F9384E190E09093AC072A
:102BD0008093AB0700E010E020E030E040E050E000
:102BE0006AEA70E286E091E00E9412160E94A9153E
:102BF00080E01F910F910C94051980919B04813006
:102C000039F4E0915305F0915405309709F0099596
:102C100085EB96E29093700580936F058AE994E0C6
:102C20000C94C6288F929F92AF92BF92CF92DF9260
:102C3000EF92FF920F931F93CF93DF93FC01892BA9
:102C400019F0C281D38102C0C0E0D0E08091A40518
:102C500081114BC2309709F44AC2209709F447C248
:102C600088819981892B09F444C28A819B81892BAF
:102C700009F43FC28CA59DA5009709F43AC2AEA500
:102C8000BFA5109709F435C2FD846894EE24E2F8DC
:102C9000EF1408F430C269015A014B017F01AD0104
:102CA00060E070E00E94B42E90925405809253052B
:102CB000B0925205A092510581E080939A048881D8
:102CC000998190939D0480939C0410929F0410928C
:102CD0009E048A819B819093A1048093A00410920A
:102CE000A3041092A2048C818093A4041092A504E2
:102CF0001092A8041092A9041092AD041092AC0492
:102D00001092AF041092AE041092B00486E1FE015E
:102D10003596A5EBB4E001900D928A95E1F78AE92A
:102D200094E00E947E2BBDA8B0922B05AEA8A09285
:102D30002C05A8ADA0932F0589AD80932E058AADF3
:102D4000809330058BAD809331058FA980932D053D
:102D50006CA57DA57093F9046093F8048A819B812A
:102D60009C01B3E0220F331FBA95E1F7620F731F86
:102D70007093FB046093FA0448815981FA01EE0FC5
:102D8000FF1F6E0F7F1F7093FD046093FC046E0F96
:102D90007F1F7093FF046093FE046E0F7F1F70937C
:102DA000010560930005640F751F70930B05609318
:102DB0000A052A813B81AA2359F1A6E09A2E949E06
:102DC000D001959EB00D11246A0F7B1F70933D05B5
:102DD00060933C05DC01AA0FBB1FAA0FBB1F6A0F43
:102DE0007B1F70934105609340050796A3E096957D
:102DF0008795AA95E1F7680F791F70933F05609357
:102E00003E0589AD98E0899F600D711D112408C0B1
:102E1000A6E0A49FC001A59F900D1124680F791F03
:102E200070930F0560930E0580910E0590910F052C
:102E3000BC01685F7F4F7093110560931005409649
:102E400090930305809302056C81ABE06A9F800D2F
:102E5000911D11249093050580930405DC01A60FB4
:102E6000B11DBD01B0930905A0930805495F5F4FEF
:102E7000AA20B1F1295F3F4FA3E036952795AA9587
:102E8000E1F7260F371F3093330520933205B3E067
:102E900056954795BA95E1F7240F351F30933505C0
:102EA00020933405420F531F509337054093360546
:102EB0004E0F5F1F5093390540933805A0912D05A3
:102EC000AE9F9001AF9F300D1124420F531FBB20C6
:102ED000D9F050933B0540933A054E0F5F1F14C045
:102EE00023E0569547952A95E1F74A0F5B1FBB20D3
:102EF00059F050933B0540933A05E40FF51FF093CA
:102F00002805E093270504C0509328054093270522
:102F10002BA93CA9309348052093470510924A05F8
:102F2000109249052DEF35E130934C0520934B0568
:102F30001092D1041092D0042091FA043091FB0435
:102F40003093D5042093D4044091FC045091FD04A7
:102F50005093D9044093D8044091FE045091FF044B
:102F60005093E3044093E2047093DC046093DB0429
:102F700040913205509133055093E7044093E604A5
:102F800040913605509137055093E9044093E80489
:102F900040914005509141055093EB044093EA0461
:102FA00040912705509128055093ED044093EC047F
:102FB0009093DF048093DE048091F8049091F904EB
:102FC0009093E5048093E4043093CE042093CD04E1
:102FD00088A999A990931505809314058B8D9C8DD4
:102FE00090931705809316058D8D809318058E8D0F
:102FF0009F8D90931A058093190588A199A19093AC
:103000001C0580931B058AA19BA190931E058093AC
:103010001D058CA19DA19093200580931F058EA175
:103020009FA190932205809321058AA59BA590934B
:1030300026058093250588A599A59093240580935E
:1030400023058AA9809329051092A7041092B4043D
:103050001092B30488E0FE01FC96AFEEB4E001905C
:103060000D928A95E1F78091EF049091F00490938E
:103070004605809345058FEC94E0909399048093E6
:10308000980489E99AE290936C0580936B0580E738
:1030900099E19093500580934F05F70184818093C7
:1030A00096018AE994E00E94691CE0915105F09133
:1030B0005205309709F00995C114D10419F081E047
:1030C000F60109950115110521F08AE994E0F8014E
:1030D0000995E091F504F091F604309709F009950F
:1030E00081E08093A40580E007C083E005C082E012
:1030F00003C084E001C086E0DF91CF911F910F9162
:10310000FF90EF90DF90CF90BF90AF909F908F9007
:1031100008958F92AF92BF92CF92DF92EF92FF927B
:103120000F931F93CF93DF939091A405913009F0F3
:1031300055C09FEF980F943008F052C0283008F027
:1031400051C093E09E1508F44DC097E09C1508F41B
:1031500049C0A114B10409F445C0A0919C04B091E8
:103160009D04E62FF0E0EA17FB0708F041C0C42FEA
:10317000D0E0CA17DB07E0F5C0919E04D0919F0410
:10318000CA17DB07A8F5813089F1843039F4DF01F3
:103190001197EA23FB23EF2B49F104C09091A4047B
:1031A000992311F1E501AC2CCE2CE02E022FD42E68
:1031B000F62E182FE0915305F0915405309709F041
:1031C00009958091A2048883812C2D2D4F2D612F8C
:1031D0008AE994E00E94212C80E00BC083E009C0C2
:1031E00088E007C082E005C08AE003C06417D1F21E
:1031F00087E0DF91CF911F910F91FF90EF90DF90CB
:10320000CF90BF90AF908F900895CF939091A405E9
:10321000992359F19091A405943039F1843038F50F
:10322000C82F8AE994E00E94BD2D90919E042091C0
:103230009F049093B3042093B404CC2379F0C093FB
:10324000AA049093AB0491E09093A604C13019F4C2
:103250001092860503C093E09093910191E09093C2
:10326000A80492E09093A40503C083E001C082E02B
:10327000CF9108952091A405243021F40E940A2BB7
:1032800081E008952091A405223041F51092D104E7
:103290001092D0041092B0049093B2048093B104C1
:1032A00060939B0450934A05409349058AE994E052
:1032B0000E948927882311F080E008950E94792BCD
:1032C0008091A4058430C1F7809196018111F4CFDB
:1032D000E0917505F09176050995F2CF83E00895A8
:1032E0000F931F93CF93DF932EE02093B307FC013E
:1032F000EC5AFF4F21E0208320918A01222309F418
:1033000053C03A960190F081E02D20915A053091FA
:103310005B05DC011696CD91DC91179750915E0507
:103320008901A3E0000F111FAA95E1F760E070E0AA
:10333000DB01A00FB11FAE0FBF1F4C91413009F050
:10334000452F2F5F3F4F2C173D0740F140935E05FF
:1033500030935B0520935A052150304E73E0220FC5
:10336000331F7A95E1F7E20FF31F258130E03093A8
:10337000590520935805468150E0509357054093D6
:103380005605B9016F5F7F4F70935D0560935C05D3
:103390002417350759F110928A012BC0685F7F4FBF
:1033A0004111D4CF50E0C4CF209158053091590538
:1033B00060915605709157052617370781F04091A7
:1033C0005C0550915D054F5F5F4F50935D054093E5
:1033D0005C052F5F3F4F309359052093580520918E
:1033E0005805309159052617370719F421E0209325
:1033F0008A0110925E0520915C0530915D05215097
:1034000031093093B7072093B60740915505411114
:1034100014C06091B307615041E050E002C0440F16
:10342000551F6A95E2F750938305409382055093A8
:1034300085054093840510925505FC01ED57FF4F1B
:103440000190F081E02DE20FF31F4081409387054A
:10345000FC01EB57FF4F0190F081E02DE20FF31FCD
:103460004081409389054091820550918305220F48
:10347000331FFC01EC59FF4F0190F081E02DE20F6A
:10348000F31F5183408340E0BC018091B6079091C7
:10349000B707DF91CF911F910F910C94652244B132
:1034A00021E030E0B90102C0660F771F8A95E2F78C
:1034B000CB01462B44B995B18095892385B90895F0
:1034C0006F927F928F929F92AF92BF92CF92DF9234
:1034D000EF92FF920F931F93CF93DF9300D000D012
:1034E000CDB7DEB76B017C01612C712C01E010E0DF
:1034F000862D46015701062C04C0B694A7949794D4
:1035000087940A94D2F780FE33C098E0691671045C
:1035100088F46AB1F801062C02C0EE0FFF1F0A946E
:10352000E2F7CF01962F982B9AB99BB1809589230A
:103530008BB91EC08A3088F46DB18850F80102C082
:10354000EE0FFF1F8A95E2F7CF01962F982B9DB9BA
:103550009EB1809589238EB90BC08A5029833A8306
:103560004B835C830E944F1A5C814B813A81298195
:10357000FFEF6F1A7F0A80E16816710409F0B8CF77
:10358000A12CB12C01E010E08A2D69017A010A2CEE
:1035900004C0F694E794D794C7940A94D2F7C0FE77
:1035A0004BC096E0A916B10488F467B1F8010A2C63
:1035B00002C0EE0FFF1F0A94E2F7CF01962F982B5F
:1035C00097B998B18095892388B936C0883018F4A6
:1035D0006DB1845017C0803188F46AB18850F80109
:1035E00002C0EE0FFF1F8A95E2F7CF01962F982BAE
:1035F0009AB99BB1809589238BB91EC0823188F41A
:103600006DB18051F80102C0EE0FFF1F8A95E2F7FD
:10361000CF01962F982B9DB99EB1809589238EB9A5
:103620000BC0825129833A834B835C830E944F1ADB
:103630005C814B813A812981FFEFAF1ABF0A88E193
:10364000A816B10409F0A0CF0F900F900F900F9023
:10365000DF91CF911F910F91FF90EF90DF90CF906E
:10366000BF90AF909F908F907F906F900895E0EE05
:10367000F0E08081826080830895E0EEF0E0808158
:103680008D7F808308952091EE0030E0FC0131832E
:1036900020834091EF0050E0542F4427240F351F22
:1036A00031832083089508950895A19A0895A09ADA
:1036B000089584B381110C94571B089584B381112C
:1036C0000C94551B0895E4E7F0E0808181608083CD
:1036D0000895882321F08091E300806103C08091E8
:1036E000E3008F7E8093E30008956093F20070936F
:1036F000F3002093F8003093F9004093FA00089506
:10370000EF92FF920F931F93CF93DF93F62E072F25
:10371000122FD32FC42FE090E0000E943D1B609138
:10372000F000F62AF092F0007091F100072B009360
:10373000F1002091F400122B1093F4003091F50069
:10374000D32BD093F5004091F600C42BC093F60024
:10375000E1FE08C0DF91CF911F910F91FF90EF9094
:103760000C94371BDF91CF911F910F91FF90EF9039
:103770000C943D1B1F93CF93DF9300D000D01F927A
:10378000CDB7DEB71091E0002B833C834D83698376
:103790007A830E943D1B8091F000698160956823C7
:1037A0006093F0008091F1007A8170957823709396
:1037B000F1008091F4002B81209528232093F400C0
:1037C0008091F5003C81309538233093F50080914D
:1037D000F6004D81409548234093F60011FF0AC042
:1037E0000F900F900F900F900F90DF91CF911F913E
:1037F0000C94371B0F900F900F900F900F90DF914C
:10380000CF911F910C943D1B8093E2000895E0EE50
:10381000F0E08081806180830895E4EEF0E09081A3
:10382000987F908390818770982B90830895E3EE22
:10383000F0E09081907F908390818F70982B90839F
:1038400008958091E90080FDFCCF08958093E50004
:103850009093E60008958F738093E7000895E4EE57
:10386000F0E090819F7C9083908183708295807F2F
:10387000982B908308951F93CF93DF931F92CDB71A
:10388000DEB71091E00089830E943D1B9091E1001A
:103890009C7F9093E1009091E10089818370892B56
:1038A0008093E10011FF06C00F90DF91CF911F912F
:1038B0000C94371B0F90DF91CF911F910C943D1BFF
:1038C000E9EEF0E080818160808308958093E800D4
:1038D00008952F923F924F925F926F927F928F92B4
:1038E0009F92AF92BF92CF92DF92EF92FF920F938F
:1038F0001F93CF93DF93EC01CA80DB80A12CB12C06
:1039000004E010E0A0E0B0E020E030E0A90160E0D9
:1039100070E0CB01FE01E658FF4F4F01AC15BD052D
:1039200069F1E881E11115C0F40120803180750151
:10393000EE0CFF1CE20CF31CF7014080518062800A
:1039400073806429752986299729F101E00FF11FF9
:1039500006C0F401E080F180F701EA0DFB1D408014
:103960005180628073802429352946295729119670
:10397000085F1F4FF4E0AF0EB11CD0CFFE01E95637
:10398000FF4FE081E11103C00E94801B03C000E0F3
:103990000E94601A0E943D1B80E00E943B1C8091A7
:1039A000E0008B7F8093E0008091E000877F809330
:1039B000E0008091E3008F798093E3008091E30041
:1039C0008F7E8093E30088A98093E800DF91CF91F8
:1039D0001F910F91FF90EF90DF90CF90BF90AF902D
:1039E0009F908F907F906F905F904F903F902F901F
:1039F0000C94371BCF92EF920F93CF93DF93FC0180
:103A0000C085D18583E0CC0FDD1F8A95E1F7DF010A
:103A1000A25ABF4F8D919C911197C80FD91F2C832B
:103A2000C085D18593E0CC0FDD1F9A95E1F78D918C
:103A30009C911197C80FD91F1B828385C085D185A2
:103A400023E0CC0FDD1F2A95E1F72D913C911197D2
:103A5000C20FD31F8F83C085D18533E0CC0FDD1F0C
:103A60003A95E1F78D919C911197C80FD91F8B81E1
:103A7000877C8B83C085D18553E0CC0FDD1F5A95A1
:103A8000E1F78D919C911197C80FD91F0770000F16
:103A9000000F000F8B81082B0B83C085D18573E04D
:103AA000CC0FDD1F7A95E1F78D919C911197C80F8E
:103AB000D91F6D83C085D18503E0CC0FDD1F0A952A
:103AC000E1F78D919C911197C80FD91F4E83C08546
:103AD000D18583E0CC0FDD1F8A95E1F78D919C9114
:103AE0001197C80FD91F8B818C7F8B83808591851F
:103AF00023E0880F991F2A95E1F70D90BC91A02D26
:103B0000A80FB91F9C2D937013968C911397C82EF4
:103B1000C92A1396CC928385DF01A859BF4F0D9017
:103B2000BC91A02D9BE0899FA00DB11D1124E294B2
:103B3000EE0C30EEE322EC9283858F5F8387DF917A
:103B4000CF910F91EF90CF900895AF92BF92CF9207
:103B5000EF920F93CF93DF935C01D62FC42F802F6A
:103B60009C2DCE2CE92E022F282FC5010E94FA1C75
:103B7000D501A25ABF4FF50180859185FC0183E0F4
:103B8000EE0FFF1F8A95E1F78D919C91E80FF91FC9
:103B9000838180648383F501808591850196918777
:103BA000808744815581CA0101964C2F50E04D1BFE
:103BB0005109480F591F55834483DF91CF910F91CD
:103BC000EF90CF90BF90AF900895AF92BF92CF92F9
:103BD000EF920F93CF93DF935C01D62FC42F802FEA
:103BE0009C2DCE2CE92E022F282FC5010E94FA1CF5
:103BF000D501A25ABF4FF50180859185FC0183E074
:103C0000EE0FFF1F8A95E1F78D919C91E80FF91F48
:103C1000838180688383F5018085918501969187F2
:103C2000808744815581CA0101964C2F50E04D1B7D
:103C30005109480F591F55834483DF91CF910F914C
:103C4000EF90CF90BF90AF9008959C0161157105E2
:103C500009F14F5F37FD06C0442321F04150220F88
:103C6000331FF8CF77FD04C04F5F660F771FFACF81
:103C700080E090E0442381F097FD0CC0880F991FED
:103C800041502617370718F0261B370B01967695FB
:103C90006795F0CF8FEF9FEF0895FC01E25AFF4F39
:103CA0000190F081E02D28E0629FE00DF11D1124CC
:103CB0002781FC01E859FF4F0190F081E02D8BE056
:103CC000289FE00DF11D112480818160808308957B
:103CD0003F924F925F926F927F928F929F92AF929C
:103CE000BF92CF92DF92EF92FF920F931F93CF93E9
:103CF000DF936C01362E5C0182E6A80EB11CD50163
:103D00000D911C91C62FD0E0CC0FDD1FF801EC0FF8
:103D1000FD1F608071807E01B2E0EB0EF11CF801A6
:103D2000EE0DFF1D4CE0B301808191810E94251EA4
:103D3000F601E05AFF4F80809180F401EE0DFF1DE7
:103D40004CE0BC01808191810E94251E2C017E01E6
:103D5000E4E0EE0EF11CF801EE0DFF1D4CE0B301A6
:103D6000808191810E94251EF401EE0DFF1D4CE023
:103D7000BC01808191810E94251E8C01632DC601AA
:103D80000E943330EFE5F5E091838083D5018D917A
:103D90009C91C80FD91F88819981481A590A53826A
:103DA0004282081B190B15830483DF91CF911F9169
:103DB0000F91FF90EF90DF90CF90BF90AF909F90CA
:103DC0008F907F906F905F904F903F900895FF92FB
:103DD0000F931F93CF93DF9300D01F92CDB7DEB721
:103DE0008C01F62E642F2B830E94681E60915F0564
:103DF00070916005E0916105F0916205AE2F3F2F53
:103E00002B816E177F0714F4A62F372F809163053F
:103E1000909164054A2F532F841795070CF4AC0139
:103E2000E60FF71FE80FF91FFA83E98389819A816A
:103E300030E0319521953109281739078CF0F801C8
:103E400080A1882369F0E25AFF4F0190F081E02DB4
:103E500088E0F89EE00DF11D112483818460838346
:103E600089819A81841B950B9A83898389819A81A0
:103E7000841B950B9A83898389819A81841B950B76
:103E80009A83898389819A810F900F900F90DF9197
:103E9000CF911F910F91FF9008952F923F924F92D3
:103EA0005F926F927F928F929F92AF92BF92CF92CA
:103EB000DF92EF92FF920F931F93CF93DF931F92A6
:103EC000CDB7DEB76C0128E0629F500111244C0190
:103ED0003EE5830E911CD401ED91FC91EA0DFB1D92
:103EE0000781402E512CBBE00B9F800111247C01E7
:103EF00028E6E20EF11CD7018D919C91DC01A00F08
:103F0000B11F7C906581C6010E94681E60915F05AB
:103F100070916005809161059091620550916305F3
:103F200040916405252F342F6817790764F08217B4
:103F30009307B4F4562F472FB9019C01852F942F76
:103F4000212C312C10C02617370754F0562F472F3D
:103F5000BC01C901252F342F212CF0E23F2E03C0D4
:103F6000212CE0E13E2E680F791F621B730B621B50
:103F7000730B4CE0821B930B0E94251E280E391EEA
:103F8000F40160817181FB01EA0DFB1D2381207C1E
:103F9000203891F4C1018756924082339B4208F049
:103FA000C5C033E3231637E0330608F4B6C042E356
:103FB000241A47E0340AB3C0AA24AA947FE2B72E99
:103FC00080E090E37294769467E0762231E0370DDA
:103FD000432F60E071E0483020F4769567954F5F9D
:103FE000FACF4B013B01A1E06A1A7108353018F491
:103FF000660F771F04C0373010F07695679540E064
:1040000029830E94251E29812034D1F4D701ED9106
:10401000FC91E00FF11F238134812115B8E13B07AA
:1040200038F038512216330658F4E0ED3E1A08C035
:10403000A901585E4215530518F4305D348323837B
:10404000D701ED91FC91E00FF11F208120FF05C009
:104050002E7F208380E090E006C021FF04C09C01F9
:1040600080E090E002C020E030E0D701ED91FC91CB
:104070001197E00FF11F43815481240F351F221641
:10408000330620F080818D7F808309C0820D931DCF
:104090004817590750F0808182608083D701ED91E5
:1040A000FC91E00FF11F34822382F701808191811E
:1040B000080F191FD80113968D919C9114978115A3
:1040C000B0E39B0720F09053F8019483838340E092
:1040D000B401C5010E94251E40E0BC01D801139621
:1040E0008D919C9114970E94251E7724F601E65924
:1040F000FF4F0190F081E02DE40DF51D6816790663
:1041000008F4C3012081281789F08083F60186A96D
:1041100097A9846097AB86AB09C0212C312C8BE921
:10412000A82E81E2B82E8BE991E24CCF0F90DF915F
:10413000CF911F910F91FF90EF90DF90CF90BF90A4
:10414000AF909F908F907F906F905F904F903F9037
:104150002F900895EAE9F5E085EA9DE19183808357
:1041600085EE9DE1938382838DE49FE19583848333
:1041700087EE9EE1978386838DE49EE19187808719
:1041800008952F923F924F925F926F927F928F92FB
:104190009F92AF92BF92CF92DF92EF92FF920F93D6
:1041A0001F93CF93DF9300D000D0CDB7DEB77C0153
:1041B000C090B607D090B707F6013196FC83EB8329
:1041C000FC0182809380B0E0EC58FF4FFA83E983D2
:1041D000EB81FC81E815F90570F0D092B707C09229
:1041E000B607C090B607D090B7071A821982F4E7D5
:1041F000EF0EF11CB6C0B11157C0EB81FC8193E00A
:10420000F695E7959A95E1F79F01287F3770E98148
:10421000FA8180819181F901E80FF91F3080418096
:10422000528063807480A580B68017818B818F73E4
:10423000282E232D342D452D562D672D7A2D8B2D8F
:10424000912F022D0E940533217030E040E050E0B4
:1042500060E070E080E090E0A0E00E943333F1F095
:1042600021E00E94EA322095309540955095609566
:1042700070958095909523212083342131834521A9
:1042800042836522638276227482A722A582B822A5
:10429000B68219231783CB80DC80B1E0EB81FC81EF
:1042A0003196FC83EB8394CFD092B707C092B607C8
:1042B000B1E097CFB1115CC0E981FA8183E0F69556
:1042C000E7958A95E1F79F01287F3770F701808194
:1042D0009181F901E80FF91F30804180528063809D
:1042E0007480A580B680178189818F73282E232D35
:1042F000342D452D562D672D7A2D8B2D912F022D86
:104300000E940533217030E040E050E060E070E052
:1043100080E090E0A0E00E943333F1F021E00E94C1
:10432000EA3220953095409550956095709580952E
:104330009095322230824322418254225282652259
:10434000638276227482A722A582B822B6821923BC
:104350001783C980DA80B1E0E981FA813196FA8366
:10436000E983E981FA81EC15FD0508F4A3CF05C0C6
:10437000D092B707C092B6070AC0D092B707C092D2
:10438000B607B11104C09092B7078092B6070F909C
:104390000F900F900F90DF91CF911F910F91FF9091
:1043A000EF90DF90CF90BF90AF909F908F907F90D5
:1043B0006F905F904F903F902F900895CF93DF9331
:1043C000FC0180918B0520917F0530918005DF01F4
:1043D000A25ABF4F811122C0C90173E0880F991FF3
:1043E0007A95E1F74D915C91840F951FDC018C91DA
:1043F000803441F03093800520937F0581E08093E5
:104400008B0559C0B9016F5F7F4FCD01089640857C
:1044100051852417350770F79B01E8CFCD91DC91CA
:104420004091B6075091B707D90163E0AA0FBB1FAF
:104430006A95E1F7AC0FBD1F16966C9170E04617B8
:10444000570739F04F5F5F4F5093B7074093B60758
:1044500039C02F5F3F4F3093800520937F05C901FE
:1044600043E0880F991F4A95E1F78C0F9D1FDC01EF
:104470008C91408551858034A1F030938005209344
:104480007F0524173507B9F4828193819093B7078C
:104490008093B60710928B051092800510927F05CD
:1044A00011C0B9016F5F7F4FCD0108962417350702
:1044B00020F79B01DCCF15968C9190E09093B70785
:1044C0008093B607DF91CF910895CF92DF92EF925C
:1044D000FF920F931F93CF93DF938C01EB01D42EA8
:1044E0008881FB01E658FF4F7801EE0CFF1C81111B
:1044F00017C080819181F7013196EE0FFF1FEE0FFB
:10450000FF1FE80FF91F20813181428153813497C9
:1045100060817181828193810E94751B88E014C043
:104520000190F081E02DC801880F991F880F991F15
:10453000E80FF91F208131814281538160E070E0F2
:10454000CB010E94751B8AE00E94041C81E0FE01E1
:10455000D8120EC0EF57FF4F0190F081E02DE00F11
:10456000F11F80810E942F1CFE01E158FF4F0DC0FA
:10457000EB57FF4F0190F081E02DE00FF11F80819C
:104580000E942F1CFE01ED57FF4F0190F081E02D9E
:10459000E00FF11F80810E943B1C88A90E94661CCD
:1045A000FE01EC59FF4F80819181FC01EE0DFF1D52
:1045B000808191810E94261CFE01E458FF4F0190EA
:1045C000F081E02DE00FF11FE0817E01A9E8EA0E05
:1045D000F11CD7018D919C91DC01A00FB11F8C9132
:1045E000815020F0EE23E1F3E150FACFF0E0E557FF
:1045F000FE4F80810E942B1C6E01BEE7CB0ED11CAA
:10460000F6018081813071F480E00E94691B8D8504
:10461000C957DF4FE881F981E80FF11D80810E94C1
:10462000171C0DC080E00E94171CD6018C9182508F
:10463000823010F481E001C080E00E94691B0E947A
:10464000071CF70180819181FC01E00FF11F80813F
:10465000DF91CF911F910F91FF90EF90DF90CF905E
:104660000C940D1C1F920F920FB60F9211242F93D2
:104670003F934F935F936F937F938F939F93AF93EA
:10468000BF93EF93FF930E94591B81E080937A05BB
:10469000E091B807F091B907DF01A956BF4F8C919F
:1046A000813071F52081E658FF4F8091B6079091D7
:1046B000B707211113C00190F081E02D33E0880F7E
:1046C000991F3A95E1F7E80FF91F2481358146815A
:1046D0005781608171818281938110C0880F991FF9
:1046E000880F991F0190F081E02DE80FF91F2081BC
:1046F00031814281538160E070E0CB010E94BA1B9E
:1047000080918D058130E9F4809192059091930517
:10471000892B51F10E943D1B8091A405880F880FC1
:10472000880F87608093A4058091A505880F880F66
:10473000880F87608093A505E0919205F09193051D
:1047400012C01092B407E0917305F0917405309790
:1047500009F0099581E080937905E0917105F09168
:104760007205309709F00995FF91EF91BF91AF91D4
:104770009F918F917F916F915F914F913F912F9179
:104780000F900FBE0F901F9018951F920F920FB6AB
:104790000F9211242F933F934F935F936F937F93C7
:1047A0008F939F93AF93BF93EF93FF930E945E1BF2
:1047B00081E080937A051092B40710928105809170
:1047C000A505843021F482E08093A50507C080917F
:1047D000A405843019F482E08093A40581E08093DD
:1047E0008C05FF91EF91BF91AF919F918F917F9138
:1047F0006F915F914F913F912F910F900FBE0F904E
:104800001F901895EF92FF920F931F93CF93DF9312
:10481000FB01E25AFF4F23E0880F991F2A95E1F729
:104820000190F081E02DE80FF91FA581B0E0E6804E
:10483000F12CEB01CC58DF4FEA16FB06A8F1FD0185
:1048400086E0F695E7958A95E1F793E0EE0FFF1F76
:104850009A95E1F788819981E80FF91F0A2F0F7364
:1048600021E030E040E050E060E070E080E090E087
:104870000E94EA321081212B20832181322B318347
:104880002281422B42832381522B53832481622B2A
:1048900064832581722B75832681822B8683878191
:1048A000982B97831196C8CFDF91CF911F910F91CD
:1048B000FF90EF9008952F923F924F925F926F92E8
:1048C0007F928F929F92AF92BF92CF92DF92EF92A0
:1048D000FF920F931F93CF93DF933C016B018A01EB
:1048E000DC018C91813029F022EBE22E27E0F22EC0
:1048F00004C095EBE92E97E0F92EF301C281D38134
:10490000C114D104E1F4E258FF4F80818130B9F441
:1049100073968081882341F0E0919405F09195058C
:10492000309711F0C3010995D3011D968C9190E049
:10493000019663E070E00E94CE32F3018587D301D7
:104940001E968C91813009F0D3C0CD2809F0F9C0B2
:10495000F301E157FF4F8081813009F0CBC02197EF
:104960001E0186E0369427948A95E1F791012F5F26
:104970003F4F80917E05E301CC58DF4F6E018130BF
:1049800071F57997A081B181E881F981E1012296E1
:1049900081E090E00C9111961C91119712967C91F8
:1049A000129713966C91139714965C911497159621
:1049B0004C91159716963C91169717962C91179730
:1049C00018960083118372836383548345833683EF
:1049D0002783389601968C179D07E1F67FC0F70173
:1049E0001082E881F98180E090E0108211821282C9
:1049F00013821482158216821782389601968217C6
:104A0000930798F3A12CB12C00E010E02301BEE540
:104A10004B0E511C4301C3EB8C0E911CF30180859E
:104A200091850817190738F5D201ED91FC91EA0D2F
:104A3000FB1D80818230C9F08034B9F0B301C80118
:104A40000E940224E401E881F981309721F0A80155
:104A5000B701C3010995E0916905F0916A053097A6
:104A600021F0A301B701C80109950F5F1F4FD8E0DE
:104A7000AD0EB11CD3CFE601A881B981EA58FF4F32
:104A80000190F081E02DE101229681E090E00C910F
:104A900011961C91119712967C91129713966C9116
:104AA000139714965C91149715964C91159716963A
:104AB0003C91169717962C9117971896008311839F
:104AC00072836383548345833683278338960196A4
:104AD0008C179D07E1F681E080937E05C3010E945B
:104AE000C12041E0B3018091B6079091B70715C08E
:104AF000CD2839F51092B7071092B607C3010E946E
:104B0000DE218091B6079091B707F30122813381AE
:104B100082179307C0F541E0B301DF91CF911F9158
:104B20000F91FF90EF90DF90CF90BF90AF909F904C
:104B30008F907F906F905F904F903F902F900C944C
:104B40006522D301D6968D919C91D7979360D79685
:104B50009C938E93D69701151105A9F0C301F80116
:104B6000DF91CF911F910F91FF90EF90DF90CF9049
:104B7000BF90AF909F908F907F906F905F904F907D
:104B80003F902F900994DF91CF911F910F91FF904B
:104B9000EF90DF90CF90BF90AF909F908F907F90DD
:104BA0006F905F904F903F902F9008958F929F92BB
:104BB000AF92BF92CF92DF92EF92FF92CF93DF93AB
:104BC000E901FB01E458FF4F0190F081E02DE40F73
:104BD000F51FE081DB01A757BF4F2D913C91D90113
:104BE000A40FB51F2C91215020F0EE23E1F3E150EA
:104BF000FACF24E0E29FF0011124E057F04F259115
:104C0000359145915491FE01EE27F073EF2FFF2768
:104C1000E695E695E058F04FC590D590E590F49074
:104C2000FE01EE27FF70B6E0F695E795BA95E1F73D
:104C3000E05CF04F85909590A590B490C80CD91C7D
:104C4000EA1CFB1CFE01E07FFF27A3E0F695E79539
:104C5000AA95E1F7E05EF04FA591B491CA0EDB1E74
:104C6000E11CF11CFE01EF70FF27EE0FFF1FE0506B
:104C7000F14FA591B491CA0EDB1EE11CF11CFB01A2
:104C80006081613021F4DC01B250EAE005C0A0E0AF
:104C9000B2E0A81BB90BEBE00E94E232AB01BC0111
:104CA00004C07595679557954795EA95D2F74C0DD1
:104CB0005D1D6E1D7F1DAEE020E030E280E090E0E3
:104CC000822B932BFC01EE27F073EF2FFF27E69545
:104CD000E695E058F04FC590D590E590F490FC0132
:104CE000EE27FF70C6E0F695E795CA95E1F7E05C20
:104CF000F04F85909590A590B490C80CD91CEA1CF3
:104D0000FB1CFC01E07FFF27D3E0F695E795DA95E1
:104D1000E1F7E05EF04FC591D491CC0EDD1EE11CB1
:104D2000F11CFC01EF70FF27EE0FFF1FE050F14F69
:104D3000C591D491CC0EDD1EE11CF11C4C155D0516
:104D40006E057F0514F48227932736952795A15089
:104D500009F0B6CFDF91CF91FF90EF90DF90CF9029
:104D6000BF90AF909F908F900895CF93DF939C0159
:104D7000FA018081813019F4E059FF4F03C0FA0134
:104D8000EE58FF4F0190F081E02DC901880F991F67
:104D9000280F391FD901AA0FBB1FAE0FBF1F2F5FEE
:104DA0003F4F220F331FEF01C20FD31F888199811C
:104DB00011969C938E932E5F3F4FE20FF31F8081DD
:104DC00091819983888371836083FA01E258FF4F50
:104DD00080818D7F8130D9F42D913C91888199819A
:104DE0008217930740F02617370768F49C0168176D
:104DF000790748F407C06217730728F49C018617E7
:104E0000970708F49B012115310509F0B901CB0181
:104E1000DF91CF9108950F931F93CF93DF93EC0110
:104E20009093B9078093B8078C0109561F4FF8017A
:104E30008081882369F188817D972091B607309120
:104E4000B707811113C00190F081E02D53E0220FCC
:104E5000331F5A95E1F7E20FF31F24813581468114
:104E60005781608171818281938110C0220F331F2D
:104E7000220F331F0190F081E02DE20FF31F2081FC
:104E800031814281538160E070E0CB010E94801B40
:104E90000E94601C80919601811136C00E94211CE5
:104EA000F8018081882381F18881C658DF4F2091E5
:104EB000B6073091B707811112C0E881F98193E0FC
:104EC000220F331F9A95E1F7E20FF31F24813581FA
:104ED0004681578160817181828193810FC0220F49
:104EE000331F220F331FE881F981E20FF31F208166
:104EF00031814281538160E070E0CB01DF91CF913D
:104F00001F910F910C94BA1BDF91CF911F910F91BC
:104F10000895CF93DF93EC010E94531B0E94371B2F
:104F2000FE01EF54FF4F808191819093760580932D
:104F3000750580918105811168C00E94591B0E94EE
:104F40005E1B80919601813011F40E94631B1092C8
:104F5000B40728818091B6079091B707FE01EF57FB
:104F6000FF4FDE01A158BF4F698D7A8D0190F0810E
:104F7000E02DE80FF91F211110C0208120938A0530
:104F80002D913C91F901E80FF91F808180938805EC
:104F90004091A6055091A7050FC020812093890557
:104FA0002D913C91F901E80FF91F808180938705CD
:104FB00040914F0550915005CE010E945B242091F5
:104FC000B6073091B7078A819B812817390790F47B
:104FD00081E0809381058881811104C084E0809301
:104FE000A50503C084E08093A405CE010E940B2791
:104FF00080E00CC0109281050E943D1BC155DF4F1F
:10500000E881F981309709F0099581E0DF91CF912E
:1050100008950F931F93CF93DF93EC01FA01890159
:105020004091B6075091B707DC01A757BF4F0D90CD
:10503000BC91A02DA40FB51F2C919091B307809126
:105040007D05992309F46EC0FB0102C0F695E79532
:105050002A95E2F72091840530918505813071F41D
:10506000BE01CF010E94D6259093850580938405CB
:1050700082E080937D051092B3072EC0609192016B
:10508000709193016E177F0798F060919401709171
:105090009501E617F70760F0BE01CF010E94D62503
:1050A000909385058093840581E080937D0514C0ED
:1050B00091509093B3074091820550918305CA01A6
:1050C000969587959093830580938205822B932BE9
:1050D0009093850580938405FE01EC59FF4F8081F4
:1050E00091812091840530918505A091B607B091FA
:1050F000B707AA0FBB1FA80FB91F2D933C93E091D0
:10510000B607F091B707EE0FFF1FE80FF91F808178
:1051100091810E94261CCE01DF91CF911F910F91AA
:105120000C940B27823069F48989882311F1309718
:1051300041F1AB016889CE01DF91CF911F910F91B1
:105140000994BA01CE010E94A03223E0880F991F72
:105150002A95E1F7FE01E25AFF4F0190F081E02D20
:10516000E80FF91F80E880838EA99FA990629FAB0A
:105170008EAB0115110519F0CE01F80109951092B9
:105180007D05DF91CF911F910F910895EF92FF92CE
:105190000F931F93CF93DF9300D000D0CDB7DEB72E
:1051A0008C011A821982CE0103960E94431BD801FA
:1051B00059962D913C915A976B817C81F801E75764
:1051C000FF4F8091B6079091B707232B09F472C067
:1051D00020813181F901E80FF91FCB01008002C065
:1051E000969587950A94E2F79A8389838091920134
:1051F000909193018115944038F48091940190919D
:1052000095018115944060F088EC90E090939501B1
:105210008093940180E293E09093930180939201B4
:10522000D8019C9180917D05F801E555FF4F9111C2
:105230001EC0811117C089819A81209192013091FD
:1052400093018217930770F02091840530918505B2
:1052500080918205909183058227932790938505FD
:105260008093840520916D0530916E051DC08111DC
:1052700017C089819A812091940130919501281756
:10528000390770F020918405309185058091820561
:1052900090918305822793279093850580938405B9
:1052A00020916B0530916C0540815181C8010E94AD
:1052B000092818C10190F081E02DE80FF91F208125
:1052C000F801E458FF4F40815181FA01E80FF91FBE
:1052D0008081821740F4281B02C0769567952A9535
:1052E000E2F77C836B83F801E95AFF4F0190F0816C
:1052F000E02D6B817C81309759F0C801099560934E
:1053000065057093660580936705909368050BC0EB
:10531000CB01A0E0B0E08093650590936605A09373
:105320006705B09368057801BDE5EB0EF11CF70148
:105330008081811190C040916505509166055C8324
:105340004B83E0919805F0919905309751F0D80181
:10535000AF56BF4F8C91882321F06091B607C801EA
:1053600009956B817C81E0916F05F0917005A80132
:105370008091B6079091B70709959C838B838091A4
:10538000960590919705892B49F1F801EE56FF4F4C
:105390008081882319F16091B6077091B707C80121
:1053A0000E94A032909378058093770533E0880FB0
:1053B000991F3A95E1F7F801E25AFF4FA081B181B8
:1053C000A80FB91F4B815C81E0919605F09197057C
:1053D0002C916091B607C801099502C080E090E069
:1053E000F801E75AFF4F0190F081E02D309729F046
:1053F0006B817C81AC01C80109958B819C81E09116
:10540000B607F091B707EE0FFF1FD801A05ABF4FA4
:105410002D913C91E20FF31F918380832091B60779
:105420003091B707D80112968D919C911397281748
:10543000390788F41E968C91813051F4F801E157B8
:10544000FF4F8081813021F4C8010E94C12003C038
:10545000C8010E94DE218091B6079091B707F8013C
:10546000228133818217930791F51092780510926B
:105470007705109281058181813021F4C8010E9455
:10548000832C15C08081811104C082E08093A50522
:1054900005C0813019F482E08093A405F80186A943
:1054A00097A99E7F97AB86AB168610927E05D80192
:1054B00059968D919C915A97892BA1F41E968C91A7
:1054C000813081F01092B7071092B6070BC0F70138
:1054D0002081211104C041E0B8010E946522C80169
:1054E0000E940B27D8018C91811103C08091A505E2
:1054F00004C0813099F48091A405823079F40E942F
:105500003D1B0E94541B01551F4FD801ED91FC918A
:10551000309721F00995F801118210820F900F90B9
:105520000F900F90DF91CF911F910F91FF90EF900F
:105530000895CF93DF93EC01898D9A8D01979A8F0F
:10554000898F10928105892B21F4FE01EC5AFF4FBF
:105550001082CE010E94582C298D3A8D892BB1F4EE
:10556000232BD9F08EA99FA993609FAB8EABE091BE
:105570004F05F0915005309711F0CE01099581E06B
:1055800080938105CE010E940B2707C0232B29F0B1
:1055900082E08093A4050E947A2C2E85898D9A8DB5
:1055A0002130E1F40097D1F410925D0510925C0572
:1055B00010925B0510925A05109281058A819B8199
:1055C0009093B7078093B6078EA99FA991609FAB70
:1055D0008EABCE01DF91CF910C948927892B41F4BA
:1055E00010925D0510925C0510925B0510925A05B1
:1055F000DF91CF91089580917905813049F410921F
:105600007905E0917505F0917605099581E0089599
:1056100080E0089510927A058091E90080FF68C0CB
:105620008091E80090E0A0E0B0E022E0880F991FB0
:10563000AA1FBB1F2A95D1F7AC01BD0176956795CE
:10564000579547952091E3002F70820F911DA11D62
:10565000B11D840F951FA61FB71F2091E40027706E
:1056600004C0880F991FAA1FBB1F2A95D2F70E9658
:10567000A11DB11D2091E100237004C0880F991F66
:10568000AA1FBB1F2A95D2F7B695A7959795879520
:1056900040E050E0BA0120917A05222321F04EEF3C
:1056A0005FEF6FEF7FEF4F5F5F4F6F4F7F4F481799
:1056B00059076A077B0778F34E3F5F4F6F4F7F4F65
:1056C000B8F48091E90080FF13C01092E000000060
:1056D00082E18093E000000081E08093E900809106
:1056E0007B0590917C05019690937C0580937B05CA
:1056F000089510927C0510927B050895FC0140A945
:1057000023E030E0008002C0369527950A94E2F746
:10571000642F70E08FEF90E0821B930B8617970742
:1057200010F0240F20AB08950F93CF93DF93FC016B
:10573000C085D18583E0CC0FDD1F8A95E1F7DF01BD
:10574000A25ABF4F8D919C911197C80FD91F2C83DE
:10575000C085D18593E0CC0FDD1F9A95E1F78D913F
:105760009C911197C80FD91F1B82C085D18523E05A
:10577000CC0FDD1F2A95E1F78D919C911197C80FF1
:10578000D91F8B81877C8B83C085D18533E0CC0F7B
:10579000DD1F3A95E1F78D919C911197C80FD91FA4
:1057A0004770440F440F440F8B81482B4B83C085B7
:1057B000D18543E0CC0FDD1F4A95E1F78D919C9197
:1057C0001197C80FD91F6D83C085D18553E0CC0FC9
:1057D000DD1F5A95E1F78D919C911197C80FD91F44
:1057E0006E83C085D18563E0CC0FDD1F6A95E1F73C
:1057F0008D919C911197C80FD91F8B818C7F8B83C2
:105800008085918573E0880F991F7A95E1F70D9057
:10581000BC91A02DA80FB91F037013968C911397FC
:10582000082B13960C93808591850196918780872C
:1058300084819581019695838483DF91CF910F9127
:1058400008958F92AF92CF92EF920F93CF93DF9301
:10585000CDB7DEB7DC01962F642F422F802F2E2D7F
:10586000EC2CCA2CA82C913011F0943031F40E2D70
:10587000482FCD010E94942B13C0923029F4E0915F
:105880009A05F0919B0506C0933051F4E0919C0578
:10589000F0919D05309721F0022F282FCD01099519
:1058A000DF91CF910F91EF90CF90AF908F900895AF
:1058B000FC0124A135A12115310599F080919005B5
:1058C0009091910501969093910580939005821790
:1058D000930758F081E090E090938F0580938E05B8
:1058E00004C010928F0510928E0580918E059091C4
:1058F0008F05089510928F0510928E0510929105D4
:105900001092900508958F929F92AF92BF92CF927E
:10591000DF92EF92FF920F931F93CF93DF93EC01EF
:105920008E85811126C02F89388D4A895B893B8BF2
:105930002A8B8C899D89820F931F841B950B9D8BCD
:105940008C8B8C899D89883C910540F0885C9109FD
:105950009D8B8C8B8E898F5F8E8BF3CF8F85882369
:1059600049F09E89891710F41F8604C0891B8F8710
:1059700001C01E8AFE01E355FF4F0190F081E02D2A
:10598000309719F0CE01C19609951E86C884D98436
:10599000E12CF12C00E010E0C801A0E0B0E08C1593
:1059A0009D05AE05BF0550F4602FCE010E946A3000
:1059B0009E85892B8E870F5F1F4FEECFCE010E94F1
:1059C000582C8E85813019F580918E0590918F0528
:1059D0000197A1F40E947A2C8EA99FA991609FAB98
:1059E0008EAB8881813021F482E08093A40528C0A9
:1059F000811126C082E08093A50522C08EA99FA9AF
:105A000091609FAB8EABCE010E94892719C0809117
:105A10007E05813011F410927E058EA99FA99E7F8C
:105A20009FAB8EAB8881813021F482E08093A40506
:105A300005C0811103C082E08093A5050E947A2CE5
:105A40008A819B81A0E0B0E00796A11DB11DF3E023
:105A5000B695A79597958795FA95D1F720E030E010
:105A60008E0102591F4FA90160E070E048175907E5
:105A70006A077B0750F4F80140815181FA01E20F77
:105A8000F31F10822F5F3F4FEECFC884D984E12CE3
:105A9000F12C20E030E080E090E0DE01A25ABF4F20
:105AA000BE0162597F4F01E010E04C01A12CB12CE6
:105AB0008C149D04AE04BF0420F5ED91FC91119768
:105AC000E20FF31F40814871C1F0FB01A080B1805B
:105AD000AC01E3E056954795EA95E1F7F501E40F4F
