:100000000C94D4070C94F1070C94F1070C94F107AD
:100010000C94F1070C94F1070C94F1070C94F10780
:100020000C94F1070C94F1070C94F1070C946611F1
:100030000C94F1070C94F1070C94F1070C94F10760
:100040000C94F1070C94F1070C94F1070C94F10750
:100050000C94F1070C94F1070C94F1070C94F10740
:100060000C94F1070C94F1070C94F1070C94F10730
:100070000C94D9100C94F1070C942B110C94F107EB
:100080000C94F1070C94F1070C94F1070C94F10710
:100090000C94F1070C9429230C94BC230C94F107C5
:1000A0000C94F1070C94F1070C94F1070C94F107F0
:1000B0000C94F10752656C656173653A2000564FE8
:1000C0004C233A20004D455441233A2000504C41E6
:1000D00059494E4723004E414D45534554233A203C
:1000E000004C4953544E554D23004C495354494EEE
:1000F000464F23002323434C492E4C49535423009D
:10010000000000C0E0F0F0F0F0F0F0F0F0F0F0F0FF
:10011000F0F0F0E0C0000000000000FFFFFFFF0172
:10012000000000000000000001FFFFFFFF000000D2
:10013000000000FFFFFFFF80000000000000000043
:1001400080FFFFFFFF00000000000003070F0F0FFC
:100150000F0F0F0F0F0F0F0F0F0F0F0703000000F0
:100160000000000000000000000000000000E0F0BF
:10017000F0E00000000000000000000000000000AF
:10018000000000000000FFFFFFFF00000000000073
:100190000000000000000000000000000000FFFF61
:1001A000FFFF000000000000000000000000000051
:1001B000000000000000030707030000000000002B
:1001C000000000E0F0F0F0F0F0F0F0F0F0F0F0F00F
:1001D000F0F0F0E00000000000000081C1C0C0C0ED
:1001E000C0C0C0C0C0C0C0E1FFFFFFFF00000000F2
:1001F000000000FFFFFFFF87030303030303030364
:100200000303838100000000000000070F0F0F0FA1
:100210000F0F0F0F0F0F0F0F0F0F0F070000000032
:10022000000000E0F0F0F0F0F0F0F0F0F0F0F0F0AE
:10023000F0F0F0E00000000000000081C1C0C0C08C
:10024000C0C0C0C0C0C0C0E1FFFFFF7F0000000011
:1002500000000081830303030303030303030387F5
:10026000FFFFFFFE00000000000000070F0F0F0F50
:100270000F0F0F0F0F0F0F0F0F0F0F0700000000D2
:10028000000000E0F0F0F03000000000000000305E
:10029000F0F0F0E000000000000000FFFFFFFFE0D2
:1002A000C0C0C0C0C0C0C0E0FFFFFFFF0000000032
:1002B0000000000103030303030303030303030715
:1002C000FFFFFFFF00000000000000000000000032
:1002D000000000000000000C0F0F0F0700000000DE
:1002E000000000E0F0F0F0F0F0F0F0F0F0F0F0F0EE
:1002F000F0F0F0E000000000000000FFFFFFFFE171
:10030000C0C0C0C0C0C0C0C0C0C0C181000000002B
:100310000000008183030303030303030303038734
:10032000FFFFFFFF00000000000000070F0F0F0F8E
:100330000F0F0F0F0F0F0F0F0F0F0F070000000011
:10034000000000E0F0F0F0F0F0F0F0F0F0F0F0F08D
:10035000F0F0F0E000000000000000FFFFFFFFE110
:10036000C0C0C0C0C0C0C0C0C0C0C18100000000CB
:10037000000000FFFFFFFF8703030303030303875E
:10038000FFFFFFFF00000000000000070F0F0F0F2E
:100390000F0F0F0F0F0F0F0F0F0F0F0700000000B1
:1003A000000000E0F0F0F0F0F0F0F0F0F0F0F0F02D
:1003B000F0F0F0E00000000000000001010000008B
:1003C0000000000000000001FFFFFFFF0000000030
:1003D000000000000000000000000000000000001D
:1003E000FFFFFFFF00000000000000000000000011
:1003F000000000000000000C0F0F0F0700000000BD
:10040000000000E0F0F0F0F0F0F0F0F0F0F0F0F0CC
:10041000F0F0F0E0000000000000007FFFFFFFE1CF
:10042000C0C0C0C0C0C0C0E1FFFFFF3F000000006F
:10043000000000FEFFFFFF8703030303030303879E
:10044000FFFFFFFE00000000000000070F0F0F0F6E
:100450000F0F0F0F0F0F0F0F0F0F0F0700000000F0
:10046000000000E0F0F0F0F0F0F0F0F0F0F0F0F06C
:10047000F0F0F0E000000000000000FFFFFFFFE1EF
:10048000C0C0C0C0C0C0C0E1FFFFFFFF000000004F
:100490000000000103030303030303030303030733
:1004A000FFFFFFFF00000000000000000000000050
:1004B000000000000000000C0F0F0F0700000000FC
:1004C000000000000000000000000000000000002C
:1004D000000000000000000000000000000000001C
:1004E000003C7E7E7E7E3C0000000000000000009C
:1004F000000000000000000000F0F8F8F8F8F0003C
:1005000000000000000000000000000000000000EB
:1005100000000101010100000000000000000000D7
:1005200000000000000000000000000000000000CB
:1005300000000000000000000000000000000000BB
:1005400000000000000000000000000000000000AB
:10055000000000000000000000C0C0C0C0C0C0001B
:10056000000000000000000000000000000000008B
:10057000000F0F0F0F0F0F00000000000000000021
:10058000000000000000000000000000000000006B
:10059000000000000000000000000000000000005B
:1005A000000000000000000000000000000000004B
:1005B000000000000000000000000000000000003B
:1005C000000000000000000000000000000000002B
:1005D000000000000000000000000000000000001B
:1005E0000000000000000000001F1111111F00009A
:1005F00000000000000000000000000000000000FB
:1006000000000000000000000000000000000000EA
:1006100000000000000000000000000000000000DA
:1006200000000000000000000000000000000000CA
:1006300000000000000000000000000000000000BA
:1006400000000000000000000000000000000000AA
:10065000000000000000000000000000000000009A
:10066000000000000000000000000000000000008A
:10067000000000000000000000000000000000007A
:10068000000000000000000000000000000000006A
:10069000000000000000000000000000000000005A
:1006A000000000000000005F0000000700070014C9
:1006B0007F147F14242A7F2A122313086462364988
:1006C0005522500005030000001C22410000412279
:1006D0001C0014083E081408083E080800503000AA
:1006E00000080808080800606000002010080402E4
:1006F0003E5149453E00427F4000426151494621FA
:1007000041454B311814127F1027454545393C4A65
:1007100049493001710905033649494936064949B5
:10072000291E00363600000056360000081422410B
:100730000014141414140041221408020151090673
:10074000324979413E7E1111117E7F494949363E39
:10075000414141227F4141221C7F494949417F0952
:100760000909013E4149497A7F0808087F00417F15
:1007700041002040413F017F081422417F4040401A
:10078000407F020C027F7F0408107F3E4141413EC2
:100790007F090909063E4151215E7F091929464614
:1007A0004949493101017F01013F4040403F1F203D
:1007B00040201F3F4038403F63140814630708700F
:1007C00008076151494543007F4141000204081078
:1007D000200041417F0004020102044040404040AB
:1007E000000102040020545454787F4844443838AF
:1007F00044444420384444487F3854545418087EB4
:100800000901020C5252523E7F0804047800447DD4
:1008100040002040443D007F1028440000417F40BC
:10082000007C041804787C08040478384444443874
:100830007C14141408081414187C7C080404080898
:1008400054545420043F4440203C4040207C1C2011
:1008500040201C3C4030403C44281028440C505060
:10086000503C4464544C44000836410000007F0072
:100870000000413608001008081008784641467804
:10088000000000000000005F0000000700070014E7
:100890007F147F14242A7F2A1223130864623649A6
:1008A0005522500005030000001C22410000412297
:1008B0001C0014083E081408083E080800503000C8
:1008C0000008080808080060600000201008040202
:1008D000000000000000005F000000070007001497
:1008E0007F147F14242A7F2A122313086462364956
:1008F0005522500005030000001C22410000412247
:100900001C0014083E081408083E08080050300077
:1009100000080808080800606000002010080402B1
:10092000000000000000005F000000070007001446
:100930007F147F14242A7F2A122313086462364905
:1009400055225000050300007E4B4A4B42004122D5
:100950001C0014083E081408083E08080050300027
:100960000008080808080060600000201008040261
:10097000000609090600427F4000426151494621B4
:1009800041454B311814127F1027454545393C4AE3
:10099000494930017109050338565456180649492A
:1009A000291E003636000000563600000814224189
:1009B00000141414141400412214080201510906F1
:1009C0007E1111117E7F494949317F494949367F5E
:1009D00001010103603E21217F7F49494941770898
:1009E0007F087722414949367F1008047F7F10092C
:1009F000047F7F08142241403E01017F7F020C02E8
:100A00007F7F0808087F3E4141413E7F0101017F11
:100A10007F090909063E4141412201017F01012769
:100A20004848483F1E217F211E63140814633F205D
:100A3000203F60070808087F7F407F407F3F203FBE
:100A4000207F017F4848307F4830007F007F484842
:100A500030224149493E7F083E413E462919097FDF
:100A600020545454783C4A4A4A307C545428007CE0
:100A700004040404603824247C38545454186C1042
:100A80007C106C00445454287C2010087C7C21127B
:100A9000097C7C10284400403804047C7C08100841
:100AA0007C7C1010107C38444444387C0404047C62
:100AB0007C14141408384444440004047C04040CDA
:100AC0005050503C08147C140844281028443C2002
:100AD000203C600C1010107C7C407C407C3C203C16
:100AE000207C047C5050207C5020007C007C5050A6
:100AF0002028445454387C10384438485434147CEA
:100B000000000000000000000000000000000000E5
:100B100000000000000000000000000000000000D5
:100B20000000000000000000000080C040203010E5
:100B30001808884C0404040602020202020202029F
:100B40000202060404040C88081810206040C080CB
:100B50000000000000000000000000000000000095
:100B60000000000000000000000000000000000085
:100B70000000000000000000000000000000000075
:100B80000000000000000000000000000000000065
:100B90000000000000000000000000000000000055
:100BA000000000C06018080403010000000000E01D
:100BB0001C03C13C46A2701800C0E0E0F0F0E0E089
:100BC000C0800830E2060CF0030EF0800000000147
:100BD00001020418306080000000000000000000E6
:100BE0000000000000000000000000000000000005
:100BF00000000000000000000000000000000000F5
:100C000000000000000000000000000000000000E4
:100C1000000000000000000000000000000000C014
:100C2000700C030000000000000000000000001F26
:100C300070800F30D087182000070FDFFFFFFF1FE5
:100C40001F0360300F80601F84C03F0B0000000056
:100C500000000000000001031CF080000000000004
:100C60000000000000000000000000000000000084
:100C70000000000000000000000000000000000074
:100C80000000000000000000000000000000000064
:100C90000000000000000000000000000000FC0F49
:100CA0000000000000000000F0F0F00000000080F4
:100CB000E0F17334000100000000F8FFFF9FFFFE29
:100CC000C2000000010004F6F1303030303030F066
:100CD000E0C000000000000000001FF00000000065
:100CE0000000000000000000000000000000000004
:100CF00000000000000000000000000000000000F4
:100D000000000000000000000000000000000000E3
:100D100000000000000000000000000000003FF0A4
:100D20000000000000000000FFFFFFF0F8BD0F070B
:100D30000300000000000000C0FFFF8F88888BFFC9
:100D4000FFF80000000000FFFF6060E0E0E0703F9F
:100D50003F5F0000000000000000F80F00000000EE
:100D60000000000000000000000000000000000083
:100D70000000000000000000000000000000000073
:100D80000000000000000000000000000000000063
:100D90000000000000000000000000000000000152
:100DA0000E38C00000000000FFFFFF0001070F1E0B
:100DB0003CF0E0C0000000F8FFFF8B88888888883E
:100DC0009FFFFEC00000007F7F00000003071F7C24
:100DD00078600000000080E0380F01000000000093
:100DE0000000000000000000000000000000000003
:100DF00000000000000000000000000000000000F3
:100E000000000000000000000000000000000000E2
:100E100000000000000000000000000000000000D2
:100E200000000003060C182040C0800000000000F5
:100E30000000000000C0FFFF0F08080808080808AD
:100E40000809FFFFF800000000000000000000801B
:100E5000C06030180C060100000000000000000017
:100E60000000000000000000000000000000000082
:100E70000000000000000000000000000000000072
:100E80000000000000000000000000000000000062
:100E90000000000000000000000000000000000052
:100EA000000000000000000000000101020604082C
:100EB0000818101020202120206040404040404071
:100EC000602020212130101018080C0406020101B6
:100ED0000000000000000000000000000000000012
:100EE0000000000000000000000000000000000002
:100EF00000000000000000000000000000000000F2
:100F0000000043008700CA000E0151019501D8017D
:100F10001C025F02A302E6022A036D03B103F4037D
:100F20000000A3024605E9078C0A2F0DD20F7512A7
:100F30001815BB175E1A011DA41F4722EA248D272E
:100F4000000000005E1A0000BC3400001A4F0000D0
:100F500078690000D6830000349E000092B800003B
:100F6000F0D200004EED0000AC0701000A220100A3
:100F7000683C0100C656010024710100828B01000B
:100F800000000000AC070100580F0200143E0300EF
:100F900096C90400144402000A220100D68300000E
:100FA0001A4F00005E1A000011241FBECFEFD8E0D8
:100FB000DEBFCDBF12E0A0E0B1E0E2EFFCE602C090
:100FC00005900D92A63CB107D9F727E0A6ECB2E058
:100FD00001C01D92AA39B207E1F70E94340E0C94A9
:100FE00077360C9400002091C602223070F4909164
:100FF000C802E92FF0E0E753FD4F80832F5F209375
:10100000C6029F5F91709093C80208952091C60216
:10101000222379F09091C702E92FF0E0E753FD4FCA
:10102000808121502093C6029F5F91709093C702E8
:10103000089580E008951092D1021092D00210928B
:10104000CB021092CD02E9ECF2E0108211821092F4
:10105000C8021092C7021092C60254985C9A089572
:10106000CF93DF9329B1C091CB028091CD028093C1
:10107000CC028091D0029091D1029093CF028093C4
:10108000CE0224FD15C0893E23E0920798F5019613
:101090009093CF028093CE028B30910558F1C160BE
:1010A000893E934039F5C1FD25C0CB7FC26022C087
:1010B000C0FF0AC0C1FD08C0C2FF03C0CB7FD5E09E
:1010C00004C01092CC02C460D0E0C2FF08C080917E
:1010D000CC02873920F01092CC02CB7FD3E08C2F4A
:1010E0008370833009F4D4E01092CF021092CE02C4
:1010F000CC7F01C0D0E0C2FF07C08091CC0287390D
:1011000018F48F5F8093CC028091CC028093CD0243
:10111000DD2331F081E00E94F3078D2F0E94F30759
:101120008091CE029091CF029093D1028093D00211
:10113000C093CB02DF91CF910895CF93DF930E94AC
:101140002F120E943B1280E290E00E9453128FE720
:1011500090E00E9453120E943B1281E290E00E94B4
:10116000531280E090E00E947E120E944712CCEA67
:10117000D5E08881806788830E943B1280E290E0FE
:101180000E94531284E090E00E945312888190E004
:101190000E9453120E944712EDEAF5E080818170AF
:1011A00084608E7F80830E943B1280E290E00E94E8
:1011B000531285E090E00E945312898190E00E94D2
:1011C0005312DF91CF910C944712CF93DF93EC0130
:1011D000FC0101900020E9F73197E81BF90BE0933F
:1011E0007003BC018FEA95E00E947533FE01019007
:1011F0000020E9F73197EC1BFD0BE155FA4F8DE02C
:101200008083809170038F5F809370038091AF051E
:101210008093CE00DF91CF9108950E9406088093BD
:101220006F0380916F03882321F00E94060880934A
:101230006E0308959093CD008093CC0088ED809349
:10124000C90086E08093CA000895282FFC018E2FE4
:10125000821B861710F41192FACF0895EF92FF9235
:101260000F931F93CF93DF9300D000D0CDB7DEB79D
:101270009C011C821B8280E197E29A83898340E073
:1012800005E010E08AE0E82EF12CF9010190002041
:10129000E9F73197E21BF30B842F90E0B8016E1B46
:1012A0007F0B8617970748F489819A81B7010E94BE
:1012B000C5327A8369834F5FE8CF40E00AE010E0EF
:1012C000842F90E0F90101900020E9F73197E21BAB
:1012D000F30B8E179F07F8F4E981FA816B817C810B
:1012E000D901A80FB91F8C9190E0C0978E9FD001B3
:1012F0008F9FB00D9E9FB00D1124CD01860F971FBB
:101300009C838B8389819A81B8010E94C5327A833C
:1013100069834F5FD5CF8B819C810F900F900F9089
:101320000F90DF91CF911F910F91FF90EF90089553
:10133000CF93DF93DC01FB0180E090E048EB58EABB
:10134000EB0109900020E9F72197C61BD70B8C17FA
:101350009D0740F5208127FD03C02D93319620C0C5
:1013600030E0322F2227C1812C0F311DE901C059F5
:10137000D04DE09710F4205D06C0E901C058D14D72
:10138000609718F420592D930AC02138C0ED3C070E
:1013900011F45D9304C02139314D11F44D9332960F
:1013A0000196CECFDF91CF9108952F923F924F9229
:1013B0005F926F927F928F929F92AF92BF92CF92E5
:1013C000DF92EF92FF920F931F93CF93DF93EC0185
:1013D000E0915A03F0915B03DF01AA0FBB1FA857EE
:1013E000B94F2D903C9011979E0140E050E060E095
:1013F00070E080E090E05101C12CD12CE12CF12C67
:1014000000E010E00E942133A0905C03B0905D03E7
:10141000C0905E03D0905F03E0906003F0906103A2
:1014200000916203109163030E94183320935C03C0
:1014300030935D0340935E0350935F0360936003BA
:101440007093610380936203909363033196F093EA
:101450005B03E0935A03CD93DC93709721F41092D1
:101460005B0310925A0304E00E94FC32C901DF9131
:10147000CF911F910F91FF90EF90DF90CF90BF9091
:10148000AF909F908F907F906F905F904F903F9024
:101490002F90089510926D0310926C030E94821594
:1014A000E0919804F09199048081813099F7A485A6
:1014B000B585809170069C9190FB80F980937006B1
:1014C000A485B5859C919695917090FB81F9809348
:1014D0007006A485B5859C9192FB992790F990FBA5
:1014E00082F980937006A485B5859C9193FB99271A
:1014F00090F990FB83F9809370060484F585E02DC4
:1015000090819295917090FB84F9809370068F7111
:1015100009F0C0CF0895EF92FF921F93CF93DF930E
:1015200000D000D0CDB7DEB7182F6623E1F01F92B0
:101530008F9383EA91E09F938F93CE0101967C0174
:101540009F938F930E949F3360E088E10E945B131A
:1015500040E062E0C7010E94DA140F900F900F90F4
:101560000F900F900F90812F86950E9436150F9047
:101570000F900F900F90DF91CF911F91FF90EF9000
:10158000089597FD05C08F3F910509F01CF408955B
:1015900080E008958FEF08958F929F92BF92CF922F
:1015A000DF92EF92FF920F931F93CF93DF93CDB70C
:1015B000DEB761970FB6F894DEBF0FBECDBFB82E71
:1015C000082F10E00E94CA1361E080E00E948B0A9D
:1015D00061E08B2D0E948B0A0E944A0A20E087EA74
:1015E000E82E81E0F82ECE0101966C0180916C030B
:1015F00090916D038835924009F4ABC0298B0E940D
:101600008215E0919804F0919904808129898130B4
:1016100009F050C0A485B585909170068C9180FB2F
:1016200090F990937006A485B5858C9183FB8827EB
:1016300080F980FB93F990937006A485B5858C9111
:101640008695817080FB91F990937006A485B5858D
:101650008C9182FB882780F980FB92F99093700629
:101660000484F585E02D80818295817080FB94F95A
:101670009093700690FF0DC00E944A0A10926D036D
:1016800010926C0305501109C8010E94C10AB82EBE
:1016900021E08091700683FF0DC00E944A0A1092DB
:1016A0006D0310926C030B5F1F4FC8010E94C10AAB
:1016B000B82E21E08091700684FF25C010926D0342
:1016C00010926C03E0919804F09199040784F089DA
:1016D000E02D808190E0298B0E94A8120E94D509FC
:1016E0004C019924C801029729898816990624F08B
:1016F00004968815990574F4B82C882D86950E9457
:101700003615840109C0213001F561E08B2D0E945E
:101710008B0A02C02130C9F480917003811117C077
:1017200061E08B2D0E948B0A1F92BF92FF92EF9275
:10173000DF92CF920E949F33C6010E94E5080F906E
:101740000F900F900F900F900F9020E04FCF21E05F
:101750004DCF10926D0310926C030E94CA138B2D13
:1017600061960FB6F894DEBF0FBECDBFDF91CF916B
:101770001F910F91FF90EF90DF90CF90BF909F90BF
:101780008F900895CF93DF939F938F9385EB91E094
:101790009F938F93C8EAD6E0DF93CF930E949F3345
:1017A000109267031092660309900020E9F72197D1
:1017B000C85AD640D0936503C09364030F900F902E
:1017C0000F900F900F900F90DF91CF9108950F938E
:1017D0001F93CF93DF93CDB7DEB766970FB6F8941C
:1017E000DEBF0FBECDBFFE013196CE0147968F0101
:1017F0001192E817F907E1F76091660370916703AA
:101800006855794F45E150E0C8010E94903362E08D
:1018100081E00E945B1340E060E0C8010E94DA149E
:10182000809166039091670301969093670380937C
:10183000660320916403309165038217930721F4B6
:10184000109267031092660366960FB6F894DEBF97
:101850000FBECDBFDF91CF911F910F910895CF9310
:10186000DF93682F80E00E945B13C0E8D0E068E15E
:1018700080E40E9428132197D1F7DF91CF9108953A
:10188000CF92DF92EF92FF920F931F93CF93DF934C
:1018900000D000D0CDB7DEB78C0164EB70E00E94C1
:1018A0005033009771F0BC01675F7F4F43E150E018
:1018B00082E796E00E947C33809187078460809362
:1018C000870761EE70E0C8010E945033892B29F030
:1018D000809171068F5F8093710664EF70E0C8019C
:1018E0000E945033892B49F08091860786FD05C000
:1018F000809186078064809386076AEE70E0C80155
:101900000E9450337C01009791F06CE270E00E94DD
:101910006A339701215F3F4FAC01421B530BB70164
:10192000605F7F4F8FEC95E00E947C3375C066ED61
:1019300070E0C8010E9450337C01892B59F164E0AA
:10194000CE0101960E9425098AE0E80EF11C60E2B2
:1019500070E0C7010E946A336C01AC014E195F0947
:1019600055274F5F5F4FB701CE0101960E947C3330
:10197000CE0101960E942E098093E505B6016F5FA6
:101980007F4F8FEC95E00E947533809186078068C9
:10199000809386076DEC70E0C8010E945033892B5C
:1019A00029F08091860782608093860765EC70E05D
:1019B000C8010E9450337C01892B89F064E682E2E1
:1019C00097E00E942509B701695F7F4F82E297E0A7
:1019D0000E947533809186078460809386076EEB42
:1019E00070E0C8010E9450330097B1F02091860743
:1019F00024FD12C0BC016A5F7F4FCE0101960E9498
:101A00007533CE0101960E942E098093AE05809118
:101A100086078061809386070F900F900F900F903C
:101A2000DF91CF911F910F91FF90EF90DF90CF90BA
:101A300008950F931F93CF93DF931F92CDB7DEB717
:101A40008C0181E049830E945B13498160E0C801F9
:101A50000F90DF91CF911F910F910C94DA14809128
:101A600087078B7F809387078EEC91E00E94E508C3
:101A70008091870782FD13C08091870781FFF8CF8F
:101A80008FEE95E00E94400C60E88FEE95E00E949A
:101A90002509809187078D7F80938707E9CF87E0AD
:101AA0000E94721340E067E082E796E00C94190D03
:101AB000809186078E7F80938607399A41985C9A39
:101AC00087E490E00E941A097894419A0E941B08CA
:101AD0000E949D080E94FA1380E00E940D1510924A
:101AE00080008FEF9AE1909389008093880082E0D4
:101AF00080938100109282001092850010928400E1
:101B000080936F000E94D9154C9940C04C9BFECF2A
:101B100041E067E08AED91E00E94190D85E090E0D8
:101B20000E941A092FEF8FE593E0215080409040EA
:101B3000E1F700C000008FED91E00E94E5082FEF73
:101B40008FE593E0215080409040E1F700C0000015
:101B50008CEE91E00E94E5082FEF8FE593E0215095
:101B600080409040E1F700C000008BEF91E00E94C0
:101B7000E5082FEF8FE593E0215080409040E1F79A
:101B800000C000008CE092E00E94E5082FEF8FE398
:101B900095E6215080409040E1F700C0000087E0CA
:101BA0000E9472130E94CA1340E067E085E192E050
:101BB0000E94190D809186078D7F80938607809102
:101BC000860781FD13C08091870781FFF8CF8FEED4
:101BD00095E00E94400C60E88FEE95E00E94250998
:101BE000809187078D7F80938707E9CF0E942F0D13
:101BF0002FEF8FE793E4215080409040E1F700C041
:101C0000000087E00E94721340E067E08BE292E000
:101C10000E94190D10927106809186078F7B809328
:101C2000860781E492E00E94E5088091860786FDA0
:101C300013C08091870781FFF8CF8FEE95E00E9457
:101C4000400C60E88FEE95E00E942509809187079F
:101C50008D7F80938707E9CF0E94CA1381E00E949D
:101C60002F0C83E00C942F0CCF93DF93CDB7DEB70E
:101C7000C257D1090FB6F894DEBF0FBECDBF4E01DB
:101C800025E6820E911C8CE0E7E9F1E0D401019099
:101C90000D928A95E1F70E94580D809186078F7BFF
:101CA00080938607212C312C8CE3C82ED12C9AE40A
:101CB000A92E92E0B92E8E010F5F1F4F2AE8E22E67
:101CC00022E0F22E3EE9632E32E0732E48EE442EDF
:101CD00043E0542E0E940D098091870781FF0EC0BA
:101CE0008FEE95E00E94400C60E88FEE95E00E9438
:101CF0002509809187078D7F8093870780916F03E7
:101D0000813009F04FC080916E03833009F04AC0E2
:101D10008091860780FD3DC0239486E0281611F04F
:101D2000211008C087E00E9472131092690310927C
:101D3000680337C0F401E20DF11DE20DF11D808151
:101D400091819093690380936803809168039091D7
:101D500069032091680330916903B6010E94C5327E
:101D60009F938F93C901B6010E94C5327F936F93F1
:101D7000BF92AF921F930F930E949F3341E067E0A1
:101D8000C8010E94190D0FB6F894DEBF0FBECDBF7B
:101D900009C0809186078E7F80938607419A0E94B2
:101DA000580D212C80916F03813031F480916E03A6
:101DB000853011F40E942F0D80916F038130A9F4BA
:101DC00080916E03843089F441E067E080E692E020
:101DD0000E94190D86E792E00E94E508809186072F
:101DE0008D7F809386070E94580D809168039091A3
:101DF0006903892B39F18091870783FF23C0809184
:101E00006803909169032091680330916903B601DA
:101E10000E94C5329F938F93C901B6010E94C532BB
:101E20007F936F93BF92AF921F930F930E949F3344
:101E300040E067E0C8010E94190D0FB6F894DEBFBC
:101E40000FBECDBF8091870780FF09C081E892E077
:101E50000E94E508809187078E7F80938707809195
:101E6000860780FF14C064E682E297E00E9425099D
:101E70000E94CA1380E00E940D159FEFAFE5B3E00A
:101E80009150A040B040E1F700C00000419880911F
:101E9000860787FF1CC080E00E94721360E081E02B
:101EA0000E945B1364E6C8010E9425096FEC75E08F
:101EB000C8010E94980940E060E0C8010E94DA145D
:101EC000809186078F77809386073090E505809113
:101ED000860786FF22C080E00E94721360E080E0E7
:101EE0000E945B136FEF80E40E94281360E081E0A2
:101EF0000E945B1364E6C8010E9425096FEC75E03F
:101F0000C8010E94980941E060E0C8010E94DA140B
:101F1000809186078F7B809386078091860782FF5A
:101F200012C0F8011192E815F905E1F762E277E0D5
:101F3000C8010E949809C8010E94C20B80918607BF
:101F40008B7F809386078091860785FF0BC08091E9
:101F5000860780FD07C00E94E70B809186078F7D72
:101F6000809386078091860780FF0E948215E0910A
:101F70009804F09199048081813009F0ABCE809172
:101F8000860780FDA7CEA485B585809170069C91BB
:101F900090FB80F980937006A485B5859C919695F9
:101FA000917090FB81F980937006A485B5859C9112
:101FB00092FB992790F990FB82F980937006A48593
:101FC000B5859C9193FB992790F990FB83F98093B9
:101FD00070060484F585E02D90819295917090FBB8
:101FE00084F98093700684FF14C08091AE050E942E
:101FF000CC0A8093AE05809170038111FCCF81E8FB
:1020000092E00E94E50881E00E942F0C83E00E948C
:102010002F0C8091700680FF47C00E944A0A3A94B4
:1020200037FE03C0309071063A94809171061F927A
:102030008F93232D032C000C330BC90101969F9322
:102040008F93FF92EF921F930F93E2962FAFE29739
:10205000E3963FAFE3970E949F3340E067E0C801FB
:102060000E94190D809186078F7B809386078FEFE2
:102070009BE60197F1F700C00000E3963FADE397C0
:102080003F933F927F926F921F930F930E949F33D3
:10209000C8010E94E50850926B0340926A030FB694
:1020A000F894DEBF0FBECDBF8091700681FF0AC0DD
:1020B0000E944A0A8DEA92E00E94C20B8EEA92E0E8
:1020C0000E94E5088091700682FF21C00E944A0AA2
:1020D0008DEA92E00E94C20B832D032C000C990B19
:1020E0009F933F92A7EBB2E0BF93AF931F930F93E1
:1020F0000E949F33C8010E94E50810926B03109262
:102100006A030F900F900F900F900F900F90809197
:10211000700683FFDFCD0E944A0A339480917106D6
:10212000232D032C000C330B90E02817390709F4FA
:10213000312C809171061F928F93232D032C000C5C
:10214000330BC90101969F938F93FF92EF921F93D8
:102150000F93E2962FAFE297E3963FAFE3970E948B
:102160009F3340E067E0C8010E94190D8091860707
:102170008F7B809386078FEF9BE60197F1F700C076
:102180000000E3963FADE3973F933F927F926F92BB
:102190001F930F930E949F33C8010E94E50850923D
:1021A0006B0340926A030FB6F894DEBF0FBECDBF3B
:1021B00091CD1F920F920FB60F9211242F933F9340
:1021C0004F935F936F937F938F939F93AF93BF933F
:1021D000EF93FF939091CE00809159039D3021F0B1
:1021E0002091870721FF06C090E0AFEEB5E0E9ED52
:1021F000F2E00BC0E82FF0E0E752FD4F908387FD3F
:1022000019C08F5F8093590315C09F01295D32402B
:10221000281739071CF421912D93F7CF60E889ED39
:1022200092E00E942509809187078260809387074A
:1022300010925903FF91EF91BF91AF919F918F91B0
:102240007F916F915F914F913F912F910F900FBEB2
:102250000F901F9018951F920F920FB60F92112496
:102260002F933F934F935F936F937F938F939F939E
:10227000AF93BF93EF93FF93E091D802EF5FE093AA
:10228000D80280917003E8130AC01092D80210920D
:10229000700360E28FEA95E00E94250906C0F0E035
:1022A000E155FA4F80818093CE00FF91EF91BF916D
:1022B000AF919F918F917F916F915F914F913F91DE
:1022C0002F910F900FBE0F901F9018951F920F9295
:1022D0000FB60F9211242F933F934F935F936F93F9
:1022E0007F938F939F93AF93BF93EF93FF93B09A96
:1022F00010928500109284000E943008809168033B
:1023000090916903892B31F18091D6029091D70287
:102310000196883C910529F09093D7028093D602CC
:1023200019C01092D7021092D60280918707886058
:102330008093870780916803909169030197909338
:10234000690380936803892B29F480918607816053
:102350008093860780916A0390916B03892B81F0AB
:1023600080916A0390916B03019790936B03809324
:102370006A03892B29F480918707816080938707FE
:1023800080916C0390916D038835924048F4809160
:102390006C0390916D03019690936D0380936C0391
:1023A0008091D4029091D50201969093D5028093AA
:1023B000D4024E9749F48091860780628093860705
:1023C0001092D5021092D4028091D2029091D30241
:1023D00020918B0730918C078217930791F421E0AD
:1023E00020938F0720918D0730918E07820F931FC6
:1023F00090938E0780938D071092D3021092D20291
:1024000005C001969093D3028093D202FF91EF9181
:10241000BF91AF919F918F917F916F915F914F91FC
:102420003F912F910F900FBE0F901F9018950000B5
:102430000197E9F70895459A81E090E00C9417120E
:102440003C9A81E090E00C9417123C9881E090E077
:102450000C941712459881E090E00C941712449860
:102460004598459844983D9A3C980E941B120E94BA
:1024700020120C9425120E941B120E9425120E9409
:102480001B120E9420120E942A120C9425120E94F4
:102490002A120E9420120E941B120E9420120E94E7
:1024A0001B120C9425120F931F93CF93DF938C0173
:1024B000C8E0D0E00E942A1207FF03C00E94251244
:1024C00002C00E9420120E941B12000F111F2197B0
:1024D00089F70E942A120E9425120E941B12C6B17F
:1024E0000E942A128C2F82958F7091E0892781702B
:1024F00090E0DF91CF911F910F910895EF92FF929D
:102500000F931F93CF93DF937C010E942A120E94A6
:10251000251208E010E0C0E0D0E0CC0FDD1F0E94E3
:102520001B12349921960E942A1201501109A9F711
:10253000EF2811F00E9420120E941B120E942A1202
:10254000CE01DF91CF911F910F91FF90EF900895F1
:102550000F931F93CF93DF93009711F481E090E0E6
:1025600020910401309105012C5F3F4FA90145578F
:1025700053404C30510514F025E733E0309305010A
:1025800020930401E0910401F0910501938382837B
:102590006081718120910001309101012E173F0768
:1025A00021F47093010160930001A0910001B091AA
:1025B000010143E050E020E031E0E9010D911C9180
:1025C00011970E171F0719F411967C936E931296AC
:1025D0000D911C9113970817190740F48881998170
:1025E00091838083F983E88380E090E0E90128818A
:1025F0003981D3E0A137BD0741F4F901828193818C
:10260000DF91CF911F910F910895CD91DC9111979A
:10261000088119810E171F0711F4798368830A81D5
:102620001B810817190748F48D919C91119791838C
:102630008083ED93FC9380E090E0A3E0C137DA075C
:10264000E1F2A881B9814150510909F0B7CFD5CF46
:102650001F93CF93DF931F92CDB7DEB7182F6983F7
:102660000E943B1288E790E00E945312812F90E075
:102670000E9453126981862F90E00E9453120F909E
:10268000DF91CF911F910C944712811102C066EA2D
:1026900004C0813021F467EA80E00C942813089587
:1026A000811102C06EEA04C0813021F46FEA80E03B
:1026B0000C9428130895CF93C82F809388076093B4
:1026C0008A07605580E00E9428136C2F6F7080E0AD
:1026D0000E9428136C2F62956F70606180E0CF912B
:1026E0000C942813CF93DF93D82FC0E06D2F8C2F3D
:1026F0000E945B1360E080E40E942813CF5FC03823
:10270000A9F7DF91CF9108950F931F93CF93DF9394
:102710008C01809382030E943B1288E790E00E9424
:10272000531280E490E00E94531285E0809FE00104
:10273000819FD00D1124C050DA4F15E08091890798
:10274000FE01882329F0849190E08095909502C045
:10275000849190E00E945312115021961111EECFF6
:1027600080918907882319F08FEF90E002C080E004
:1027700090E00E9453120E944712809188078B5F5D
:10278000813808F085E080938807DF91CF911F9111
:102790000F910895EF92FF920F931F93CF93DF93C2
:1027A00060E080E00E945B1300E014E0E12CF12C7B
:1027B000C0E0D0E080E290E00E9484132196C1380E
:1027C000D10548F08FEFE81AF80A6E2D80E00E94DC
:1027D0005B13C0E0D0E00150110961F785E0809300
:1027E000880710928A07DF91CF911F910F91FF9078
:1027F000EF9008950E942F1280E00E9450138FEFF7
:102800009BE60197F1F700C0000065ED80E00E94B3
:10281000281360E880E00E94281368EA80E00E94A4
:1028200028136FE380E00E94281363ED80E00E948C
:10283000281360E080E00E94281360E480E00E949A
:1028400028136DE880E00E94281364E180E00E9474
:10285000281360EA80E00E94281360EC80E00E9468
:1028600028136AED80E00E94281362E180E00E9454
:10287000281360E280E00E94281360E080E00E945C
:10288000281361E880E00E94281360E880E00E943D
:10289000281369ED80E00E94281361EF80E00E9418
:1028A00028136BED80E00E94281360E480E00E9412
:1028B000281364EA80E00E94281380E00E944513F8
:1028C0006FEA80E00E9428130E94CA1360E080E053
:1028D0000E945B139CEC2CE084E0915020408040EF
:1028E000E1F700C00895EF92FF920F931F93CF93EB
:1028F000DF93E0908A078E3239F0803239F08334EA
:1029000039F0C0EDC80F05C0CBE003C0CCE001C07A
:10291000CDE00E943B1288E790E00E94531280E4D1
:1029200090E00E94531280E6C89FE001112400E06D
:1029300010E0F12CF801EC0FFD1FE050FF4F8491E7
:1029400090E00E94531286E18F15B0F40E94471266
:1029500080918A0761E0680F809188070E945B136D
:102960000E943B1288E790E00E94531280E490E0BE
:102970000E945312F12C01C0F3940F5F1F4F0036D9
:102980001105C1F60E94471280918807895E8093E5
:1029900088076E2D0E945B1380918807813818F09C
:1029A00085E080938807DF91CF911F910F91FF9071
:1029B000EF9008950F931F93CF93DF93FC01C62FE1
:1029C00040938907D5E08081882311F1C1110FC0A0
:1029D0008091880785508C3710F0D09388078F013D
:1029E0000F5F1F4F808190E00E9484130FC0C230A0
:1029F00051F7809188078851893610F0D093880765
:102A00008F010F5F1F4F80810E947314F801DBCF8D
:102A1000DF91CF911F910F910895FF920F931F9314
:102A2000CF93DF93F82E60E080E00E945B13C0E05C
:102A3000DBE000E010E0F11005C0FE01649180E4ED
:102A40000E9428131F5F17FF06C00F5F602F80E0F2
:102A50000E945B1310E02196FFE0C030DF0759F7BA
:102A6000DF91CF911F910F91FF900895EF92FF9208
:102A70000F931F93CF93C82F87FDCFE7009181035A
:102A80000C1728F000918103C017D0F011C010E09E
:102A9000EC2EF12C0E151F05ACF767E0802F0E947D
:102AA0005B136FEF80E40E9428130F5F1F4FF2CF7C
:102AB000C0938103CF911F910F91FF90EF900895E4
:102AC00010E0EC2EF12CE016F10694F767E0802F71
:102AD0000E945B1360E080E40E94281301501109FA
:102AE000F2CFE0919804F09199048181928190FD58
:102AF00008C081E0808381819281909391078093C7
:102B000090070895E0919804F09199048181928151
:102B10000E94F22A90918F07913081F481110EC0AA
:102B200080918D0790918E0741E755E161E00E9409
:102B30003119811104C010928F07089580E0089523
:102B4000AF92BF92CF92EF920F93CF93DF931F92EA
:102B5000CDB7DEB7CE0101965C0187E0C82EEE242A
:102B6000E3940AE020E040E060E081E00E94801809
:102B700020E041E061E081E00E94801820E042E036
:102B800062E081E00E94801820E043E063E081E0A1
:102B90000E94801820E046E064E083E00E948018F4
:102BA0000F90DF91CF910F91EF90CF90BF90AF90AA
:102BB00008950F931F9384E190E090938C07809386
:102BC0008B0700E010E020E030E040E050E061EAF8
:102BD00070E286E091E00E9409160E94A01580E054
:102BE0001F910F910C94FC1880919B04813039F453
:102BF000E0915305F0915405309709F009958CEA5E
:102C000096E29093700580936F058AE994E00C94A6
:102C1000BD288F929F92AF92BF92CF92DF92EF9298
:102C2000FF920F931F93CF93DF93FC01892B19F031
:102C3000C281D38102C0C0E0D0E08091A40581119F
:102C40004BC2309709F44AC2209709F447C28881E1
:102C50009981892B09F444C28A819B81892B09F4CB
:102C60003FC28CA59DA5009709F43AC2AEA5BFA5A9
:102C7000109709F435C2FD846894EE24E2F8EF144D
:102C800008F430C269015A014B017F01AD0160E0D7
:102C900070E00E94AB2E9092540580925305B09242
:102CA0005205A092510581E080939A048881998110
:102CB00090939D0480939C0410929F0410929E0414
:102CC0008A819B819093A1048093A0041092A30415
:102CD0001092A2048C818093A4041092A5041092F7
:102CE000A8041092A9041092AD041092AC041092A2
:102CF000AF041092AE041092B00486E1FE01359646
:102D0000A5EBB4E001900D928A95E1F78AE994E091
:102D10000E94752BBDA8B0922B05AEA8A0922C05E1
:102D2000A8ADA0932F0589AD80932E058AAD809321
:102D300030058BAD809331058FA980932D056CA54F
:102D40007DA57093F9046093F8048A819B819C01AE
:102D5000B3E0220F331FBA95E1F7620F731F709330
:102D6000FB046093FA0448815981FA01EE0FFF1FBA
:102D70006E0F7F1F7093FD046093FC046E0F7F1F26
:102D80007093FF046093FE046E0F7F1F7093010524
:102D900060930005640F751F70930B0560930A051F
:102DA0002A813B81AA2359F1A6E09A2E949ED00154
:102DB000959EB00D11246A0F7B1F70933D056093A3
:102DC0003C05DC01AA0FBB1FAA0FBB1F6A0F7B1FAC
:102DD00070934105609340050796A3E0969587950B
:102DE000AA95E1F7680F791F70933F0560933E0540
:102DF00089AD98E0899F600D711D112408C0A6E07F
:102E0000A49FC001A59F900D1124680F791F709396
:102E10000F0560930E0580910E0590910F05BC0182
:102E2000685F7F4F709311056093100540969093F3
:102E30000305809302056C81ABE06A9F800D911DB4
:102E400011249093050580930405DC01A60FB11DA4
:102E5000BD01B0930905A0930805495F5F4FAA2003
:102E6000B1F1295F3F4FA3E036952795AA95E1F789
:102E7000260F371F3093330520933205B3E0569564
:102E80004795BA95E1F7240F351F30933505209308
:102E90003405420F531F50933705409336054E0FAC
:102EA0005F1F5093390540933805A0912D05AE9FC3
:102EB0009001AF9F300D1124420F531FBB20D9F05A
:102EC00050933B0540933A054E0F5F1F14C023E01B
:102ED000569547952A95E1F74A0F5B1FBB2059F09D
:102EE00050933B0540933A05E40FF51FF0932805F6
:102EF000E093270504C050932805409327052BA98C
:102F00003CA9309348052093470510924A0510923A
:102F1000490524EF35E130934C0520934B05109281
:102F2000D1041092D0042091FA043091FB04309324
:102F3000D5042093D4044091FC045091FD04509397
:102F4000D9044093D8044091FE045091FF0450935B
:102F5000E3044093E2047093DC046093DB0440914B
:102F60003205509133055093E7044093E6044091B5
:102F70003605509137055093E9044093E804409199
:102F80004005509141055093EB044093EA04409171
:102F90002705509128055093ED044093EC0490933D
:102FA000DF048093DE048091F8049091F9049093FB
:102FB000E5048093E4043093CE042093CD0488A9E3
:102FC00099A990931505809314058B8D9C8D9093F2
:102FD0001705809316058D8D809318058E8D9F8D16
:102FE00090931A058093190588A199A190931C05C7
:102FF00080931B058AA19BA190931E0580931D05BC
:103000008CA19DA19093200580931F058EA19FA167
:1030100090932205809321058AA59BA59093260570
:103020008093250588A599A5909324058093230571
:103030008AA9809329051092A7041092B4041092D3
:10304000B30488E0FE01FC96AFEEB4E001900D926F
:103050008A95E1F78091EF049091F00490934605F2
:10306000809345058FEC94E09093990480939804A5
:1030700080E99AE290936C0580936B0587E699E16D
:103080009093500580934F05F701848180939601BA
:103090008AE994E00E94601CE0915105F09152058C
:1030A000309709F00995C114D10419F081E0F601B7
:1030B00009950115110521F08AE994E0F8010995B7
:1030C000E091F504F091F604309709F0099581E05C
:1030D0008093A40580E007C083E005C082E003C0C0
:1030E00084E001C086E0DF91CF911F910F91FF90A6
:1030F000EF90DF90CF90BF90AF909F908F9008950A
:103100008F92AF92BF92CF92DF92EF92FF920F9386
:103110001F93CF93DF939091A405913009F055C090
:103120009FEF980F943008F052C0283008F051C03B
:1031300093E09E1508F44DC097E09C1508F449C033
:10314000A114B10409F445C0A0919C04B0919D0460
:10315000E62FF0E0EA17FB0708F041C0C42FD0E0EB
:10316000CA17DB07E0F5C0919E04D0919F04CA17EF
:10317000DB07A8F5813089F1843039F4DF0111973C
:10318000EA23FB23EF2B49F104C09091A404992377
:1031900011F1E501AC2CCE2CE02E022FD42EF62E10
:1031A000182FE0915305F0915405309709F00995D7
:1031B0008091A2048883812C2D2D4F2D612F8AE9C7
:1031C00094E00E94182C80E00BC083E009C088E0E6
:1031D00007C082E005C08AE003C06417D1F287E02F
:1031E000DF91CF911F910F91FF90EF90DF90CF90E3
:1031F000BF90AF908F900895CF939091A40599239D
:1032000059F19091A405943039F1843038F5C82FE4
:103210008AE994E00E94B42D90919E0420919F042D
:103220009093B3042093B404CC2379F0C093AA0400
:103230009093AB0491E09093A604C13019F41092DE
:10324000860503C093E09093910191E09093A804C8
:1032500092E09093A40503C083E001C082E0CF9187
:1032600008952091A405243021F40E94012B81E0CF
:1032700008952091A405223041F51092D1041092B6
:10328000D0041092B0049093B2048093B104609380
:103290009B0450934A05409349058AE994E00E94B3
:1032A0008027882311F080E008950E94702B809180
:1032B000A4058430C1F7809196018111F4CFE0918B
:1032C0007505F09176050995F2CF83E008950F9387
:1032D0001F93CF93DF932EE020939307FC01EC5ACA
:1032E000FF4F21E0208320918A01222309F453C05B
:1032F0003A960190F081E02D20915A0530915B05BE
:10330000DC011696CD91DC91179750915E058901ED
:10331000A3E0000F111FAA95E1F760E070E0DB0168
:10332000A00FB11FAE0FBF1F4C91413009F0452FC8
:103330002F5F3F4F2C173D0740F140935E053093C0
:103340005B0520935A052150304E73E0220F331F46
:103350007A95E1F7E20FF31F258130E030935905AC
:1033600020935805468150E05093570540935605E9
:10337000B9016F5F7F4F70935D0560935C05241703
:10338000350759F110928A012BC0685F7F4F4111B8
:10339000D4CF50E0C4CF20915805309159056091A9
:1033A0005605709157052617370781F040915C0547
:1033B00050915D054F5F5F4F50935D0540935C05F5
:1033C0002F5F3F4F309359052093580520915805A2
:1033D000309159052617370719F421E020938A0107
:1033E00010925E0520915C0530915D0521503109F8
:1033F000309397072093960740915505411114C0CB
:1034000060919307615041E050E002C0440F551FA6
:103410006A95E2F7509383054093820550938505A2
:103420004093840510925505FC01ED57FF4F019024
:10343000F081E02DE20FF31F408140938705FC01EE
:10344000EB57FF4F0190F081E02DE20FF31F408119
:10345000409389054091820550918305220F331FC7
:10346000FC01EC59FF4F0190F081E02DE20FF31FBA
:103470005183408340E0BC0180919607909197076B
:10348000DF91CF911F910F910C945C2244B121E008
:1034900030E0B90102C0660F771F8A95E2F7CB01D1
:1034A000462B44B995B18095892385B908956F92CB
:1034B0007F928F929F92AF92BF92CF92DF92EF92C4
:1034C000FF920F931F93CF93DF9300D000D0CDB71F
:1034D000DEB76B017C01612C712C01E010E0862DC0
:1034E00046015701062C04C0B694A794979487947C
:1034F0000A94D2F780FE33C098E06916710488F40C
:103500006AB1F801062C02C0EE0FFF1F0A94E2F721
:10351000CF01962F982B9AB99BB1809589238BB9AF
:103520001EC08A3088F46DB18850F80102C0EE0FD9
:10353000FF1F8A95E2F7CF01962F982B9DB99EB178
:10354000809589238EB90BC08A5029833A834B8397
:103550005C830E94461A5C814B813A812981FFEF8E
:103560006F1A7F0A80E16816710409F0B8CFA12CA8
:10357000B12C01E010E08A2D69017A010A2C04C007
:10358000F694E794D794C7940A94D2F7C0FE4BC040
:1035900096E0A916B10488F467B1F8010A2C02C0BC
:1035A000EE0FFF1F0A94E2F7CF01962F982B97B9E1
:1035B00098B18095892388B936C0883018F46DB1E8
:1035C000845017C0803188F46AB18850F80102C075
:1035D000EE0FFF1F8A95E2F7CF01962F982B9AB92D
:1035E0009BB1809589238BB91EC0823188F46DB15F
:1035F0008051F80102C0EE0FFF1F8A95E2F7CF015C
:10360000962F982B9DB99EB1809589238EB90BC0BA
:10361000825129833A834B835C830E94461A5C81E2
:103620004B813A812981FFEFAF1ABF0A88E1A816C2
:10363000B10409F0A0CF0F900F900F900F90DF9181
:10364000CF911F910F91FF90EF90DF90CF90BF909F
:10365000AF909F908F907F906F900895E0EEF0E094
:103660008081826080830895E0EEF0E080818D7F2C
:10367000808308952091EE0030E0FC0131832083A7
:103680004091EF0050E0542F4427240F351F318321
:103690002083089508950895A19A0895A09A089501
:1036A00084B381110C944E1B089584B381110C9442
:1036B0004C1B0895E4E7F0E08081816080830895E9
:1036C000882321F08091E300806103C08091E300B2
:1036D0008F7E8093E30008956093F2007093F3006F
:1036E0002093F8003093F9004093FA000895EF9288
:1036F000FF920F931F93CF93DF93F62E072F122F76
:10370000D32FC42FE090E0000E94341B6091F000A2
:10371000F62AF092F0007091F100072B0093F1006F
:103720002091F400122B1093F4003091F500D32B6C
:10373000D093F5004091F600C42BC093F600E1FE53
:1037400008C0DF91CF911F910F91FF90EF900C94E3
:103750002E1BDF91CF911F910F91FF90EF900C9452
:10376000341B1F93CF93DF9300D000D01F92CDB7AF
:10377000DEB71091E0002B833C834D8369837A830D
:103780000E94341B8091F0006981609568236093EA
:10379000F0008091F1007A81709578237093F100A8
:1037A0008091F4002B81209528232093F4008091B0
:1037B000F5003C81309538233093F5008091F60078
:1037C0004D81409548234093F60011FF0AC00F90A9
:1037D0000F900F900F900F90DF91CF911F910C944D
:1037E0002E1B0F900F900F900F900F90DF91CF91A5
:1037F0001F910C94341B8093E2000895E0EEF0E0FA
:103800008081806180830895E4EEF0E09081987F6C
:10381000908390818770982B90830895E3EEF0E079
:103820009081907F908390818F70982B90830895E2
:103830008091E90080FDFCCF08958093E50090938E
:10384000E60008958F738093E7000895E4EEF0E0BA
:1038500090819F7C9083908183708295807F982B4C
:10386000908308951F93CF93DF931F92CDB7DEB758
:103870001091E00089830E94341B9091E1009C7FAD
:103880009093E1009091E10089818370892B80936E
:10389000E10011FF06C00F90DF91CF911F910C94B2
:1038A0002E1B0F90DF91CF911F910C94341BE9EEEA
:1038B000F0E080818160808308958093E80008951E
:1038C0002F923F924F925F926F927F928F929F9230
:1038D000AF92BF92CF92DF92EF92FF920F931F931E
:1038E000CF93DF93EC01CA80DB80A12CB12C04E0E4
:1038F00010E0A0E0B0E020E030E0A90160E070E07E
:10390000CB01FE01E658FF4F4F01AC15BD0569F133
:10391000E881E11115C0F401208031807501EE0CC1
:10392000FF1CE20CF31CF701408051806280738021
:103930006429752986299729F101E00FF11F06C036
:10394000F401E080F180F701EA0DFB1D4080518019
:103950006280738024293529462957291196085FEA
:103960001F4FF4E0AF0EB11CD0CFFE01E956FF4F60
:10397000E081E11103C00E94771B03C000E00E94B8
:10398000571A0E94341B80E00E94321C8091E00094
:103990008B7F8093E0008091E000877F8093E00040
:1039A0008091E3008F798093E3008091E3008F7E24
:1039B0008093E30088A98093E800DF91CF911F9165
:1039C0000F91FF90EF90DF90CF90BF90AF909F90BE
:1039D0008F907F906F905F904F903F902F900C94BE
:1039E0002E1BCF92EF920F93CF93DF93FC01C085F4
:1039F000D18583E0CC0FDD1F8A95E1F7DF01A25A64
:103A0000BF4F8D919C911197C80FD91F2C83C085F2
:103A1000D18593E0CC0FDD1F9A95E1F78D919C91B4
:103A20001197C80FD91F1B828385C085D18523E0DC
:103A3000CC0FDD1F2A95E1F72D913C911197C20F14
:103A4000D31F8F83C085D18533E0CC0FDD1F3A951E
:103A5000E1F78D919C911197C80FD91F8B81877CBD
:103A60008B83C085D18553E0CC0FDD1F5A95E1F7DC
:103A70008D919C911197C80FD91F0770000F000FEF
:103A8000000F8B81082B0B83C085D18573E0CC0F91
:103A9000DD1F7A95E1F78D919C911197C80FD91F81
:103AA0006D83C085D18503E0CC0FDD1F0A95E1F75A
:103AB0008D919C911197C80FD91F4E83C085D185D8
:103AC00083E0CC0FDD1F8A95E1F78D919C911197D2
:103AD000C80FD91F8B818C7F8B838085918523E0D4
:103AE000880F991F2A95E1F70D90BC91A02DA80F82
:103AF000B91F9C2D937013968C911397C82EC92AC9
:103B00001396CC928385DF01A859BF4F0D90BC91CD
:103B1000A02D9BE0899FA00DB11D1124E294EE0C15
:103B200030EEE322EC9283858F5F8387DF91CF9124
:103B30000F91EF90CF900895AF92BF92CF92EF92F6
:103B40000F93CF93DF935C01D62FC42F802F9C2D32
:103B5000CE2CE92E022F282FC5010E94F11CD50181
:103B6000A25ABF4FF50180859185FC0183E0EE0FDD
:103B7000FF1F8A95E1F78D919C91E80FF91F8381D2
:103B800080648383F5018085918501969187808784
:103B900044815581CA0101964C2F50E04D1B5109BB
:103BA000480F591F55834483DF91CF910F91EF90B8
:103BB000CF90BF90AF900895AF92BF92CF92EF9207
:103BC0000F93CF93DF935C01D62FC42F802F9C2DB2
:103BD000CE2CE92E022F282FC5010E94F11CD50101
:103BE000A25ABF4FF50180859185FC0183E0EE0F5D
:103BF000FF1F8A95E1F78D919C91E80FF91F838152
:103C000080688383F50180859185019691878087FF
:103C100044815581CA0101964C2F50E04D1B51093A
:103C2000480F591F55834483DF91CF910F91EF9037
:103C3000CF90BF90AF9008959C016115710509F177
:103C40004F5F37FD06C0442321F04150220F331F40
:103C5000F8CF77FD04C04F5F660F771FFACF80E083
:103C600090E0442381F097FD0CC0880F991F4150CC
:103C70002617370718F0261B370B019676956795A0
:103C8000F0CF8FEF9FEF0895FC01E25AFF4F0190B4
:103C9000F081E02D28E0629FE00DF11D11242781C5
:103CA000FC01E859FF4F0190F081E02D8BE0289F47
:103CB000E00DF11D112480818160808308953F9281
:103CC0004F925F926F927F928F929F92AF92BF922C
:103CD000CF92DF92EF92FF920F931F93CF93DF93D8
:103CE0006C01362E5C0182E6A80EB11CD5010D9147
:103CF0001C91C62FD0E0CC0FDD1FF801EC0FFD1F8B
:103D0000608071807E01B2E0EB0EF11CF801EE0DD7
:103D1000FF1D4CE0B301808191810E941C1EF601C1
:103D2000E05AFF4F80809180F401EE0DFF1D4CE0C2
:103D3000BC01808191810E941C1E2C017E01E4E067
:103D4000EE0EF11CF801EE0DFF1D4CE0B301808179
:103D500091810E941C1EF401EE0DFF1D4CE0BC0180
:103D6000808191810E941C1E8C01632DC6010E94DE
:103D70002A30EFE5F5E091838083D5018D919C9108
:103D8000C80FD91F88819981481A590A53824282E3
:103D9000081B190B15830483DF91CF911F910F919D
:103DA000FF90EF90DF90CF90BF90AF909F908F905B
:103DB0007F906F905F904F903F900895FF920F9388
:103DC0001F93CF93DF9300D01F92CDB7DEB78C0146
:103DD000F62E642F2B830E945F1E60915F05709109
:103DE0006005E0916105F0916205AE2F3F2F2B81B8
:103DF0006E177F0714F4A62F372F809163059091DB
:103E000064054A2F532F841795070CF4AC01E60F75
:103E1000F71FE80FF91FFA83E98389819A8130E05F
:103E2000319521953109281739078CF0F80180A1C7
:103E3000882369F0E25AFF4F0190F081E02D88E07D
:103E4000F89EE00DF11D11248381846083838981B4
:103E50009A81841B950B9A83898389819A81841B1B
:103E6000950B9A83898389819A81841B950B9A8308
:103E7000898389819A810F900F900F90DF91CF9164
:103E80001F910F91FF9008952F923F924F925F9252
:103E90006F927F928F929F92AF92BF92CF92DF925A
:103EA000EF92FF920F931F93CF93DF931F92CDB7A3
:103EB000DEB76C0128E0629F500111244C013EE501
:103EC000830E911CD401ED91FC91EA0DFB1D07813D
:103ED000402E512CBBE00B9F800111247C0128E671
:103EE000E20EF11CD7018D919C91DC01A00FB11F56
:103EF0007C906581C6010E945F1E60915F05709194
:103F00006005809161059091620550916305409133
:103F10006405252F342F6817790764F082179307FB
:103F2000B4F4562F472FB9019C01852F942F212CD3
:103F3000312C10C02617370754F0562F472FBC01DD
:103F4000C901252F342F212CF0E23F2E03C0212C54
:103F5000E0E13E2E680F791F621B730B621B730B2F
:103F60004CE0821B930B0E941C1E280E391EF4018C
:103F700060817181FB01EA0DFB1D2381207C2038CB
:103F800091F4C1018756924082339B4208F0C5C02C
:103F900033E3231637E0330608F4B6C042E3241AAD
:103FA00047E0340AB3C0AA24AA947FE2B72E80E087
:103FB00090E37294769467E0762231E0370D432FD8
:103FC00060E071E0483020F4769567954F5FFACF56
:103FD0004B013B01A1E06A1A7108353018F4660FF5
:103FE000771F04C0373010F07695679540E029833D
:103FF0000E941C1E29812034D1F4D701ED91FC913F
:10400000E00FF11F238134812115B8E13B0738F01F
:1040100038512216330658F4E0ED3E1A08C0A901C3
:10402000585E4215530518F4305D34832383D7015D
:10403000ED91FC91E00FF11F208120FF05C02E7F44
:10404000208380E090E006C021FF04C09C0180E056
:1040500090E002C020E030E0D701ED91FC91119793
:10406000E00FF11F43815481240F351F22163306C0
:1040700020F080818D7F808309C0820D931D4817B9
:10408000590750F0808182608083D701ED91FC91C7
:10409000E00FF11F34822382F70180819181080FA4
:1040A000191FD80113968D919C9114978115B0E337
:1040B0009B0720F09053F8019483838340E0B40180
:1040C000C5010E941C1E40E0BC01D80113968D91D1
:1040D0009C9114970E941C1E7724F601E659FF4F0D
:1040E0000190F081E02DE40DF51D6816790608F4C5
:1040F000C3012081281789F08083F60186A997A93A
:10410000846097AB86AB09C0212C312C8BE9A82E9B
:1041100081E2B82E8BE991E24CCF0F90DF91CF91E5
:104120001F910F91FF90EF90DF90CF90BF90AF90D5
:104130009F908F907F906F905F904F903F902F90C7
:104140000895EAE9F5E08CE99DE1918380838CEDA7
:104150009DE19383828384E49FE1958384838EED44
:104160009EE19783868384E49EE19187808708950A
:104170002F923F924F925F926F927F928F929F9277
:10418000AF92BF92CF92DF92EF92FF920F931F9365
:10419000CF93DF9300D000D0CDB7DEB77C01C090C5
:1041A0009607D0909707F6013196FC83EB83FC01CC
:1041B00082809380B0E0EC58FF4FFA83E983EB8173
:1041C000FC81E815F90570F0D0929707C092960728
:1041D000C0909607D09097071A821982F4E7EF0EE5
:1041E000F11CB6C0B11157C0EB81FC8193E0F6958C
:1041F000E7959A95E1F79F01287F3770E981FA8169
:1042000080819181F901E80FF91F3080418052804F
:1042100063807480A580B68017818B818F73282E70
:10422000232D342D452D562D672D7A2D8B2D912F35
:10423000022D0E94FC32217030E040E050E060E04E
:1042400070E080E090E0A0E00E942A33F1F021E0ED
:104250000E94E1322095309540955095609570957B
:1042600080959095232120833421318345214283F9
:104270006522638276227482A722A582B822B68242
:1042800019231783CB80DC80B1E0EB81FC81319670
:10429000FC83EB8394CFD0929707C0929607B1E04E
:1042A00097CFB1115CC0E981FA8183E0F695E7957B
:1042B0008A95E1F79F01287F3770F701808191810E
:1042C000F901E80FF91F30804180528063807480CB
:1042D000A580B680178189818F73282E232D342DD8
:1042E000452D562D672D7A2D8B2D912F022D0E9455
:1042F000FC32217030E040E050E060E070E080E0AF
:1043000090E0A0E00E942A33F1F021E00E94E13227
:104310002095309540955095609570958095909535
:1043200032223082432241825422528265226382A9
:1043300076227482A722A582B822B6821923178317
:10434000C980DA80B1E0E981FA813196FA83E983A4
:10435000E981FA81EC15FD0508F4A3CF05C0D092E0
:104360009707C09296070AC0D0929707C092960707
:10437000B11104C090929707809296070F900F900A
:104380000F900F90DF91CF911F910F91FF90EF90C1
:10439000DF90CF90BF90AF909F908F907F906F9065
:1043A0005F904F903F902F900895CF93DF93FC0143
:1043B00080918B0520917F0530918005DF01A25A05
:1043C000BF4F811122C0C90173E0880F991F7A95F0
:1043D000E1F74D915C91840F951FDC018C91803445
:1043E00041F03093800520937F0581E080938B0519
:1043F00059C0B9016F5F7F4FCD0108964085518547
:104400002417350770F79B01E8CFCD91DC914091DF
:10441000960750919707D90163E0AA0FBB1F6A95D1
:10442000E1F7AC0FBD1F16966C9170E04617570769
:1044300039F04F5F5F4F509397074093960739C00D
:104440002F5F3F4F3093800520937F05C90143E0E4
:10445000880F991F4A95E1F78C0F9D1FDC018C9105
:10446000408551858034A1F03093800520937F05ED
:1044700024173507B9F4828193819093970780932D
:10448000960710928B051092800510927F0511C03F
:10449000B9016F5F7F4FCD0108962417350720F7CC
:1044A0009B01DCCF15968C9190E0909397078093B9
:1044B0009607DF91CF910895CF92DF92EF92FF920E
:1044C0000F931F93CF93DF938C01EB01D42E888140
:1044D000FB01E658FF4F7801EE0CFF1C811117C05D
:1044E00080819181F7013196EE0FFF1FEE0FFF1FC4
:1044F000E80FF91F20813181428153813497608117
:104500007181828193810E946C1B88E014C00190AC
:10451000F081E02DC801880F991F880F991FE80FBF
:10452000F91F208131814281538160E070E0CB012D
:104530000E946C1B8AE00E94FB1B81E0FE01D812E6
:104540000EC0EF57FF4F0190F081E02DE00FF11FFB
:1045500080810E94261CFE01E158FF4F0DC0EB57E1
:10456000FF4F0190F081E02DE00FF11F80810E944C
:10457000261CFE01ED57FF4F0190F081E02DE00F6A
:10458000F11F80810E94321C88A90E945D1CFE01DF
:10459000EC59FF4F80819181FC01EE0DFF1D808160
:1045A00091810E941D1CFE01E458FF4F0190F08193
:1045B000E02DE00FF11FE0817E01A9E8EA0EF11C79
:1045C000D7018D919C91DC01A00FB11F8C9181507E
:1045D00020F0EE23E1F3E150FACFF0E0E557FE4F93
:1045E00080810E94221C6E01BEE7CB0ED11CF60119
:1045F0008081813071F480E00E94601B8D85C957F5
:10460000DF4FE881F981E80FF11D80810E940E1CC7
:104610000DC080E00E940E1CD6018C918250823029
:1046200010F481E001C080E00E94601B0E94FE1B2C
:10463000F70180819181FC01E00FF11F8081DF9102
:10464000CF911F910F91FF90EF90DF90CF900C943E
:10465000041C1F920F920FB60F9211242F933F93B9
:104660004F935F936F937F938F939F93AF93BF937A
:10467000EF93FF930E94501B81E080937A05E091B5
:104680009807F0919907DF01A956BF4F8C918130AF
:1046900071F52081E658FF4F80919607909197071A
:1046A000211113C00190F081E02D33E0880F991F94
:1046B0003A95E1F7E80FF91F24813581468157814A
:1046C000608171818281938110C0880F991F880F4A
:1046D000991F0190F081E02DE80FF91F20813181B1
:1046E0004281538160E070E0CB010E94B11B809158
:1046F0008D058130E9F48091920590919305892B85
:1047000051F10E94341B8091A405880F880F880FF7
:1047100087608093A4058091A505880F880F880F76
:1047200087608093A505E0919205F091930512C0F2
:1047300010929407E0917305F0917405309709F099
:10474000099581E080937905E0917105F0917205FA
:10475000309709F00995FF91EF91BF91AF919F912B
:104760008F917F916F915F914F913F912F910F901A
:104770000FBE0F901F9018951F920F920FB60F92B9
:1047800011242F933F934F935F936F937F938F9356
:104790009F93AF93BF93EF93FF930E94551B81E0CC
:1047A00080937A0510929407109281058091A50557
:1047B000843021F482E08093A50507C08091A40590
:1047C000843019F482E08093A40581E080938C0505
:1047D000FF91EF91BF91AF919F918F917F916F91D9
:1047E0005F914F913F912F910F900FBE0F901F90AF
:1047F0001895EF92FF920F931F93CF93DF93FB01D6
:10480000E25AFF4F23E0880F991F2A95E1F70190A4
:10481000F081E02DE80FF91FA581B0E0E680F12CD2
:10482000EB01CC58DF4FEA16FB06A8F1FD0186E04C
:10483000F695E7958A95E1F793E0EE0FFF1F9A95BD
:10484000E1F788819981E80FF91F0A2F0F7321E0A2
:1048500030E040E050E060E070E080E090E00E94F6
:10486000E1321081212B20832181322B318322815F
:10487000422B42832381522B53832481622B6483F6
:104880002581722B75832681822B86838781982BC5
:1048900097831196C8CFDF91CF911F910F91FF9011
:1048A000EF9008952F923F924F925F926F927F9276
:1048B0008F929F92AF92BF92CF92DF92EF92FF9230
:1048C0000F931F93CF93DF933C016B018A01DC01AF
:1048D0008C91813029F022E9E22E27E0F22E04C0EB
:1048E00095E9E92E97E0F92EF301C281D381C11435
:1048F000D104E1F4E258FF4F80818130B9F473961E
:104900008081882341F0E0919405F09195053097DE
:1049100011F0C3010995D3011D968C9190E0019689
:1049200063E070E00E94C532F3018587D3011E96D3
:104930008C91813009F0D3C0CD2809F0F9C0F30182
:10494000E157FF4F8081813009F0CBC021971E01D4
:1049500086E0369427948A95E1F791012F5F3F4FC7
:1049600080917E05E301CC58DF4F6E01813071F5F7
:104970007997A081B181E881F981E101229681E0F6
:1049800090E00C9111961C91119712967C911297C0
:1049900013966C91139714965C91149715964C91FD
:1049A000159716963C91169717962C91179718966F
:1049B0000083118372836383548345833683278303
:1049C000389601968C179D07E1F67FC0F70110829B
:1049D000E881F98180E090E01082118212821382D6
:1049E00014821582168217823896019682179307D1
:1049F00098F3A12CB12C00E010E02301BEE54B0E92
:104A0000511C4301C3EB8C0E911CF30180859185F1
:104A10000817190738F5D201ED91FC91EA0DFB1D3D
:104A200080818230C9F08034B9F0B301C8010E949E
:104A3000F923E401E881F981309721F0A801B70159
:104A4000C3010995E0916905F0916A05309721F05D
:104A5000A301B701C80109950F5F1F4FD8E0AD0E44
:104A6000B11CD3CFE601A881B981EA58FF4F01906C
:104A7000F081E02DE101229681E090E00C91119609
:104A80001C91119712967C91129713966C91139723
:104A900014965C91149715964C91159716963C9127
:104AA000169717962C911797189600831183728387
:104AB00063835483458336832783389601968C1706
:104AC0009D07E1F681E080937E05C3010E94B82036
:104AD00041E0B301809196079091970715C0CD28CA
:104AE00039F51092970710929607C3010E94D521BD
:104AF0008091960790919707F30122813381821765
:104B00009307C0F541E0B301DF91CF911F910F9161
:104B1000FF90EF90DF90CF90BF90AF909F908F90DD
:104B20007F906F905F904F903F902F900C945C22FD
:104B3000D301D6968D919C91D7979360D7969C93ED
:104B40008E93D69701151105A9F0C301F801DF91E5
:104B5000CF911F910F91FF90EF90DF90CF90BF907A
:104B6000AF909F908F907F906F905F904F903F900D
:104B70002F900994DF91CF911F910F91FF90EF90AB
:104B8000DF90CF90BF90AF909F908F907F906F906D
:104B90005F904F903F902F9008958F929F92AF9289
:104BA000BF92CF92DF92EF92FF92CF93DF93E90112
:104BB000FB01E458FF4F0190F081E02DE40FF51F59
:104BC000E081DB01A757BF4F2D913C91D901A40F84
:104BD000B51F2C91215020F0EE23E1F3E150FACFE4
:104BE00024E0E29FF0011124E057F04F2591359128
:104BF00045915491FE01EE27F073EF2FFF27E695C4
:104C0000E695E058F04FC590D590E590F490FE0100
:104C1000EE27FF70B6E0F695E795BA95E1F7E05C10
:104C2000F04F85909590A590B490C80CD91CEA1CC3
:104C3000FB1CFE01E07FFF27A3E0F695E795AA9510
:104C4000E1F7E05EF04FA591B491CA0EDB1EE11CC6
:104C5000F11CFE01EF70FF27EE0FFF1FE050F14F38
:104C6000A591B491CA0EDB1EE11CF11CFB01608111
:104C7000613021F4DC01B250EAE005C0A0E0B2E00E
:104C8000A81BB90BEBE00E94D932AB01BC0104C0F8
:104C90007595679557954795EA95D2F74C0D5D1D2B
:104CA0006E1D7F1DAEE020E030E280E090E0822BC0
:104CB000932BFC01EE27F073EF2FFF27E695E69587
:104CC000E058F04FC590D590E590F490FC01EE27A8
:104CD000FF70C6E0F695E795CA95E1F7E05CF04F06
:104CE00085909590A590B490C80CD91CEA1CFB1C2B
:104CF000FC01E07FFF27D3E0F695E795DA95E1F731
:104D0000E05EF04FC591D491CC0EDD1EE11CF11C8C
:104D1000FC01EF70FF27EE0FFF1FE050F14FC59130
:104D2000D491CC0EDD1EE11CF11C4C155D056E0509
:104D30007F0514F48227932736952795A15009F013
:104D4000B6CFDF91CF91FF90EF90DF90CF90BF90E3
:104D5000AF909F908F900895CF93DF939C01FA01BD
:104D60008081813019F4E059FF4F03C0FA01EE58F9
:104D7000FF4F0190F081E02DC901880F991F280F86
:104D8000391FD901AA0FBB1FAE0FBF1F2F5F3F4FA7
:104D9000220F331FEF01C20FD31F88819981119613
:104DA0009C938E932E5F3F4FE20FF31F8081918182
:104DB0009983888371836083FA01E258FF4F808171
:104DC0008D7F8130D9F42D913C9188819981821712
:104DD000930740F02617370768F49C016817790796
:104DE00048F407C06217730728F49C0186179707D9
:104DF00008F49B012115310509F0B901CB01DF91C0
:104E0000CF9108950F931F93CF93DF93EC0190936D
:104E10009907809398078C0109561F4FF8018081EC
:104E2000882369F188817D972091960730919707B3
:104E3000811113C00190F081E02D53E0220F331F48
:104E40005A95E1F7E20FF31F24813581468157819E
:104E5000608171818281938110C0220F331F220FE4
:104E6000331F0190F081E02DE20FF31F208131818B
:104E70004281538160E070E0CB010E94771B0E9469
:104E8000571C80919601811136C00E94181CF801B0
:104E90008081882381F18881C658DF4F2091960751
:104EA00030919707811112C0E881F98193E0220FB8
:104EB000331F9A95E1F7E20FF31F24813581468174
:104EC000578160817181828193810FC0220F331FCE
:104ED000220F331FE881F981E20FF31F2081318116
:104EE0004281538160E070E0CB01DF91CF911F914F
:104EF0000F910C94B11BDF91CF911F910F910895E9
:104F0000CF93DF93EC010E944A1B0E942E1BFE01EF
:104F1000EF54FF4F808191819093760580937505C2
:104F200080918105811168C00E94501B0E94551B11
:104F300080919601813011F40E945A1B10929407BF
:104F400028818091960790919707FE01EF57FF4FB8
:104F5000DE01A158BF4F698D7A8D0190F081E02D5F
:104F6000E80FF91F211110C0208120938A052D918F
:104F70003C91F901E80FF91F8081809388054091E9
:104F8000A6055091A7050FC02081209389052D917A
:104F90003C91F901E80FF91F8081809387054091CA
:104FA0004F0550915005CE010E9452242091960742
:104FB000309197078A819B812817390790F481E007
:104FC000809381058881811104C084E08093A505C8
:104FD00003C084E08093A405CE010E94022780E0F4
:104FE0000CC0109281050E94341BC155DF4FE8812F
:104FF000F981309709F0099581E0DF91CF9108950B
:105000000F931F93CF93DF93EC01FA018901409135
:10501000960750919707DC01A757BF4F0D90BC91A1
:10502000A02DA40FB51F2C919091930780917D0521
:10503000992309F46EC0FB0102C0F695E7952A9505
:10504000E2F72091840530918505813071F4BE012D
:10505000CF010E94CD25909385058093840582E041
:1050600080937D05109293072EC0609192017091FC
:1050700093016E177F0798F06091940170919501EC
:10508000E617F70760F0BE01CF010E94CD2590938F
:1050900085058093840581E080937D0514C091503F
:1050A000909393074091820550918305CA0196958C
:1050B00087959093830580938205822B932B909301
:1050C000850580938405FE01EC59FF4F8081918115
:1050D0002091840530918505A0919607B09197079E
:1050E000AA0FBB1FA80FB91F2D933C93E091960701
:1050F000F0919707EE0FFF1FE80FF91F8081918154
:105100000E941D1CCE01DF91CF911F910F910C9435
:105110000227823069F48989882311F1309741F19F
:10512000AB016889CE01DF91CF911F910F91099456
:10513000BA01CE010E94973223E0880F991F2A9569
:10514000E1F7FE01E25AFF4F0190F081E02DE80FF8
:10515000F91F80E880838EA99FA990629FAB8EABD8
:105160000115110519F0CE01F801099510927D0580
:10517000DF91CF911F910F910895EF92FF920F93BE
:105180001F93CF93DF9300D000D0CDB7DEB78C0153
:105190001A821982CE0103960E943A1BD8015996B1
:1051A0002D913C915A976B817C81F801E757FF4F15
:1051B0008091960790919707232B09F472C0208164
:1051C0003181F901E80FF91FCB01008002C09695EB
:1051D00087950A94E2F79A8389838091920190914E
:1051E00093018115944038F4809194019091950138
:1051F0008115944060F088EC90E090939501809345
:10520000940180E293E09093930180939201D801FE
:105210009C9180917D05F801E555FF4F91111EC0CD
:10522000811117C089819A81209192013091930157
:105230008217930770F02091840530918505809145
:10524000820590918305822793279093850580930B
:10525000840520916D0530916E051DC0811117C028
:1052600089819A81209194013091950128173907FD
:1052700070F0209184053091850580918205909190
:105280008305822793279093850580938405209139
:105290006B0530916C0540815181C8010E94002846
:1052A00018C10190F081E02DE80FF91F2081F8016D
:1052B000E458FF4F40815181FA01E80FF91F8081C6
:1052C000821740F4281B02C0769567952A95E2F76D
:1052D0007C836B83F801E95AFF4F0190F081E02D48
:1052E0006B817C81309759F0C80109956093650501
:1052F0007093660580936705909368050BC0CB019A
:10530000A0E0B0E08093650590936605A0936705E3
:10531000B09368057801BDE5EB0EF11CF7018081C3
:10532000811190C040916505509166055C834B8367
:10533000E0919805F0919905309751F0D801AF565A
:10534000BF4F8C91882321F060919607C801099581
:105350006B817C81E0916F05F0917005A8018091CF
:1053600096079091970709959C838B83809196056A
:1053700090919705892B49F1F801EE56FF4F8081F6
:10538000882319F16091960770919707C8010E94D0
:105390009732909378058093770533E0880F991FB3
:1053A0003A95E1F7F801E25AFF4FA081B181A80FC9
:1053B000B91F4B815C81E0919605F09197052C9186
:1053C00060919607C801099502C080E090E0F8015D
:1053D000E75AFF4F0190F081E02D309729F06B8163
:1053E0007C81AC01C80109958B819C81E091960775
:1053F000F0919707EE0FFF1FD801A05ABF4F2D91D4
:105400003C91E20FF31F91838083209196073091A6
:105410009707D80112968D919C91139728173907F9
:1054200088F41E968C91813051F4F801E157FF4FBA
:105430008081813021F4C8010E94B82003C0C801D6
:105440000E94D5218091960790919707F8012281BB
:1054500033818217930791F51092780510927705A2
:10546000109281058181813021F4C8010E947A2C3B
:1054700015C08081811104C082E08093A50505C01C
:10548000813019F482E08093A405F80186A997A9D8
:105490009E7F97AB86AB168610927E05D8015996F3
:1054A0008D919C915A97892BA1F41E968C918130F5
:1054B00081F010929707109296070BC0F701208198
:1054C000211104C041E0B8010E945C22C8010E9481
:1054D0000227D8018C91811103C08091A50504C0D9
:1054E000813099F48091A405823079F40E94341BB4
:1054F0000E944B1B01551F4FD801ED91FC91309735
:1055000021F00995F801118210820F900F900F90F1
:105510000F90DF91CF911F910F91FF90EF90089521
:10552000CF93DF93EC01898D9A8D01979A8F898FA4
:1055300010928105892B21F4FE01EC5AFF4F108255
:10554000CE010E944F2C298D3A8D892BB1F4232B4B
:10555000D9F08EA99FA993609FAB8EABE0914F05C8
:10556000F0915005309711F0CE01099581E08093BC
:105570008105CE010E94022707C0232B29F082E07B
:105580008093A4050E94712C2E85898D9A8D2130DF
:10559000E1F40097D1F410925D0510925C05109231
:1055A0005B0510925A05109281058A819B81909328
:1055B0009707809396078EA99FA991609FAB8EABAA
:1055C000CE01DF91CF910C948027892B41F410926A
:1055D0005D0510925C0510925B0510925A05DF91F3
:1055E000CF91089580917905813049F41092790521
:1055F000E0917505F0917605099581E0089580E0C8
:10560000089510927A058091E90080FF68C080912A
:10561000E80090E0A0E0B0E022E0880F991FAA1F08
:10562000BB1F2A95D1F7AC01BD01769567955795BB
:1056300047952091E3002F70820F911DA11DB11D90
:10564000840F951FA61FB71F2091E400277004C088
:10565000880F991FAA1FBB1F2A95D2F70E96A11D6E
:10566000B11D2091E100237004C0880F991FAA1F6B
:10567000BB1F2A95D2F7B695A7959795879540E0D9
:1056800050E0BA0120917A05222321F04EEF5FEF1E
:105690006FEF7FEF4F5F5F4F6F4F7F4F4817590797
:1056A0006A077B0778F34E3F5F4F6F4F7F4FB8F429
:1056B0008091E90080FF13C01092E000000082E1B9
:1056C0008093E000000081E08093E90080917B05F9
:1056D00090917C05019690937C0580937B050895BD
:1056E00010927C0510927B050895FC0140A923E0EF
:1056F00030E0008002C0369527950A94E2F7642FC7
:1057000070E08FEF90E0821B930B8617970710F0E5
:10571000240F20AB08950F93CF93DF93FC01C08536
:10572000D18583E0CC0FDD1F8A95E1F7DF01A25A16
:10573000BF4F8D919C911197C80FD91F2C83C085A5
:10574000D18593E0CC0FDD1F9A95E1F78D919C9167
:105750001197C80FD91F1B82C085D18523E0CC0FBC
:10576000DD1F2A95E1F78D919C911197C80FD91FE4
:105770008B81877C8B83C085D18533E0CC0FDD1F87
:105780003A95E1F78D919C911197C80FD91F4770F9
:10579000440F440F440F8B81482B4B83C085D18528
:1057A00043E0CC0FDD1F4A95E1F78D919C91119755
:1057B000C80FD91F6D83C085D18553E0CC0FDD1F85
:1057C0005A95E1F78D919C911197C80FD91F6E835F
:1057D000C085D18563E0CC0FDD1F6A95E1F78D911F
:1057E0009C911197C80FD91F8B818C7F8B838085EB
:1057F000918573E0880F991F7A95E1F70D90BC9120
:10580000A02DA80FB91F037013968C911397082B26
:1058100013960C938085918501969187808784816A
:105820009581019695838483DF91CF910F9108959F
:105830008F92AF92CF92EF920F93CF93DF93CDB72A
:10584000DEB7DC01962F642F422F802F2E2DEC2CFB
:10585000CA2CA82C913011F0943031F40E2D482F21
:10586000CD010E948B2B13C0923029F4E0919A0550
:10587000F0919B0506C0933051F4E0919C05F091A6
:105880009D05309721F0022F282FCD010995DF913A
:10589000CF910F91EF90CF90AF908F900895FC0132
:1058A00024A135A12115310599F0809190059091A1
:1058B0009105019690939105809390058217930727
:1058C00058F081E090E090938F0580938E0504C09E
:1058D00010928F0510928E0580918E0590918F0504
:1058E000089510928F0510928E05109291051092D6
:1058F000900508958F929F92AF92BF92CF92DF92C0
:10590000EF92FF920F931F93CF93DF93EC018E855D
:10591000811126C02F89388D4A895B893B8B2A8B60
:105920008C899D89820F931F841B950B9D8B8C8B7B
:105930008C899D89883C910540F0885C91099D8BFC
:105940008C8B8E898F5F8E8BF3CF8F85882349F068
:105950009E89891710F41F8604C0891B8F8701C098
:105960001E8AFE01E355FF4F0190F081E02D309734
:1059700019F0CE01C19609951E86C884D984E12C00
:10598000F12C00E010E0C801A0E0B0E08C159D050E
:10599000AE05BF0550F4602FCE010E9461309E8598
:1059A000892B8E870F5F1F4FEECFCE010E944F2CA9
:1059B0008E85813019F580918E0590918F05019724
:1059C000A1F40E94712C8EA99FA991609FAB8EAB10
:1059D0008881813021F482E08093A40528C0811160
:1059E00026C082E08093A50522C08EA99FA9916060
:1059F0009FAB8EABCE010E94802719C080917E059F
:105A0000813011F410927E058EA99FA99E7F9FABD5
:105A10008EAB8881813021F482E08093A40505C09B
:105A2000811103C082E08093A5050E94712C8A81B8
:105A30009B81A0E0B0E00796A11DB11DF3E0B695F3
:105A4000A79597958795FA95D1F720E030E08E01DC
:105A500002591F4FA90160E070E0481759076A0713
:105A60007B0750F4F80140815181FA01E20FF31FE6
:105A700010822F5F3F4FEECFC884D984E12CF12CE8
:105A800020E030E080E090E0DE01A25ABF4FBE018E
:105A900062597F4F01E010E04C01A12CB12C8C1415
:105AA0009D04AE04BF0420F5ED91FC911197E20F27
:105AB000F31F40814871C1F0FB01A080B180AC01AF
:105AC000E3E056954795EA95E1F7F501E40FF11DFE
:105AD000482F4770580102C0AA0CBB1C4A95E2F738
